:020000040800F2
:1000000020AE00203D540008E9040008EB0400087D
:10001000EF040008F3040008F704000800000000E3
:10002000000000000000000000000000FB040008C9
:10003000FD04000800000000FF040008010500089E
:1000400057540008575400085754000857540008E4
:1000500057540008575400085754000857540008D4
:1000600057540008575400085754000857540008C4
:1000700057540008575400085754000857540008B4
:1000800057540008575400085754000857540008A4
:100090005754000857540008575400085754000894
:1000A0005754000857540008575400085754000884
:1000B00057540008D3460008575400085754000806
:1000C0005754000857540008575400085754000864
:1000D000575400083F52000857540008575400086E
:1000E0005754000857540008575400085754000844
:1000F0005754000857540008575400085754000834
:100100005754000857540008575400085754000823
:1001100057540008575400084D470008575400082A
:100120005754000857540008575400085754000803
:1001300000F002F800F06EF80AA090E8000C82448B
:100140008344AAF10107DA4501D100F063F8AFF268
:10015000090EBAE80F0013F0010F18BFFB1A43F0A5
:10016000010318474CC502006CC502000A444FF059
:10017000000C10F8013B13F0070408BF10F8014B06
:100180001D1108BF10F8015B641E05D010F8016B4B
:10019000641E01F8016BF9D113F0080F1EBF10F8AF
:1001A000014BAD1C0C1B09D16D1E58BF01F801CBD2
:1001B000FAD505E014F8016B01F8016B6D1EF9D555
:1001C0009142D6D37047000000230024002500266A
:1001D000103A28BF78C1FBD8520728BF30C148BFAA
:1001E0000B607047642908F0E380782908F01C81CF
:1001F000732908F00C84002070471FB508F03AFD01
:100200000400002000211EF03FFD401C60601FBD67
:1002100010B510BD08F009FD1146FFF7EEFF00F024
:1002200033F808F039FD03B4FFF7F2FF03BC04F024
:10023000F7FF000010B50BF0CFFC824808F04CFF30
:10024000814809F031F8814809F0AAF8804809F09E
:1002500033FF80480EF02CFF7F4810F0FFF87F48F6
:1002600010F0AAFC7E4810F0CBFD7E4810F09CFEFA
:100270007D4811F0E1F87D4811F0CCF97C4811F08F
:100280000BFA07F0F9FF10BD7A4800887A49088018
:100290007A4800887A4908807A4800887A49088034
:1002A0007A4800887A49088004F0ECFD4FF4A06099
:1002B00005F0B4F94FF49651482004F0FBFF01F02B
:1002C000F2FD00F00FFA04F029F96E48008804F0FE
:1002D000F2FC472140F2E73004F0CEF940F2CF21A2
:1002E00040F2E73004F005FA05F0DFF80121402084
:1002F00005F011FD042012F04DFF0CF077FBFFF725
:1003000099FF5E4801885B48008804F07EFD97E015
:100310006048008800F4004000287DD05E484078A6
:1003200077280FD15C48807875280BD15A48C0785F
:100330006F2807D159A05D49086007F019FA04F049
:1003400071FD68E05448407877280FD15248807892
:1003500069280BD15048C0786F2807D154A0534961
:10036000086007F005FA04F062FD54E04A4840785E
:10037000722826D148488078752822D14648807A4C
:1003800030384FF47A7148434349C97A303901EB28
:10039000C10202EB011100EB81013F48007B3038C4
:1003A00000EB800001EB40003B49497B0844A0F191
:1003B000300443490C8043A03C49086007F0D8F959
:1003C00029E035484078722825D13348807869285B
:1003D00021D13148807A30384FF47A7148432E4920
:1003E000C97A303901EBC10202EB011100EB810146
:1003F0002948007B303800EB800001EB40002649A3
:10040000497B0844A0F1300432490C8032A02749CE
:10041000086007F0ADF900E003E000201D49088006
:1004200000BF681C85B2FA2D01D104F0FBFCB5F5C4
:10043000FA7F02DB04F0FBFC00250A200BF08EFDA6
:1004400066E70000358E0008B9910008F5920008B3
:100450005D9C00083DF00008F5FF0008D506010886
:100460007D0D0108F10E010885120108E91401084B
:1004700031160108000000206E000020020000205C
:10048000700000200400002068000020060000200A
:100490006600002080000020E20B002053657420DD
:1004A000552073756363657373210000C8000020D5
:1004B0005365742043207375636365737321000073
:1004C0007200002072656164205520737563636556
:1004D00073732100740000207265616420432073EF
:1004E0007563636573732100704700BFFEE700BF4B
:1004F000FEE700BFFEE700BFFEE7704770477047AA
:10050000704700000CB50020019000906C48006816
:1005100040F480306A49086000BF6948006800F410
:10052000003000900198401C0190009818B9019883
:10053000B0F5A06FF1D16248006800F4003010B14E
:100540000120009001E0002000900098012843D194
:100550005C48006840F010005A490860084600688E
:1005600020F0030008600846006840F002000860C0
:100570005348406852494860084640684860084609
:10058000406840F4806048600846406820F47C1071
:1005900048600846406840F4E81048600846006833
:1005A00040F08070086000BF4548006800F00070AF
:1005B0000028F9D04248406820F0030040494860D4
:1005C0000846406840F00200486000BF3C48406870
:1005D00000F00C000828F9D10CBD10B5FFF792FF10
:1005E00010BD10B53648006840F00100344908607D
:1005F0000846406834490840314948600846006868
:10060000324908402E4908600846006820F48020DE
:1006100008600846406820F4FE0048604FF41F0060
:100620008860FFF7DAFF4FF000602949086010BDCD
:1006300010B5002100200022214B5B6803F00C0163
:1006400021B1042906D0082928D107E0214B224CEA
:10065000236027E01F4B204C236023E0184B5B688E
:1006600003F47010164B5B6803F48032022303EB33
:10067000904022B9194B4343174C23600DE0104BB7
:100680005B6803F4003323B1144B4343124C2360E3
:1006900003E0104B4343104C236003E00D4B0E4C22
:1006A000236000BF00BF064B5B68C3F303130C4C11
:1006B000E15C094B1B68CB40074C236010BD000078
:1006C00000100240002002400000FFF8FFFFF6FE8D
:1006D00008ED00E000127A000C00002000093D0047
:1006E0001000002008B50121442005F021FB1C204A
:1006F000ADF8000048208DF803006946354805F044
:100700005BF80120ADF8000028208DF80300694651
:10071000314805F051F808BD10B5044614B1012068
:100720002E4908702D480078002837D0102129481C
:1007300005F0D5F878B10821264805F0D0F850B179
:100740000421244805F0CBF828B10121224805F006
:10075000C6F8012822D10A2004F0D1FB00201F494D
:10076000087010211B4805F0BAF808B9012010BD27
:100770000821184805F0B3F808B90220F7E704216A
:10078000144805F0ACF808B90320F0E7012112483D
:1007900005F0A5F801281BD10420E8E710210D4839
:1007A00005F09DF8012813D108210A4805F097F8B3
:1007B00001280DD10421074805F091F8012807D13F
:1007C0000121054805F08BF810B901200349087094
:1007D0000020CCE700180140000801402000002064
:1007E0004FF48071FD4A516149005161FC49086034
:1007F0008021516111618900116170474FF480714E
:10080000F64A116149005161F54908608021516142
:10081000116189001161704710B54FF08830F049BF
:100820000C390860091D08600020ED490860881532
:10083000EA4908614000486140204861E9488088F1
:1008400048F68911884202D1022004F034FBE448C2
:10085000001F006884B24020E0490861C0000861C0
:100860004FF03330DE490C390860091D08604FF63F
:10087000FF70DB490860204610BD10B504460B46EA
:100880002046FFF7ADFF4FF48070D4490861400067
:100890004861D34803608020486108618000086196
:1008A00010BD10B504462046FFF79AFFFFF7B4FFCE
:1008B00010BD00B5CB490889FFF792FF00BD4FF48A
:1008C0008071C64A116149005161C54908608021A3
:1008D0005161116189001161704730B5014601F025
:1008E0001F04C1F34513CA0AE50205EB431515447D
:1008F000A8B230BD00BF0100A0F10102D0B2FAD110
:10090000704730B504460D46B648808849F24131FB
:10091000884205D0B348808845F21031884240D1E2
:10092000B0494889FFF75CFF4FF48070AB4908611C
:10093000400048612012AA4908608020A749486108
:100940000861800008614010086140004861E0B221
:10095000A34908608020A1494861086180000861BE
:10096000A0498889FFF73CFF4FF480709B490861DC
:100970004000486128129A490860802097494861E0
:100980000861800008614010086140004861E8B2D9
:10099000934908608020914948610861800008619E
:1009A0008CE19048808846F60401884249D18D4800
:1009B0008079012804D18B480088401E001B84B236
:1009C00088494889FFF70CFF4FF48070834908611C
:1009D0004000486120128249086080207F494861B8
:1009E0000861800008614010086140004861E0B281
:1009F0007B4908608020794948610861800008616E
:100A000078498889FFF7ECFE4FF4807073490861DC
:100A10004000486128127249086080206F4948618F
:100A20000861800008614010086140004861E8B238
:100A30006B4908608020694948610861800008614D
:100A40003CE16848808841F6631188427ED1654860
:100A5000807900283FD163480088401E001B84B283
:100A600060494889FFF7BCFE4FF480705B4908611C
:100A70004000486100205A49086080205749486179
:100A80000861800008614010086140004861002052
:100A9000534908608020514948610861800008611D
:100AA000401008614000486120124D4908608020D4
:100AB0004A494861086180000861401008614000AF
:100AC0004861E0B2464908608020444948610861B5
:100AD0008000086141E043494889FFF781FE4FF4F7
:100AE00080703E4908614000486120123C4908601E
:100AF00080203A494861086180000861401008611F
:100B000040004861E0B236490860802033494861BE
:100B10000861800008614010086140004861314868
:100B20000088401E00122E49086080202B49486131
:100B30000861800008614010086140004861294850
:100B40000078401EC0B22649086000E04CE08020DA
:100B50002249486108618000086122498889FFF7BD
:100B60003FFE4FF480701D49086140004861281223
:100B70001B490860802019494861086180000861AC
:100B80004010086140004861E8B2154908608020C3
:100B90001249486108618000086140100861400006
:100BA000486110484088401E00120D4908608020AE
:100BB0000A494861086180000861401008614000EE
:100BC000486108488078401EC0B20549086080200E
:100BD000024948610861800008616FE0001001402F
:100BE0000C0C0140D40B0020F748808845F21051CE
:100BF000884250D1F4494889FFF7F2FD4FF48070E4
:100C0000F2490861400048612012F14908608020E3
:100C1000EE494861086180000861EB494989491C37
:100C200088B2FFF7DDFD4FF48070E84908614000AD
:100C30004861E0B2E64908608020E4494861086103
:100C400080000861E0498889FFF7CAFD4FF4807091
:100C5000DE490861400048612812DD4908608020B3
:100C6000DA494861086180000861D7498989491CCF
:100C700088B2FFF7B5FD4FF48070D4490861400099
:100C80004861E8B2D24908608020D04948610861D3
:100C90008000086112E0CC488079012804D1CA485C
:100CA0000088401E001B84B2C74948892146FFF7CF
:100CB000E4FDC54988892946FFF7DFFD30BD2DE9F0
:100CC000F04105460E46C0480088A84203DDBE48F4
:100CD0004088B04202DC0020BDE8F0813146284661
:100CE000FFF70FFEB848808849F24131884211D0A1
:100CF000B548808846F6040188420BD0B248808807
:100D000045F21031884205D0AF48808841F6631122
:100D1000884203D12E20FFF763FD0DE0AA488088AA
:100D200045F21051884204D14FF43850FFF758FD76
:100D300002E02220FFF754FD4FF08830A4490C391F
:100D40000860091D08604FF6FF70A149086088150A
:100D50009E49086140004861402048610220FFF739
:100D6000C9FD9B48001F006884B240209749086174
:100D70009548808841F66311884210D14FF4007085
:100D8000924908614FF0333091490C390860091DD0
:100D900008604FF6FF708E49086020469CE74020AF
:100DA0008A4948610220FFF7A5FD8948001F0068B5
:100DB00084B24020854908618348808849F24131E6
:100DC00088420BD08048808845F21031884205D097
:100DD0007D48808845F21051884213D140207B49DC
:100DE00048610220FFF786FD7948001F00681FFA5E
:100DF00080F8402075490861E7B24FF6FF7000EABD
:100E000007270DE07048808846F60401884207D124
:100E100040206E49486108616D48001F006884B237
:100E20004FF40070694908614FF0333068490C395C
:100E30000860091D08604FF6FF7065490860624848
:100E4000808849F22531884216D05F48808844F274
:100E50003551884210D05C488088091F88420BD0E9
:100E60005948808848F68911884205D056488088BC
:100E70004BF20551884201D120462DE75248808827
:100E800049F2413188420BD04F48808845F21031F9
:100E9000884205D04C48808845F21051884207D1DD
:100EA000E012C002B91240EA411040EAE82013E71C
:100EB0002046FFF712FD0FE700B54348808849F24E
:100EC0004131884211D04048808846F6040188426A
:100ED0000BD03D48808845F21031884205D03A4811
:100EE000808841F66311884203D12920FFF778FCFE
:100EF0000FE03548808845F21051884204D14FF404
:100F00002450FFF76DFC04E040F273110720FFF757
:100F1000B4FC00BD00B52C48808849F241318842BC
:100F200011D02948808846F6040188420BD0264813
:100F3000808845F21031884205D02348808841F6E8
:100F40006311884203D12820FFF74AFC0EE01E48B7
:100F5000808845F21051884204D14FF42050FFF7A9
:100F60003FFC03E000210720FFF787FC00BDF0B540
:100F70000546002400271448807901280BD1124827
:100F8000808846F60401884205D00F48808841F6E3
:100F90006311884208D10C48807920BB0A488088B8
:100FA00041F6631188421ED1082D1BD2DFE805F0FF
:100FB0000406080A12141618062513E0072511E086
:100FC00004250FE005250DE0D40B002000100140A2
:100FD0000C0C0140012505E0002503E0032501E09C
:100FE000022500BF00BFF848808849F2413188429D
:100FF00017D0F548808846F60401884211D0F2489F
:10100000808845F2103188420BD0EF48808845F245
:101010001051884205D0EC48808841F6631188421F
:101020007ED1082D1CD2DFE805F00406090C0F1252
:10103000151800BF14E044F0800411E044F04004AF
:101040000EE044F0C0040BE044F0200408E044F05B
:10105000600405E044F0A00402E044F0E00400BFB6
:1010600000BFD948808845F21051884202D14FF420
:10107000585700E03627D448808845F2103188421E
:101080000DD0D148808845F21051884207D0CE4813
:10109000808841F66311884201D044F00804CA48B0
:1010A000808846F60401884201D144F002042146BA
:1010B0003846FFF7E2FBC448808841F66311884256
:1010C0001DD004F0200068B1BF480088BE4949889F
:1010D000884214DABC4806884088BB490880084624
:1010E00046800CE0B8480088B7494988884206DD48
:1010F000B54806884088B449088008464680B2480A
:10110000808845F2105188427ED1AF494889FFF767
:1011100067FB4FF48070AD4908614000486100E012
:1011200029E10020AA4908608020A8494861086197
:1011300080000861A4494989491C88B2FFF750FB27
:101140004FF48070A1490861400048610020A04927
:10115000086080209D4948610861800008619A49C3
:101160004989891C88B2FFF73BFB4FF4807097498F
:1011700008614000486194480088401E001294496C
:1011800008608020914948610861800008618E49AB
:101190004989C91C88B2FFF723FB4FF480708B4943
:1011A00008614000486188480078401EC0B2884904
:1011B0000860802085494861086180000861824993
:1011C0008889FFF70DFB4FF480708049086140006B
:1011D000486100207E49086080207C4948610861A0
:1011E0008000086178498989491C88B2FFF7F8FABC
:1011F0004FF48070754908614000486100207449CF
:1012000008608020714900E034E048610861800096
:1012100008616D498989891C88B2FFF7E1FA4FF4AA
:1012200080706A4908614000486167484088401EF4
:1012300000126749086080206449486108618000A5
:10124000086161498989C91C88B2FFF7C9FA4FF45E
:1012500080705E490861400048615B488078401EAC
:10126000C0B25B490860802058494861086180002D
:101270000861A7E054494889FFF7B2FA4FF480703B
:1012800052490861400048610020514908608020AF
:101290004E494861086180000861401008614000C3
:1012A000486100204A490860802048494861086137
:1012B0008000086140100861400048614248008891
:1012C000401E001242490860802040494861086180
:1012D0008000086140100861400048613A48007889
:1012E000401EC0B23A490860802038494861086110
:1012F0008000086134498889FFF772FA4FF48070E2
:10130000324908614000486100203149086080206E
:101310002E49486108618000086140100861400062
:10132000486100202A4908608020284948610861F6
:1013300080000861401008614000486122484088F0
:10134000401E00122249086080202049486108613F
:101350008000086140100861400048611A488078A8
:10136000401EC0B21A4908608020184948610861CF
:101370008000086126E0082D1CD2DFE805F0040794
:101380000A0D0F12151844F0300413E044F0100455
:1013900010E044F020040DE000BF0BE044F03804FE
:1013A00008E044F0280405E044F0180402E044F0AA
:1013B000080400BF00BF032744F480542146384688
:1013C000FFF75BFAF0BD0000D40B002000100140D5
:1013D0000C0C014030B504460D4629462046FFF767
:1013E00090FAFFF766FA4FF48070FE4908614000FA
:1013F0004861FD480088FD4908608020F94948613E
:1014000008618000086130BD70B504460D4616467F
:10141000F748808849F24131884205D0F4488088F5
:1014200045F21031884240D1F1494889FFF7D8F997
:101430004FF48070EB490861400048612012EB498D
:1014400008608020E7494861086180000861401019
:10145000086140004861E0B2E44908608020E14949
:101460004861086180000861E1498889FFF7B8F99F
:101470004FF48070DB490861400048612812DB4965
:1014800008608020D74948610861800008614010E9
:10149000086140004861E8B2D44908608020D14921
:1014A00048610861800008613DE1D148808845F2CB
:1014B0001051884250D1CE494889FFF791F94FF435
:1014C0008070C8490861400048612012C74908601F
:1014D0008020C4494861086180000861C449498985
:1014E000491C88B2FFF77CF94FF48070BD49086150
:1014F00040004861E0B2BD4908608020B9494861B8
:10150000086180000861BA498889FFF769F94FF4DA
:101510008070B4490861400048612812B3490860EE
:101520008020B0494861086180000861B04989891C
:10153000491C88B2FFF754F94FF48070A94908613B
:1015400040004861E8B2A94908608020A549486187
:10155000086180000861E6E0A548808841F66311D3
:1015600088427DD1A248807920B9A1480088401ED8
:10157000001B84B29E494889FFF732F94FF480700E
:10158000984908614000486120129849086080200D
:10159000944948610861800008614010086140007A
:1015A0004861E0B29149086080208E494861086135
:1015B00080000861401008614000486120128B499A
:1015C00008608020874948610861800008614010F8
:1015D000086140004861E0B2844908608020814988
:1015E000486108618000086181498889FFF7F8F83F
:1015F0004FF480707B4908614000486128127B49A4
:1016000008608020774948610861800008614010C7
:10161000086140004861E8B274490860802071495F
:10162000486108618000086140100861400048611D
:1016300028126E49086080206A494861086180006C
:1016400008614010086140004861E8B267490860DD
:1016500080206449486108618000086163E0FFE719
:101660006348808846F60401884249D16048807901
:10167000012804D15E480088401E001B84B25C49EA
:101680004889FFF7ADF84FF4807056490861400073
:10169000486120125549086080205249486108611C
:1016A000800008614010086140004861E0B24F4985
:1016B000086080204B4948610861800008614C49FE
:1016C0008889FFF78DF84FF4807046490861400023
:1016D00048612812454908608020424948610861F4
:1016E000800008614010086140004861E8B23F494D
:1016F000086080203B49486108618000086112E071
:101700003B488079012804D139480088401E001BDD
:1017100084B2374948892146FFF7AFF834498889B0
:101720002946FFF7AAF84FF480702E49486140001F
:1017300048612F4800892D49086080202949486167
:101740000861800008614010086140004861274836
:1017500006608020486108618000086170BD2DE945
:10176000F0410446BE20FFF73BF84FF480701D495E
:1017700008614000486105201C4908608020194923
:1017800048610861800008614010086140004861BC
:1017900020461DF0B9FB05464FF06632154B1DF093
:1017A00003FC07461DF06CFB1049086080200D49C2
:1017B000486108618000086140100861400048618C
:1017C00001200A49086080200649486108618000BC
:1017D00008614010086140004861FF20034908602B
:1017E000802009E000100140220000200C0C014084
:1017F000D40B002066660440FE4948610861800001
:10180000086140100861400048610020FA49086002
:101810008020F84948610861800008614010086133
:10182000400048610020F44908608020F149486187
:10183000086180000861BDE8F08110B50446002C05
:1018400066D1EE498871F02008804FF4A07048807E
:101850000846808849F2413188420BD0E7488088A9
:1018600046F60401884205D0E448808845F21031EC
:1018700088421AD12C20E14908812A2048812B2056
:1018800088810846808846F60401884205D0DB48F6
:10189000808845F21031884206D14FF4A070D749B4
:1018A00008804FF4F0704880A1E0D448808845F269
:1018B0001051884210D14FF43050D04908814FF474
:1018C000285048814FF42C5088814FF4F0700880E4
:1018D0004FF4487048808AE0C848808841F6631118
:1018E00088420DD12C20C54908812B2048812A200F
:1018F00088814FF4F07008804FF44870488076E09B
:101900002220BE49088120204881212088816EE064
:101910000120BA4988714FF4A0700880F0204880F7
:101920000846808849F24131884205D0B348808812
:1019300045F21031884207D12C20B04908812A2075
:1019400048812B2088813FE0AC48808846F604011E
:10195000884207D12C20A94908812B2048812A20C0
:10196000888131E0A548808845F21051884210D125
:101970004FF43050A14908814FF4285048814FF46A
:101980002C5088814FF4487008804FF4F0704880E4
:101990001AE09A48808841F6631188420DD12C20C4
:1019A000964908812A2048812B2088814FF448706D
:1019B00008804FF4F070488006E022208F490881AB
:1019C00021204881202088818C48808846F60401A7
:1019D000884205D08948808845F21031884206D176
:1019E0004FF4F070854908804FF4A07048800020C3
:1019F000FFF7BDFA10BD2DE9F04F86B004460D4645
:101A00009046994604EB0800401E86B205EB09009B
:101A1000401E87B27948808849F24131884215D00A
:101A20007648808845F2103188420FD0734880880C
:101A300046F60401884209D07048807901287BD19C
:101A40006E48808841F66311884275D16B49488998
:101A5000FEF7C6FE4FF48070664908614000486199
:101A60002012654908608020624948610861800051
:101A700008614010086140004861E0B25E490860BA
:101A800080205C494861086180000861401008615D
:101A9000400048613012584908608020554948612B
:101AA0000861800008614010086140004861F0B2A0
:101AB0005149086080204F494861086180000861F1
:101AC0004E498889FEF78CFE4FF4807049490861C1
:101AD0004000486128124849086080204549486113
:101AE0000861800008614010086140004861E8B268
:101AF0004149086080203F494861086180000861D1
:101B0000401008614000486138123B49086080205D
:101B10003849486108618000086140100861400050
:101B20004861F8B234490860802032494861086150
:101B30008000086177E1FFE73048808841F6631153
:101B400088427DD12D480088A0EB0800001B84B29C
:101B500005EB0900401E1FFA80F928494889FEF765
:101B60003FFE4FF480702349086140004861201215
:101B70002149086080201F49486108618000086190
:101B80004010086140004861E0B21B4908608020B5
:101B900018494861086180000861401008614000F0
:101BA000486104EB0800401E0012134908608020C1
:101BB00010494861086180000861401008614000D8
:101BC000486104EB0800401EC0B20B490860802049
:101BD0000849486108618000086108498889FEF762
:101BE000FFFD4FF4807003490861400048612812EE
:101BF000014905E0001001400C0C0140D40B00200D
:101C000008608020FE49486108618000086140103A
:101C1000086140004861E8B2FA4908608020F8494C
:101C20004861086180000861401008614000486117
:101C30004FEA2920F34908608020F149486100E01B
:101C400011E00861800008614010086140004861AF
:101C500009F0FF00EB4908608020E949486108610C
:101C600080000861DFE0E848808845F21051884232
:101C70007ED1E5494889FEF7B3FD4FF48070E04915
:101C80000861400048612012DE4908608020DC497C
:101C90004861086180000861DB494989491C88B2B4
:101CA000FEF79EFD4FF48070D54908614000486101
:101CB000E0B2D44908608020D149486108618000C1
:101CC0000861D1494989891C88B2FEF789FD4FF422
:101CD0008070CB490861400048613012C9490860F2
:101CE0008020C7494861086180000861C649498968
:101CF000C91C88B2FEF774FD4FF48070C0490861BA
:101D000040004861F0B2BF4908608020BC4948618A
:101D1000086180000861BC498889FEF761FD4FF4C5
:101D20008070B7490861400048612812B5490860D1
:101D30008020B3494861086180000861B2498989FF
:101D4000491C88B2FEF74CFD4FF48070AC49086125
:101D500040004861E8B2AB4908608020A84948616A
:101D6000086180000861A8498989891C88B200E05F
:101D700026E0FEF735FD4FF48070A1490861400070
:101D8000486138129F49086080209D494861086178
:101D9000800008619C498989C91C88B2FEF720FD32
:101DA0004FF480709649086140004861F8B2954947
:101DB000086080209249486108618000086132E033
:101DC0009148807901280ED1AA46BB468E480088EA
:101DD000801B401E80B201908B480088001B401E73
:101DE00080B2009003E0A246B346019500975020D0
:101DF00005905120049052200390532002905146A8
:101E00000598FEF73AFD59460498FEF736FD01990C
:101E10000398FEF732FD00990298FEF72EFD294641
:101E20002046FEF76EFD06B0BDE8F08F70B50446A3
:101E3000002675480588408845437348808846F6E3
:101E40000401884216D170488079012812D10020FF
:101E50006D4988712A2048812B20888100210846FD
:101E6000FEF74FFD0120684988712B2048812A2008
:101E7000888103E000210846FEF743FDFEF719FDC7
:101E800000260DE04FF480705D4908614000486114
:101E90005C48046080204861086180000861761C0D
:101EA000AE42EFD370BD08B50121192003F040FF09
:101EB0000121564803F051FD4FF4F860ADF80000E1
:101EC00010208DF8030003208DF8020069464C486D
:101ED00003F072FC4FF4F861494803F01AFD4FF625
:101EE000FF70ADF80000694646480C3803F064FC0A
:101EF0004FF6FF7143480C3803F00BFD322002F01F
:101F0000FEFF01210020FEF7B8FC322002F0F7FFAF
:101F10000020FEF7C6FC3C49888008468088FF28E0
:101F20000ADB084680884FF6FF71884204D03648A5
:101F30008088B0F5134F62D1D320FEF751FCFEF735
:101F40006BFCFEF769FCFEF767FC2F4988800846AA
:101F500080884FF6FF7101EA00202B498880FEF748
:101F60005BFC29498988084327498880084680887E
:101F700049F24131884242D0BF20FEF731FCFEF7E2
:101F80004BFCFEF749FCFEF747FCFEF745FC1E49FB
:101F90008880084680884FF6FF7101EA00201A49C0
:101FA0008880FEF739FC18498988084316498880DB
:101FB0000846808846F6040188427CD0D420FEF78B
:101FC0000FFCFEF729FCFEF727FCFEF725FC0E4967
:101FD0008880084680884FF6FF7101EA00200A4990
:101FE0008880FEF719FC08498988084306498880DB
:101FF0000846808845F2103188425CD008E05AE0FB
:10200000001001400C0C0140D40B002000023000F5
:102010004FF45A40FEF7E4FBFEF7FEFB4FF45B4043
:10202000FEF7DEFBFEF7F8FBFE4988800846808855
:102030004FF6FF7101EA0020FA4988804FF45C40B6
:10204000FEF7CEFBFEF7E8FBF64989880843F54921
:10205000888008468088B0F5004F02D145F21050C4
:102060008880F048808845F21051884223D0A12012
:10207000FEF7B6FBFEF7D0FBEA498880FEF7CCFB03
:10208000E8498880084680884FF6FF7101EA002001
:10209000E4498880FEF7C0FBE24989880843E149AA
:1020A00088800846808845F26171884203D141F6F4
:1020B0006310DC498880DB488188DBA006F008F9E2
:1020C000D848808849F2413188427DD0D5488088FF
:1020D00046F604018842F8D0D248808845F2103193
:1020E0008842F2D0CF48808845F210518842ECD027
:1020F000CC48808849F225318842E6D0C94880889A
:10210000C91C8842E1D0C748808849F22031884202
:10211000DBD0C448808849F231318842D5D0C148EB
:10212000808845F208418842CFD0BE48808841F27D
:1021300005518842C9D0BB4880884BF2055188427E
:10214000C3D0B84880884CF205518842BDD0B5480C
:10215000808848F689118842B7D0B248808844F216
:1021600031518842B1D0AF488088091D8842ACD037
:10217000AC48808841F66311884225D1E220FEF701
:102180002FFB4FF48070AC490861400048611D206E
:10219000AA4908608020A849486108618000086158
:1021A00040100861400048610220A4490860802076
:1021B000A149486108618000086140100861400041
:1021C000486104209D4900E053E2086080209A495C
:1021D0004861086180000861642002F06CFEE02024
:1021E000FEF7FEFA4FF480709349086140004861A1
:1021F00001209249086080208F4948610861800071
:1022000008610A2002F07BFEE020FEF7E9FA4FF4B5
:10221000807089490861400048610320874908604F
:102220008020854948610861800008610C2002F027
:1022300066FE0120FEF7D4FA0A2002F060FEE620D6
:10224000FEF7CEFA4FF480707B4908614000486188
:102250002F207A4908608020774948610861800012
:1022600008614010086140004861FF207349086020
:102270008020714948610861800008614010086150
:1022800040004861FF206D49086080206A4948612C
:10229000086180000861B020FEF7A2FA4FF4807058
:1022A0006549086140004861202064490860802039
:1022B0006149486108618000086140100861400080
:1022C000486100205D49086080205B4948610861E1
:1022D00080000861401008614000486103205749B0
:1022E00008608020544948610861800008614010FE
:1022F00008614000486140F21F305049086080206A
:102300004D49486108618000086140100861400043
:1023100048610120494908608020474948610861B7
:1023200080000861401008614000486140F2DF1001
:102330004249086080204049486108618000086186
:10234000401008614000486100203C49086080203E
:1023500039494861086180000861B420FEF740FAFD
:102360004FF48070344908614000486104203349CB
:102370000860802030494861086180000861401091
:1023800008614000486140F21F402C4908608020ED
:1023900029494861086180000861401008614000D7
:1023A0004861002025490860802023494861086170
:1023B0008000086140100861400048612E201F49DC
:1023C000086080201C494861086180000861401055
:1023D00008614000486100201849086080201649C3
:1023E0004861086180000861401008614000486150
:1023F00000201249086080200F4948610861800070
:102400000861401008614000486100200B490860E5
:102410008020094948610861800008614010086116
:1024200040000DE0D40B0020204C43442049443AA6
:1024300025780D0A00000000001001400C0C01403E
:1024400048610020F74908608020F7494861086129
:1024500080000861B620FEF7C3F94FF48070F2499E
:102460000861400048610220EE4908608020EE4982
:1024700048610861800008614010086140004861BF
:102480004FF40370E74908608020E749486108611C
:102490008000086140100861400048610020E14967
:1024A00008608020E04948610861800008614010B0
:1024B0000861400048611720DA4908608020DA4945
:1024C000486108618000086140100861400048616F
:1024D0001520D44908608020D349486108618000F4
:1024E000086140100861400048610020CD49086043
:1024F0008020CD4948610861800008614010086172
:10250000400048610020C74908608020C6494861F2
:10251000086180000861F020FEF762F94FF48070D6
:10252000C1490861400048610320BE49086080201D
:10253000BD4948610861800008612920FEF750F913
:10254000D020FEF74DF94FF48070B7490861400084
:1025500048610020B34908608020B34948610861A0
:1025600080000861BE20FEF73BF94FF48070AE4951
:102570000861400048610520AA4908608020AA49F6
:1025800048610861800008614010086140004861AE
:10259000FE20A44908608020A349486108618000AA
:1025A0000861401008614000486101209D490860B1
:1025B00080209D49486108618000086140100861E1
:1025C0004000486100209749086080209649486192
:1025D00008618000086140100861400048610020E7
:1025E0009049086080209049486108618000086136
:1025F000401008614000486100208A49086080203E
:1026000089494861086180000861B820FEF7E8F850
:102610004FF480708449086140004861032081497B
:10262000086080208049486108618000086140108E
:1026300008614000486101207A49086080207A4999
:102640004861086180000861BA20FEF7C9F84FF4BC
:102650008070754908614000486101207149086037
:102660008020714948610861800008613C20FFF7C3
:1026700076F80120FFF7E1F801206C4908604FF679
:10268000FF70FFF7D3FB08BD2DE9FC4F05460E4652
:1026900017469846DDF82C90002001906448808809
:1026A00046F60401884229D161488079012825D164
:1026B000AB4635465E480088C01B401E86B2474682
:1026C0005B480088A0EB0B00401E1FFA80F800203A
:1026D000574988712A2048812B20888143463A46F1
:1026E00031462846CDF80090FFF7CEFF0120504933
:1026F00088712B2048812A20888127E0781B401C84
:1027000080B2019034461FE021462846FEF7F9F8D2
:10271000FEF7CFF84FF0000A11E04FF48070424905
:102720000861400048613F48C0F80090802048613F
:102730000861800008610AF101001FFA80FA01981F
:102740008245EADB601C84B24445DDDDBDE8FC8FD8
:102750002DE9F84F07460D4690469946DDF828B01A
:10276000A8EB0700401C1FFA80FAA9EB0500401CEB
:1027700080B20090002420E0281981B23846FEF78C
:10278000C0F8FEF796F8002613E04FF48070264953
:1027900008614000486104FB0A603BF810002149D1
:1027A0000860802020494861086180000861701C31
:1027B00086B25645E9DB601C84B200988442DBDBBC
:1027C000BDE8F88F2DE9FF4F84B081468A4600208E
:1027D000039002900698A0EB09050798A0EB0A0663
:1027E000CDF80490CDF800A0002D01DD012705E013
:1027F0000DB9002702E04FF0FF376D42002E02DDD9
:102800004FF0010806E016B94FF0000802E04FF063
:10281000FF387642B54201DD2C4600E034464FF0E9
:10282000000B29E00C0C014000100140A8012242DD
:10283000D40B0020009A91B2019A90B2FEF7CAFD23
:102840000398284403900298304402900398A042D1
:1028500005DD0398001B039001983844019002980D
:10286000A04205DD0298001B0290009840440090B1
:102870000BF101001FFA80FB601C8345DADD08B014
:10288000BDE8F08FF0B504460D4616461F462B46B0
:10289000324629462046FFF795FF3B462246294609
:1028A0002046FFF78FFF3B46324639462046FFF76A
:1028B00089FF3B46324629463046FFF783FFF0BD8D
:1028C0002DE9F04306460F46904600244546032076
:1028D000A0EB48093CE07A1B91B2321990B2FEF7A6
:1028E00079FD3A1B91B2721990B2FEF773FD3A1955
:1028F00091B2721990B2FEF76DFD7A1991B2321948
:1029000090B2FEF767FD7A1991B2321B90B2FEF7D2
:1029100061FD3A1991B2721B90B2FEF75BFD7A1B12
:1029200091B2321B90B2FEF755FD3A1B91B2721B69
:1029300090B2FEF74FFD641CB9F1000F03DAA0005E
:10294000801D814404E0601B80000A3081446D1EBC
:10295000AC42C0DDBDE8F0832DE9F84F80460E465D
:1029600017461C46B3462046E31704EB5373DB10AF
:1029700021464FEAE47C04EB5C7C4FEAEC0CA4EBD0
:10298000CC0CBCF1000F02D04FF0010C01E04FF075
:10299000000C6344224604EBD27C4FEA6C0C03FB30
:1029A0000CF3DBB20093A7F12000C7B2002556E07C
:1029B0000C2C07D107EB47009F4901EB800010F872
:1029C000059013E0102C05D19C4800EB071010F87F
:1029D00005900BE0182C07D107EBC700984901EBD5
:1029E000800010F8059001E0BDE8F88F4FF0000A74
:1029F0002FE009F0800030B192480288314640460D
:102A0000FEF702FD07E00A9828B98F480288314690
:102A10004046FEF7F9FC4FEA49604FEA1069701C26
:102A200086B28A484088B04200DCDDE7A6EB0B00A6
:102A3000A0420AD15E4608F101001FFA80F88348DF
:102A40000088404500DCCFE706E00AF1010000F015
:102A5000FF0ABAF1080FCCDB00BF681CC5B20098B2
:102A60008542A5DB00BFBFE710B50246012000E0AC
:102A700050430B00A1F10104E1B2F9D110BD2DE9E1
:102A8000FF4F81B0074691461E460E9D4FF0000A4B
:102A9000002439E0301B401EC1B20A20FFF7E4FFDA
:102AA000B9FBF0F00A21B0FBF1F201FB1208BAF118
:102AB000000F16D1701EA04213DDB8F1000F0ED129
:102AC0000020AB4605EBDB71491001FB047100905F
:102AD00088B22B4620220299FFF73EFF12E04FF00A
:102AE000010A0020AB4605EBDB71491001FB0471C4
:102AF000009088B208F13001CAB22B460299FFF764
:102B00002BFF00BF601CC4B2B442C3DB05B0BDE8FC
:102B1000F08F2DE9FF4F82B0064692461F46DDE951
:102B20000F480020019000254DE0781B401EC1B2E7
:102B30000A20FFF799FFBAFBF0F00A21B0FBF1F28F
:102B400001FB1209019850BB781EA84227DDB9F19C
:102B5000000F22D108F0800078B108F00100A346F0
:102B600004EBDB71491001FB0561009088B223463C
:102B700030220399FFF7F0FE0EE008F00100A346B3
:102B800004EBDB71491001FB0561009088B223461C
:102B900020220399FFF7E0FE13E00120019008F0E6
:102BA0000100A34604EBDB71491001FB05610090B5
:102BB00088B209F13001CAB223460399FFF7CCFE6F
:102BC00000BF681CC5B2BD42AFDB06B0BDE8F08FE8
:102BD0002DE9F84704460D4690469946DDE9096718
:102BE00004F0FF0A08EB04001FFA80F809EB050067
:102BF0001FFA80F916E0444502DB5446A81985B255
:102C00004D4500DB14E0002000903A783346294619
:102C10002046FFF7A1FE304606EBD07104EB6101C0
:102C20008CB27F1C38787E2802DC38782028E2DAE3
:102C300000BFBDE8F887000058FC0108CC0002087E
:102C4000BC0602082200002024000020D40B002033
:102C500008B50121102003F06BF84FF4C050ADF817
:102C6000000010208DF8030003208DF80200694653
:102C70008A4802F0A1FD0120894908608949C1F80C
:102C8000AC0108BD10B58548406820F47040834908
:102C900048600846406840F4405048600120804940
:102CA000091F08607F49C1F8B001042002F003F950
:102CB00000207B49091F0860042002F0FCF8002076
:102CC0007849C1F8B00110BD10B57448406820F4CF
:102CD0007040724948600846406840F4405048607F
:102CE00000206F4908606F49C1F8AC01042002F070
:102CF000E2F801206A4908606A49C1F8AC01042081
:102D000002F0D9F810BD10B500246448406820F4E2
:102D10007040624948600846406840F4004048609E
:102D200001205F49091F086002F0C5F801205D49D4
:102D3000C1F8B00102F0BFF807E0601CC4B2FA2C81
:102D400003DDFFF7C1FF012010BD5548843800683E
:102D50000028F2D15249086000BFF5E710B5002005
:102D60004F4908604D48406820F470404B49486026
:102D70000846406840F44050486000204949C1F886
:102D8000AC01022002F097F80120454908600220BA
:102D900002F091F800204349C1F8B00110BD10B510
:102DA00000203F4908603D48406820F470403B499E
:102DB00048600846406840F4405048600120394966
:102DC000C1F8AC01022002F076F801203449086015
:102DD000022002F070F800203249C1F8B00110BDA5
:102DE00070B504462D48406820F470402B49486077
:102DF0000846406840F44050486000202849086078
:102E0000002517E0E0092649091F08606006040E46
:102E1000022002F050F801202249C1F8B00102203E
:102E200002F049F800201E490860022002F043F831
:102E3000681CC5B2082DE5DB70BD70B505460024E1
:102E40001648406820F470401449486008464068BD
:102E500040F400404860002616E000201049086059
:102E6000022002F028F801200E49C1F8B0016006E6
:102E7000040E0B488438006808B1601CC4B20120FD
:102E800002F019F8701CC6B2082EE6DB15B9FFF780
:102E900086FF01E0FFF762FF204670BD0010014091
:102EA000B00122420000224210B5FFF7D1FE10BD52
:102EB00070B504460026FFF7E5FE2546E11704EB52
:102EC00011610912A02202EB4101C8B2FFF788FF8D
:102ED000FFF719FFE11704EB11610912A4EB0121BF
:102EE000C8B2FFF77DFFFFF70EFFFFF7CBFEA12073
:102EF000FFF776FFFFF707FF0020FFF79EFF06466C
:102F0000FFF7E2FE304670BD70B504460E46FFF78F
:102F1000B9FE2546E11704EB11610912A02202EB6C
:102F20004101C8B2FFF75CFFFFF7EDFEE11704EBCC
:102F300011610912A4EB0121C8B2FFF751FFFFF79D
:102F4000E2FE3046FFF74CFFFFF7DDFEFFF7BCFE69
:102F50000A2001F0D4FF70BD2DE9F04105460E4670
:102F60001746002409E0E20026FA02F2D1B22A193B
:102F700090B2FFF7C9FF601CC4B2BC42F3DBBDE8EE
:102F8000F0812DE9F04107460C460026002509E0B6
:102F900036023919491B491E88B2FFF789FF0644DA
:102FA000681CC5B2A542F3DB3046BDE8F08110B520
:102FB000FF20FFF77DFF0446552C01D1002010BDF6
:102FC0005521FF20FFF7A0FFFF20FFF771FF044608
:102FD000552C01D10020F2E70120F0E770B506463C
:102FE0000C46154608E03046721C96B2FFF760FFAB
:102FF00004F8010B681E85B2002DF4D170BD70B5C8
:1030000005460C46164606E021782846FFF77CFF69
:10301000681C85B2641C3000A6F101018EB2F3D1A8
:1030200070BD000010B50A2001F045FF10BD9148A9
:10303000806940F010008F4988618F4800684FF226
:103040000F0188438C4908600846006843F2030179
:103050000843894908600846C06840F00200C8601B
:103060000846C06840F00800C860704710B5824844
:10307000006820F47040804908600846006840F409
:103080004050086001207D4908607D49C1F88001F9
:10309000FFF7C8FF002079490860FFF7C3FF002051
:1030A0007749C1F8800110BD10B57348006820F45D
:1030B0007040714908600846006840F4405008605C
:1030C00000206E490C3908606D49C1F88C01FFF78A
:1030D000A9FF012069490C390860FFF7A3FF01200F
:1030E0006749C1F88C0110BD10B500246248006822
:1030F00020F47040604908600846006840F40040D1
:10310000086001205D49086001F0D5FE01205C499E
:10311000C1F8800101F0CFFE07E0601CC4B2FA2CB8
:1031200003DDFFF7C1FF012010BD5448803800685F
:103130000028F2D151490C39086000BFF4E710B5FE
:1031400000204E490C3908604B48006820F470405C
:10315000494908600846006840F440500860002073
:103160004749C1F88C01FFF75DFF012043490C3945
:103170000860FFF757FF00204149C1F8800110BDEA
:1031800010B500203D490C3908603B48006820F428
:103190007040394908600846006840F440500860B3
:1031A00001203749C1F88C01FFF73CFF012033496A
:1031B0000C390860FFF736FF00203149C1F8800163
:1031C00010BD70B504462C48006820F470402A49B0
:1031D00008600846006840F4405008600020274915
:1031E0000C390860002512E0E009244908606006F7
:1031F000040E01202249C1F88001FFF713FF0020CF
:103200001E490C390860FFF70DFF681CC5B2082D78
:10321000EADB70BD70B5054600241748006820F44D
:103220007040154908600846006840F40040086096
:10323000002614E0002011490C3908601E2001F01E
:103240003AFE01200E49C1F880016006040E0B48C9
:103250008038006808B1601CC4B2701CC6B2082E69
:10326000E8DB15B9FFF78CFF01E0FFF768FF2046A8
:1032700070BD000000100240001001408C0122428D
:10328000000022422DE9F04104460E4617464FF059
:103290000008FFF7EBFE2820FFF793FFFFF724FF5E
:1032A0002012FFF78EFFFFF71FFFE0B2FFF789FF45
:1032B000FFF71AFF00250BE0705DFFF782FFFFF7B5
:1032C00013FF8046B8F1000F00D003E0681CC5B2C0
:1032D000BD42F1DB00BFFFF7E7FE4046BDE8F081ED
:1032E00038B50546002400208DF800008DF8015007
:1032F00000BF09E09DF80000CA49095D0844C0B25A
:103300008DF80000601CC4B2B82CF3D39DF8000007
:10331000C043401CC0B28DF80000B822C14948F239
:103320004700FFF7AFFF0222694648F2FF00FFF7B0
:10333000A9FF002038BD2DE9F04105460F4616468D
:10334000FFF794FE2820FFF73CFFFFF7CDFE281281
:10335000FFF737FFFFF7C8FEE8B2FFF732FFFFF7CE
:10336000C3FEFFF783FE2920FFF72BFFFFF7BCFE0C
:1033700000240BE0711EA14201D0012100E00021D8
:103380000846FFF747FF3855601CC4B2B442F1DB72
:10339000FFF78AFEBDE8F0810EB50121102002F092
:1033A000C7FC42F20200ADF8000010208DF80300C7
:1033B00003208DF8020069469B4802F0FDF90221C6
:1033C000994802F0A6FA4FF40051974802F0A1FA8A
:1033D000FFF72DFE0020954908600A2001F08FFDBF
:1033E00001209349C1F8B4010A2001F088FD0220B0
:1033F000ADF8000028208DF8030069468A4802F0E5
:10340000DBF90221884802F086FA642001F077FD9A
:10341000042201A948F24010FFF78DFF00208DF82B
:10342000080001A983A004F053FF85A101A805F0BD
:1034300013FA40BB02208DF80400012201A948F2D2
:103440004000FFF71FFF012201A948F24700FFF7E4
:1034500072FF9DF80400602807DA9DF804107AA036
:1034600004F036FF0120FFF73BFF0A2001F047FD83
:1034700000208DF80400012201A948F24000FFF766
:1034800001FF00200EBD0120FCE731B582B0002411
:10349000002572480078401C704908700846007882
:1034A0000A2190FBF1F201FB120018B16B48007881
:1034B0000A287DDA012202A948F24E10FFF73BFFED
:1034C0009DF8080000F00F0000286BD09DF8080060
:1034D00000F00F00062865DA9DF8080000F00F01E3
:1034E000FF208840C0B200909DF80000C043C0B2E9
:1034F00040F0C0005A4981F82000002444E05848B8
:1035000090F820000121A140084020B3554931F82E
:103510001400042201A9FFF70EFF514890F8300073
:1035200000F00100C0B19DF804009DF8051000EB0B
:10353000012081B24A48163020F814109DF8060088
:103540009DF8071000EB0120C0F5487081B2444897
:103550000C3020F8141015E09DF804009DF80510BB
:1035600000EB012081B23E480C3020F814109DF889
:1035700006009DF8071000EB012081B23848163094
:1035800020F81410601CC4B2052CB8DB01253448A7
:10359000808920B93248C08A08B9002002900020F2
:1035A0002E4908709DF8080000F0800000B100E08E
:1035B0000DE09DF8080000F00F00062807DA002053
:1035C00000900122694648F24E10FFF75BFE9DF81D
:1035D000080000F08F0080281AD1214890F82000C0
:1035E00000F0800040B11E4890F8200020F08000DC
:1035F0001B4981F820000BE04FF6FF7018498881C5
:10360000C882084690F8200000F0E00081F8200011
:1036100012480078F02802DD0A2010490870284678
:103620003EBD00001814020800100140B4012242FF
:10363000000022424354502049443A25730D0A00A9
:10364000393134370000000044656661756C7420C0
:103650005665723A25640D0A00000000260000201D
:1036600028000020D01402082DE9F04104460E463F
:1036700017464FF00008FFF7F9FCB220FFF7A1FD55
:10368000FFF732FD2012FFF79CFDFFF72DFDE0B2A2
:10369000FFF797FDFFF728FD00250BE0705DFFF7B2
:1036A00090FDFFF721FD8046B8F1000F00D003E048
:1036B000681CC5B2BD42F1DB00BFFFF7F5FC404618
:1036C000BDE8F0812DE9F04105460F461646FFF7AB
:1036D000CDFCB220FFF775FDFFF706FD2812FFF7BE
:1036E00070FDFFF701FDE8B2FFF76BFDFFF7FCFC93
:1036F000FFF7BCFCB320FFF764FDFFF7F5FC0024E7
:103700000BE0711EA14201D0012100E0002108461A
:10371000FFF780FD3855601CC4B2B442F1DBFFF7FF
:10372000C3FCBDE8F08138B50446002000900CB120
:1037300080200090012269464FF45060FFF794FF0B
:1037400038BD1CB5002001900121102002F0F0FAD4
:103750000220ADF8000048208DF8030003208DF80A
:10376000020069468D4802F027F802218B4802F0DA
:10377000D0F84FF40050ADF8000010208DF8030091
:103780006946864802F018F84FF40051834802F069
:10379000C0F8FFF74CFC002081490860642001F06C
:1037A000AEFB01207F49C1F8B401642001F0A7FB02
:1037B0000120FFF7B8FF012201A94FF45060FFF785
:1037C00081FF9DF8041078A004F082FD9DF80400AC
:1037D00000F0800008B100201CBD0120FCE72DE9AD
:1037E000F14F82B04FF0000AD34672480078401C77
:1037F00070490870084600780A2190FBF1F201FB3D
:10380000120018B16B4800780A287DDA012202A95B
:103810000020FFF757FF9DF8080000F01F00002868
:1038200072D09DF8080000F01F0040F0C00062490F
:1038300081F820004FF0000A76E05F4890F8200001
:10384000012101FA0AF10840002869D05B4931F8EA
:103850001A00042201A9FFF735FF574890F83000FD
:1038600000F0010078B39DF807109DF8062001EBE9
:1038700002201BF032FB0646514A524B1BF094FBD0
:1038800004461BF0FDFA81B24B48163020F81A109E
:103890009DF805109DF8042001EB02201BF01DFB94
:1038A0000646494A494B1BF07FFB80460022484BA5
:1038B0001BF0AEFC04461BF0E3FA81B23E480C302C
:1038C00020F81A102CE0FFE79DF807109DF806205D
:1038D00001EB02201BF001FB0646394A394B1BF075
:1038E00063FB04461BF0CCFA81B233480C3020F85D
:1038F0001A109DF805109DF8042001EB02201BF022
:10390000ECFA0646304A00E01EE0304B1BF04CFB60
:1039100004461BF0B5FA81B22748163020F81A1079
:103920000AF1010000F0FF0ABAF1050F85DB4FF044
:10393000010B2148808920B91F48C08A08B900209E
:10394000029000201B4908709DF8080000F01F003D
:10395000D0B9194890F8200000F0800040B1164816
:1039600090F8200020F08000134981F820000BE03F
:103970004FF6FF7010498881C882084690F82000F1
:1039800000F0E00081F820000A480078F02802DD0D
:103990000A20084908705846BDE8FE8F0010014013
:1039A000B4012242000022424354502049443A25A7
:1039B000780D0A002700002028000020DA140208F1
:1039C0007B14AE47E17AD43FD881734694F6D23F58
:1039D00000008940002100BF15E000F080021AB10C
:1039E0000122FE4B1A6002E00022FC4B1A604206E4
:1039F000100E0022F94B0C3B1A600122F84BC3F861
:103A000080214A1CD1B20829E7DB704770B5064611
:103A1000002500240020F1490C390860F049C1F864
:103A20008C01EE49283108603046FFF7D3FF0620AD
:103A300001F041FA0020EA49C1F88001012001F0BB
:103A40003AFA0120E5490C3908600020E449C1F840
:103A5000800100BF13E04FF6FF7000EA440400202D
:103A6000DE490C3908600120DD49C1F88001DB48DE
:103A70008438006808B1601C84B2681CC5B2102D7F
:103A8000E9DB24110120D54928310860204670BDAA
:103A90002DE9FE4380460027002406E04046FFF75C
:103AA000B5FF2DF81400601C84B2052CF6DB002451
:103AB00016E0601C85B20FE03DF814003DF81510CB
:103AC000884207DD3DF814603DF815002DF814001C
:103AD0002DF81560681C85B2052DEDDB601C84B2E5
:103AE000042CE6DB0027012405E03DF814003844EF
:103AF00087B2601C84B2042CF7DB032097FBF0F044
:103B000086B23046BDE8FE832DE9F04104460D46FD
:103B1000B4480078FFF7BCFF0646B3480078FFF7CB
:103B2000B7FF074626802F800120BDE8F0817FB5D2
:103B300004460D4602A903A8FFF7E6FF064616B99C
:103B4000002004B070BD694601A8FFF7DDFF0646FE
:103B50000EB90020F5E7BDF80400BDF80C1088424E
:103B600006DCBDF80C10BDF80400323081420CDBDD
:103B7000BDF80C00BDF80410884236DCBDF8041016
:103B8000BDF80C00323081422FDABDF80000BDF8DC
:103B90000810884206DCBDF80810BDF8000032307D
:103BA00081420CDBBDF80800BDF8001088421CDC27
:103BB000BDF80010BDF808003230814215DABDF8BA
:103BC0000C10BDF80420881800EBD071C1F34F0130
:103BD0002180BDF80810BDF80020881800EBD071D6
:103BE000C1F34F0129800120ABE70020A9E770B5A0
:103BF00004460D4616467D48068004F10D018AB242
:103C0000193988B22B462946FEF7DCFD05F10D0077
:103C100083B2193881B222462046FEF7D3FD6A1CD2
:103C200091B2621C90B2FDF7D5FB6A1C91B2621E84
:103C300090B2FDF7CFFB6A1E91B2621C90B2FDF705
:103C4000C9FB6A1E91B2621E90B2FDF7C3FB062249
:103C500029462046FEF734FE70BD70B504460D4679
:103C600016466248068029462046FDF7B3FB611CD4
:103C700088B22946FDF7AEFB681C81B22046FDF7ED
:103C8000A9FB6A1C91B2621C90B2FDF7A3FB70BD48
:103C90002DE9F0410446514888380068002856D183
:103CA0002CB15349A1F10A00FFF741FF3DE0504913
:103CB000A1F10A00FFF73BFFB8B34D491639B1F93E
:103CC0002C001BF04DFE07464949163988891BF028
:103CD0005FFE804646481638416A40461BF06CFE3F
:103CE000064639461BF09CFC05461BF019FE404970
:103CF00016398881B1F92E001BF032FE07463C4987
:103D00001639C88A1BF044FE804639481638816A45
:103D100040461BF051FE064639461BF081FC054625
:103D20001BF0FEFD32491639C8823148163890F82A
:103D3000200000F0800038BBC0202D49163981F8E2
:103D40002000084681898182C18AC1831CE02848FD
:103D5000163890F8200000F0800050B12448163842
:103D600090F8200020F080002149163981F82000C9
:103D70000AE000211E4816388182C1834FF6FF7089
:103D80001B4916398881C8821948163890F82000D6
:103D900000F08000BDE8F08170B515491639486A19
:103DA00014491BF009FE05461BF09EFD0446042243
:103DB00021462820FFF7D0F80D491639886A0D49A9
:103DC0001BF0FAFD05461BF08FFD04460422214638
:103DD0002C20FFF7C1F8064816380DE08C0122426E
:103DE000000022425C0000205D0000202200002034
:103DF0003E00002020BCBE4CB0F92C100222302026
:103E0000FFF7AAF8F948B0F92E1002223220FFF786
:103E1000A3F8F64890F830103420FFF775F80A241C
:103E200021463520FFF770F870BD70B53520FFF7DB
:103E30003FF804460A2C42D104212820FFF7A1F8BC
:103E4000054628461BF08CFD0646E9491BF056FC4A
:103E5000E649486204212C20FFF793F805462846DE
:103E60001BF07EFD0646E2491BF048FCDF498862F4
:103E700002213020FFF785F800B2DC498885022155
:103E80003220FFF77EF800B2D849C8853420FFF70A
:103E90000FF8D64981F83000084690F8300030B16C
:103EA0009020D4490870D020D349087005E0D02074
:103EB000D04908709020D0490870012070BD0020C2
:103EC000FCE72DE9FC5F04460D4617461E46DDE97A
:103ED0000EABDDE90C894FF47840C8490880C8A0D2
:103EE0001021CDE90010C74843880288A02128206E
:103EF000FEF76EFEC4A01021CDE90010C148438832
:103F00000288A0217820FEF763FEC0A01021CDE931
:103F10000010BC4843880288B4212820FEF758FED0
:103F2000BBA01021CDE90010B64843880288B42117
:103F30007820FEF74DFEB7A01021CDE90010B14862
:103F400043880288C8212820FEF742FEB2A0102133
:103F5000CDE90010AB4843880288C8217820FEF7DD
:103F600037FEAEA01021CDE90010A6484388028894
:103F7000DC212820FEF72CFEA9A01021CDE900109D
:103F8000A04843880288DC217820FEF721FEA5A006
:103F90001021CDE900109B4843880288F021282099
:103FA000FEF716FE102004232246A0210090402098
:103FB000FEF765FD102004232A46A02100909020E2
:103FC000FEF75DFD102004233A46B4210090402006
:103FD000FEF755FD102004233246B42100909020B6
:103FE000FEF74DFD102004234246C82100904020DA
:103FF000FEF745FD102004234A46C821009090207A
:10400000FEF73DFD102004235246DC2100904020A5
:10401000FEF735FD102004235A46DC210090902045
:10402000FEF72DFD102000907648018803236020C4
:10403000109AFEF724FDBDE8FC9F2DE9F04F8BB0F0
:104040000024002006904FF6FF70FDF7EFFE1F20C2
:104050006A4908807548006810216423A022CDE9D0
:10406000001028210846FEF7B3FD4FF478421421D2
:104070000846FFF7BCFD00205C4981F8200048623B
:1040800048E200BF5948416801208847574890F8E6
:10409000200000F0C00040287ED100200690534848
:1040A00090F8200020F04000504981F82000084698
:1040B000808907A921F824004C48C08A01EB8401BB
:1040C0004880601CC4B2012C06D0022C14D0032CF2
:1040D00025D0042C0FD138E04FF6FF72142108468A
:1040E000FFF785FD47490988143988B24FF47842B3
:1040F0001421FFF77CFDFDE142490988143988B29B
:104100004FF6FF721421FFF772FD3E4840881438C5
:1041100081B24FF478421420FFF769FDEAE1394893
:104120004088143881B24FF6FF721420FFF75FFD0C
:10413000344A5288143A91B2324A1288143A90B2F0
:104140004FF47842FFF753FDD4E10024F5E03849FD
:1041500011F8241007AA32F82110354A02EB840224
:10416000527807AB33F82220881A002801DB014679
:1041700000E041420D462E4911F8241007AA02EB37
:10418000810149882A4A02EB8402527807AB03EB8B
:1041900082025288881A00E0ADE1002801DB014666
:1041A00000E041420E466D437643A8191AF0ACFE7A
:1041B000CDE902011AF042FDCDE904011AF060FEDA
:1041C0001FFA80F81A4901EB8401897807AA32F8AE
:1041D0002110174A02EB8402D27807AB33F8222071
:1041E000881A002826DB014625E000002800002070
:1041F00020BCBE4C5C0000205D000020220000209E
:1042000078313A00D40B002079313A0078323A0004
:1042100079323A0078333A0079333A0078343A0008
:1042200079343A006661632069733A0060000020C7
:10423000E414020841420D46F64901EB84018978F5
:1042400007AA02EB81014988F24A02EB8402D27884
:1042500007AB03EB82025288881A002801DB014673
:1042600000E041420E466D437643A8191AF04CFE19
:10427000CDE902011AF0E2FCCDE904011AF000FEDA
:104280001FFA80F948461BF083FB074640461BF0A7
:104290007FFB834639461BF031FA824650461BF0BD
:1042A00093F94FF06632DC4BCDE904011AF040FE81
:1042B0000FD350461BF088F9D84AD94BCDE90401F9
:1042C0001AF070FF05D3B8F1000F02D0B9F1000F5A
:1042D00031D10024D34A5288143A91B2D14A12887B
:1042E000143A90B24FF6FF72FFF781FC4FF4784218
:1042F00014210846FFF77BFCCB4950461BF05CFBC2
:1043000083461BF00DFB87B2BDF82A10BDF82800CC
:10431000BDF8262002AB83C30192BDF824000090B3
:10432000BDF82230BDF82020BDF81E10BDF81C00DD
:10433000FFF7C7FDA6E6601CC4B2032CFFF607AF6B
:10434000BDF82010BDF81C20881A1BF009FB074699
:10435000B4490988A1F128001BF002FB83463946C5
:104360001BF0CCF9B1494862BDF82010BDF81C2003
:1043700088181BF0F5FA0390AC48416A03981BF0CB
:104380001BFBA849059008881BF002FB04900599C7
:104390001BF0E8FB83464FF080411BF0AFF9074666
:1043A0001BF0A2FA00B2A1498885BDF82610BDF81D
:1043B0001E20881A1BF0D4FA07469A494988A1F1B1
:1043C00028001BF0CDFA834639461BF097F9974930
:1043D0008862BDF82610BDF81E2088181BF0C0FAB0
:1043E00003909248816A03981BF0E6FA83468D4950
:1043F00048881BF0CDFA594604901BF0B3FB4FF0F0
:10440000804105901BF07AF907461BF06DFA00B267
:104410008649C885486A1BF067FAB0F1000B01DBDA
:10442000584601E0CBF1000002280ADC7F49886A87
:104430001BF05AFA071E01DB384600E078420228DA
:1044400039DD0024774A5288143A91B2754A1288AD
:10445000143A90B24FF6FF72FFF7C9FB4FF478425F
:1044600014210846FFF7C3FB71A01021CDE900100D
:104470006C48438802881A212820FEF7A9FB6B4864
:1044800090F8300008B9012000E00020674981F869
:104490003000084690F8300030B19020694908702B
:1044A000D0206949087005E0D02066490870902046
:1044B000654908702EE01F20644908804FF6FF70A0
:1044C000FDF7B4FC62A01021CDE9001055484388E7
:1044D00002886E212320FEF77BFB4FF47A7000F0F8
:1044E0000EFDFFF759FC4FF6FF70FDF79FFC0BB078
:1044F000BDE8F08F00BF0A2000F001FD0698401CC7
:1045000080B206900698B0F57A7F02DDFFF78DFC49
:1045100001E000BFB5E500BF00BFE8E708B54148CE
:10452000808845F21051884220D1FEF735FF18B936
:104530004D483E49486004E0FFF703F94B483B49CA
:1045400048603A4890F8300040F08000374981F8E0
:104550003000084690F830003249897901F00101B5
:104560000843324981F83000002008BD2D4880887A
:1045700041F66311884218D100F051F93C482B49AB
:104580004860084690F8300040F0800081F8300024
:10459000084690F830002349897901F00101084369
:1045A000224981F830000020DFE70121112001F0CD
:1045B000BFFB42F20900ADF8000010208DF80300A7
:1045C00003208DF8020069462A4801F0F5F806201C
:1045D000ADF8000048208DF803006946254801F039
:1045E000EBF812491631A1F10A00FFF78DFAFEF738
:1045F0005BFCFFF71AFC08B10020B6E74FF6FF702E
:10460000FDF714FCFFF719FDFFF7C6FBFFF70DFCE4
:104610000120AAE7E41402086666EE3FCDCCCCCCBC
:10462000CCCCF03FD40B00200000C8422800002072
:104630005450204E65656420726561646A757374B8
:10464000210000005C0000205D000020220000200E
:10465000546F7563682053637265656E2041646AA8
:10466000757374204F4B21008B340008DF3700082E
:10467000F5480008001001407FB504460D460121B1
:10468000022001F062FBADF804500020ADF80600F6
:10469000ADF80840ADF80A0001A9334801F080FCEC
:1046A00001221146304801F0F2FF1D208DF8000074
:1046B00000208DF8010003208DF8020001208DF804
:1046C0000300684600F0AFFF0121274801F0C4FF56
:1046D0007FBD10B50121244802F087FA20B123489C
:1046E0000068401C2149086001211F4802F08EFA31
:1046F00010BD7FB504460D460121102001F025FBB9
:10470000ADF804500020ADF80600ADF80840ADF853
:104710000A0001A9164801F043FC01224121144876
:1047200001F0B5FF36208DF8000001208DF8010062
:1047300003208DF8020001208DF80300684600F088
:1047400072FF01210A4801F087FF7FBD10B50121EA
:10475000074802F04AFA08B109F0E0F801210448DC
:1047600002F054FA10BD000000040040B000002028
:10477000001000402DE9F04105460E4617464FF067
:104780000008FEF773FC7020FEF71BFDFEF7ACFC83
:10479000E8B2FEF716FDFEF7A7FC00240BE0305D43
:1047A000FEF70FFDFEF7A0FC8046B8F1000F00D029
:1047B00003E0601CC4B2BC42F1DB00BFFEF774FC36
:1047C0004046BDE8F0812DE9F04106460F4615460A
:1047D000FEF74CFC7020FEF7F4FCFEF785FCF0B20F
:1047E000FEF7EFFCFEF780FCFEF740FC7120FEF7C1
:1047F000E8FCFEF779FC00240BE0691EA14201D021
:10480000012100E000210846FEF704FD3855601C38
:10481000C4B2AC42F1DBFEF747FCBDE8F0811CB549
:104820000121102001F084FA4FF40050ADF800008F
:1048300010208DF8030003208DF80200694691488E
:1048400000F0BAFF4FF400518E4801F062F80220E8
:10485000ADF8000048208DF803006946894800F053
:10486000ABFF0221874801F054F8FEF7E0FB00207F
:1048700085490860142000F042FB01208349C1F8FB
:10488000B401322000F03BFB00208DF8040001222F
:1048900001A9FFF76FFF012201A9A420FFF76AFF1A
:1048A00016208DF80400012201A98020FFF762FF85
:1048B0000C208DF80400012201A98820FFF75AFF7F
:1048C000022201A9A120FFF77EFF9DF804003028F5
:1048D0000ED19DF8050003280AD19DF805009DF82A
:1048E000042000EB02216AA003F0F2FC00201CBDB2
:1048F0000120FCE771B581B00024002667480078EC
:10490000401C66490870084600780A2190FBF1F2C5
:1049100001FB120018B1614800780A2867DA012209
:1049200001A90220FFF74FFF9DF8040000F00F00DF
:1049300000287ED09DF8040000F00F00062878DAE9
:104940009DF8040000F00F01FF208840C5B2E84345
:10495000C0B240F0C000524981F8200000245AE063
:104960004F4890F820000121A1400840F0B34D4984
:1049700031F8140004226946FFF725FF484890F8F3
:10498000300000F00100C0B19DF801009DF800105A
:1049900001F00F0100EB01204149163121F814000C
:1049A0009DF803009DF8021001F00F0100EB0121BA
:1049B0003B480C3020F814101DE09DF801009DF8D4
:1049C000001001F00F0100EB0120C0F5F07081B282
:1049D00033480C3020F814109DF803009DF80210A5
:1049E00001F00F0100EB01212D4801E011E020E072
:1049F000163020F814109DF8000000F0F000802818
:104A000007D000212648163020F814100A3820F864
:104A10001410601CC4B2052CA2DB0126204880893A
:104A200020B91F48C08A08B90020019000201B4906
:104A300008709DF8040000F01F00D0B9184890F8E5
:104A4000200000F0800040B1154890F8200020F0D0
:104A50008000134981F820000BE04FF6FF701049E9
:104A60008881C882084690F8200000F0E00081F8B4
:104A700020000A480078F02802DD0A200749087063
:104A800030467CBD00100140B401224200002242A9
:104A90004354502049443A25780D0A006400002010
:104AA00028000020F0140208C14A926942F4006212
:104AB000BF4B9A61BF4A126822F00F02BD4B1A60C9
:104AC0001A46126842F00B021A60BB4A1080121F8D
:104AD0001180B94A143A128842F07002B64B143B66
:104AE0001A801A46128842F008021A80B24A0C3A1A
:104AF000128842F00102B04B0C3B1A80AE4A1832C9
:104B0000128842F40042AC4B18331A808022AA4B20
:104B10002C3B1A801A46128842F001021A800022A9
:104B2000A54B08331A807047A14A926942F400628B
:104B30009F4B9A619F4A126822F00F029D4B1A60A8
:104B40001A46126842F00B021A609B4A1080121F2C
:104B50001180994A143A128842F06002964B143B35
:104B60001A801A46128842F008021A80924A0C3AB9
:104B7000128842F00102904B0C3B1A808E4A183288
:104B8000128842F400428C4B18331A8080228A4BE0
:104B90002C3B1A801A46128842F001021A80002229
:104BA000854B08331A807047814AD26942F001026E
:104BB0007F4BDA617F4A121F126822F470427D4BEC
:104BC0001B1F1A601A46126842F430421A60DA0457
:104BD00090851185128B42F07002DB041A831A460D
:104BE000128B42F008021A831A46128C42F001021C
:104BF0001A8480221A80D205128842F001021A809B
:104C000000229A86704730B589B005460C460121CE
:104C1000C80201F08DF80121042001F089F84FF459
:104C20008070ADF8200018208DF8230003208DF847
:104C3000220008A95F48001F00F0BEFDADF8185023
:104C4000ADF814400020ADF81A00ADF8160005A923
:104C500059482C3801F0A4F97020ADF80400012067
:104C6000ADF806000020ADF80A00ADF80C0001A96F
:104C700051482C3801F0D1F901214F482C3801F06E
:104C8000F7FC08214C482C3801F016FE01214A4857
:104C90002C3801F0E1FD012147482C3801F0DCFC03
:104CA0000020464908800846018843482C3801F016
:104CB0006BFF09B030BD10B50446414890FBF4F0DD
:104CC000401E404908804048048000213D4800883B
:104CD000FFF7EAFE10BD10B5002137482C3801F06F
:104CE00053FF00214FF4006001F022F80021324808
:104CF0002C3801F0BDFC00212F482C3801F0ACFC11
:104D000010BD10B501212C482C3801F0A5FC10BDB8
:104D10002C490988491C4143642291FBF2F1274A3E
:104D2000118011460988244A0832118070472249AF
:104D300008310880704720490831098801441E4A1B
:104D40000832118070471C4908310988814204DA11
:104D50000021194A0832118006E0174908310988F4
:104D6000091A154A08321180704770B501260024CF
:104D70004FF41675002140F28330FFF795FE13E0E3
:104D8000681E85B20A2000F0BAF816B1601C84B221
:104D900001E0601E84B2B4F5967F00DD002604B900
:104DA0000126054808300480002DE9D170BD0000BF
:104DB00000100240040801402C2C01406C0000202F
:104DC000401901006A0000206800002010B5044668
:104DD00021461EA003F07CFA1E48048010BD10B5C9
:104DE000044621461CA003F073FA1D48048010BD40
:104DF00010B54FF47A70FFF7F2FF642000F07FF8EF
:104E00004FF4C070FFF7E2FF10BD70B505460C46C9
:104E10002846FFF7DBFF642000F071F82046FFF71B
:104E2000DEFF70BD10B50FA003F052FA10BD10B533
:104E30000EA003F04DFA10BD10B50EA003F048FA15
:104E400010BD10B50DA003F043FA10BD61777525B4
:104E5000640D0A006E00002061776925640D0A0068
:104E6000700000206172750D0A0000006172690D0A
:104E70000A00000061776F300D0A000061776F3122
:104E80000D0A000010B56FF0040000F016FC2E486B
:104E900000682E49B0FBF1F02D49087008460078F3
:104EA00000EB4001C1EBC0104FF6FF7101EAC000FA
:104EB0002849088010BD0146254A12784A434FF020
:104EC000E0235A6100229A611A46126942F00102F7
:104ED0001A6100BF4FF0E022106900F001021AB120
:104EE00000F48032002AF5D04FF0E022126922F05F
:104EF00001024FF0E0231A6100229A6170470146D7
:104F0000144A12884A434FF0E0235A6100229A6102
:104F10001A46126942F001021A6100BF4FF0E02206
:104F2000106900F001021AB100F48032002AF5D0B5
:104F30004FF0E022126922F001024FF0E0231A61E3
:104F400000229A61704700000C00002000127A00D5
:104F50007600002078000020A64A0A400243A64BB3
:104F60001A6070470146072323EA01021202A24B8E
:104F70001B1D18684FF6FF031840A04B1843104341
:104F80009D4B1B1D186070472DE9F0410746884670
:104F900014461D462846FFF7E5FFC5F1040007FA51
:104FA00000F60F20284100EA0800064306F00F062D
:104FB000E21704EBD2625211920002F1E022D2F821
:104FC00000212146E31704EBD3635B11A4EB431CE0
:104FD000012303FA0CF31A432046E31704EBD363CF
:104FE0005B119B0003F1E023C3F800218448005DBE
:104FF00040EA061082490855BDE8F08170B50446C4
:105000000B46CE1701EB9676C6F38700CE1701EB61
:105010009676B610A1EB8606B606350E794B9B69DF
:1050200043F00103774EB3614FEAB63353F82030B3
:105030000F26AE40B343744E46F82030334653F843
:10504000203004FA05F61E436F4B43F820606F4B87
:105050001B6801268E4033436C4E336002F001031F
:1050600043B16A4B0C331B6801268E403343674EB5
:105070000C36336002F0020343B1644B08331E6800
:1050800001238B401E43614B08331E6070BD00B589
:1050900000205C490861C8601420486100208861D4
:1050A000C8610846006840F0010008600846406892
:1050B0005749084053494860084600685549084028
:1050C000504908600846006820F4802008600846BF
:1050D000406820F4FE0048600020886000214FF006
:1050E0000060FFF739FF00BD30BF704772B67047F0
:1050F00062B6704700B540480830006840F00400D0
:105100003D49083108603F48C06940F080503D4942
:10511000C8614148406840F480703F494860084693
:10512000006840F0040008600846006840F0020093
:105130000860FFF7D9FF00BD3048001D2E49091D4A
:1051400008607047014649062E4A926942F0010202
:105150002C4B9A612C4A083A526822F0E0622A4BA2
:10516000083B5A601A4652680A435A60704730B585
:1051700004460025FFF78BFF2248006840F480308A
:105180002049086000BF1F480068400C0028FAD082
:105190004FF480601B494860A01EC4B208464068B6
:1051A00040EA844048600846406840F480304860E7
:1051B0001A48006840F03200184908601148006839
:1051C00040F080700F49086000BF0E480068400E34
:1051D0000028FAD00B48406840F0020009494860B6
:1051E00005E008484068C0F3870505F00305022D77
:1051F000F7D130BD80FFFF1F08ED00E00000FA0589
:1052000000E400E0001002400800014000040140FA
:105210000000FFF8FFFFF6FE007000400020024093
:10522000014600BF704700BF7C4A128802F040026E
:10523000002AF9D0C2B2794B1B1D1A8070477749FA
:10524000098801F0200111B37449091D0988C8B209
:105250007349098801F40041C9B97149098801F409
:10526000804161B10A2803D000216D4A118020E0FD
:105270006B49098841F40041694A118019E00D2801
:1052800006D16749098841F48041654A118010E0E0
:1052900063490988C1F30D01624A50546049098885
:1052A000491C5F4A118011460988632901DD0021EC
:1052B000118070472DE9F05F05460E4630011AF067
:1052C00067FB8146584905FB01F01AF061FB8246F5
:1052D00049461AF013FA074638461AF021FB84B201
:1052E00020461AF055FB834639461AF031FC8246B7
:1052F0004FF083411AF060FB81461AF011FB8046A3
:105300004FF6FF7000EA041404EB080084B247482B
:10531000806940F00400454988610846806940F48E
:10532000804088614248006820F47F6040490860FE
:105330000846006840F40B6008603C48C06840F4D0
:1053400080403A49C8600846C06820F48040C86080
:10535000324808300480001D008842F20C010843E6
:105360002E490C3108800846008840F02000088053
:105370000223252203210846FFF706FEBDE8F09F21
:1053800010B54278772A02D18278752A44D04278C3
:10539000772A02D18278692A3ED04278722A1CD1BB
:1053A0008278752A19D1827A303A4FF47A735A4347
:1053B000C37A303B03EBC30404EB031302EB830318
:1053C000027B303A02EB820203EB4202437B1A4437
:1053D000A2F13001174B19801EE04278722A1BD1CE
:1053E0008278692A18D1827A303A4FF47A735A4314
:1053F000C37A303B03EBC30404EB031302EB8303D8
:10540000027B303A02EB820203EB4202437B1A44F6
:10541000A2F13001084B198010BD00000038014096
:1054200080000020E20B002040420F0000100240EC
:1054300004080140820000208400002009488047C1
:1054400009480047FEE7FEE7FEE7FEE7FEE7FEE766
:10545000FEE7FEE7FEE7FEE704480549054A064B7E
:1054600070470000E30500083101000820A4002077
:1054700020AE002020A6002020A6002070B5034604
:105480000C4603E014F8015B03F8015B1500A2F180
:105490000102F7D170BD30B5034601E003F8011BEE
:1054A0001400A2F10102F9D130BD00B55A494FF400
:1054B0000C62C8680021FFF7EEFF57494FF40C4219
:1054C00088680021FFF7E7FF01205349087400BDF9
:1054D0000022002106E05048C06830F8110000B1F9
:1054E000521C491CB1F58C6FF5D3642050434FF426
:1054F0008C63B0FBF3F0C0B270472DE9F041064673
:105500000024A0464448007C10B9434908688047FD
:105510001EB94FF0FF30BDE8F081C6F34F1506F01D
:105520001F0008B1681C85B240F25F441AE03A4897
:10553000C06830F8140020B908F101001FFA80F8A3
:1055400001E04FF00008A8450BD1002705E03248E4
:10555000C068E11920F811507F1CAF42F7D36001F9
:10556000D9E7641E002CE2DA4FF0FF30D3E770B5C4
:1055700005462948007C20B9274908688047012052
:1055800070BDB5F50C4F11D269092348C06830F8D9
:105590001120002406E000201F4BDB680E1923F8C1
:1055A0001600641C9442F6DB0020E9E70220E7E7DE
:1055B00070B5044604B970BD17488068251A28469E
:1055C000FFF7D5FF00BFF6E770B505462846FFF7A1
:1055D00094FF0446601C08B9002070BD0E48806826
:1055E0002044FAE770B506460C462046FFF785FFD3
:1055F0000546681C08B9002070BD0749896848192C
:1056000022463146FFF73AFF3046FFF7D1FF024806
:1056100080682844F0E700008800002031490143F9
:10562000314A1160704770B5002100230F22C47801
:1056300004B32D4C246804F4E064C4F5E064210A4A
:10564000C1F10403CA40447804FA03F18478144099
:1056500021430901254C0678A155047804F01F0563
:105660000124AC4005786D11AD0005F1E025C5F8C9
:10567000004109E0047804F01F050124AC401C4DF2
:105680000678761145F8264070BD1A4A0A40024352
:10569000154B1B1F1A60704739B1134A121D12684F
:1056A0000243114B1B1D1A6006E00F4A121D1268BF
:1056B00082430D4B1B1D1A607047042808D14FF020
:1056C000E021096941F004014FF0E022116107E097
:1056D0004FF0E021096921F004014FF0E02211614F
:1056E000704700000000FA050CED00E000E400E067
:1056F00080E100E080FFFF1F10B50446CC488442E3
:1057000008D10121042000F02DFB0021042000F02D
:1057100029FB46E0C748844208D10121082000F057
:1057200021FB0021082000F01DFB3AE0C248844222
:1057300008D10121102000F015FB0021102000F0FD
:1057400011FB2EE0BD48844208D10121202000F049
:1057500009FB0021202000F005FB22E0B84884422C
:1057600008D10121402000F0FDFA0021402000F086
:10577000F9FA16E0B348844208D10121802000F0F4
:10578000F1FA0021802000F0EDFA0AE0AE488442F0
:1057900007D10121801500F0E5FA0021A01500F0E5
:1057A000E1FA10BD10B50121084600F0DBFA002136
:1057B000012000F0D7FA10BD2DE9F0410246002586
:1057C0000026002000230024002791F803C00CF0DD
:1057D0000F0591F803C00CF0100CBCF1000F03D0C2
:1057E00091F802C04CEA050591F800C0BCF1000F29
:1057F00031D0146800202BE04FF0010C0CFA00F3BC
:10580000B1F800C00CEA03069E4220D183004FF09D
:105810000F0C0CFA03F7BC4305FA03FC4CEA040432
:1058200091F803C0BCF1280F06D14FF0010C0CFA1F
:1058300000FCC2F814C00AE091F803C0BCF1480FA4
:1058400005D14FF0010C0CFA00FCC2F810C0401C4E
:105850000828D1D31460B1F800C0BCF1FF0F34DDCB
:10586000546800202EE000F1080C4FF0010808FAFF
:105870000CF3B1F800C00CEA03069E4221D183006C
:105880004FF00F0C0CFA03F7BC4305FA03FC4CEA8B
:10589000040491F803C0BCF1280F05D100F1080CF5
:1058A00008FA0CF8C2F8148091F803C0BCF1480F54
:1058B00007D100F1080C4FF0010808FA0CF8C2F803
:1058C0001080401C0828CED35460BDE8F0814FF60C
:1058D000FF710180022181700421C170704702466E
:1058E000002093680B400BB1012000E000207047BE
:1058F0000146886880B2704702460020D3680B409A
:105900000BB1012000E0002070470146C86880B25A
:10591000704701617047416170470AB1016100E061
:1059200041617047C16070474FF480320A43826121
:105930008161826182698269704702460020434B1F
:1059400018684FF68073184040EA021008433F4B36
:10595000186070473E49C8617047F0B50A46002399
:1059600000240021002500F00046B6F1004F02D1CE
:10597000364EF16901E0354E7168C0F3034583B2DC
:1059800000F44016B6F5401F08D121F070612F4E8B
:10599000766826F070662D4F7E6012E000F4801667
:1059A000B6F5801F06D1032606FA05F4A14341F09F
:1059B000706106E0460D360103FA06F6B14341F088
:1059C000706122B1460D360103FA06F6314300F04C
:1059D0000046B6F1004F02D11C4EF16101E01B4EB2
:1059E0007160F0BD30B500228B071C0F0F2303FA46
:1059F00004F2164B08338C1053F824309343134CA5
:105A000008348D1044F8253023468C1053F8243088
:105A10008C07240F00FA04F423430C4C08348D1037
:105A200044F8253030BD0A49DC3108607047000079
:105A300000080140000C014000100140001401402A
:105A400000180140001C01400020014000000140FE
:105A500000002042DF48006840F00100DD49086096
:105A600008464068DC490840DA4948600846006852
:105A7000DA490840D74908600846006820F48020C9
:105A800008600846406820F4FE0048604FF41F009C
:105A900088607047CF49096821F48031CD4A116090
:105AA0001146096821F480211160B0F5803F03D0D0
:105AB000B0F5802F0ED106E0C649096841F4803167
:105AC000C44A116007E0C349096841F4A021C14AF2
:105AD000116000E000BF00BF704710B50146002212
