:020000040800F2
:1000000000AE0020ED500008190300081B03000893
:100010001F03000823030008270300080000000056
:100020000000000000000000000000002B0300089A
:100030002D030008000000002F0300083103000812
:100040000751000807510008075100080751000830
:100050000751000807510008075100080751000820
:100060000751000807510008075100080751000810
:100070000751000807510008075100080751000800
:1000800007510008075100080751000807510008F0
:1000900007510008075100080751000807510008E0
:1000A00007510008075100080751000807510008D0
:1000B0000751000853450008075100080751000880
:1000C00007510008075100080751000807510008B0
:1000D00007510008934F0008075100080751000816
:1000E0000751000807510008075100080751000890
:1000F0000751000807510008075100080751000880
:10010000075100080751000807510008075100086F
:100110000751000807510008CD45000807510008A5
:10012000075100080751000807510008075100084F
:1001300000F002F800F069F80AA090E8000C824490
:100140008344AAF10107DA4501D100F05EF8AFF26D
:10015000090EBAE80F0013F0010F18BFFB1A43F0A5
:1001600001031847704902009049020010F8013B52
:100170000A4413F0030408BF10F8014B1D1108BF17
:1001800010F8015B641E05D010F8016B641E01F8C5
:10019000016BF9D1002D15D010F8014B03F00C03C1
:1001A0000C2BA1EB04040ABF10F8013BA4EB831451
:1001B000A4EB032405F1010314F8016B5B1E01F8A5
:1001C000016BF9D5914238BF10F8013BD1D370478C
:1001D0000023002400250026103A28BF78C1FBD850
:1001E000520728BF30C148BF0B607047642907F031
:1001F0003B83782907F07483732907F0E985002091
:1002000070471FB51FBD10B510BD07F041FE114668
:10021000FFF7F7FF00F032F807F05FFE03B4FFF7D7
:10022000F2FF03BC04F0A6FE10B50AF021FA2E4836
:1002300008F03EF82D4808F0F3F82D4808F06CF966
:100240002C4808F0F9FF2C480DF0A4FA2B480EF0CA
:100250003FFC2B480EF0EAFF2A480FF00BF92A4822
:100260000FF0DCF929480FF0C5FA29480FF07CFBA4
:1002700028480FF0B3FD07F011FA10BD04F0ACFCF4
:100280004FF4A06005F022F84FF41651482004F016
:10029000BBFE00F03FF901F046FD00F063F904F009
:1002A0007DF8002140F2833004F07EFB472140F2CC
:1002B000E73004F021F940F2CF2140F2E73004F0BA
:1002C00058F904F04AFF0121402005F07CFB04208E
:1002D00011F046F90BF06EF8FFF7A6FF02E064207C
:1002E0000AF06CFBFBE7000079800008318300080E
:1002F0006D840008DD8D000855D7000869E6000808
:1003000049ED0008F1F3000865F5000861F6000802
:100310003DF8000875FD0008704700BFFEE700BF0C
:10032000FEE700BFFEE700BFFEE77047704770477B
:10033000704700000CB50020019000906C480068E8
:1003400040F480306A49086000BF6948006800F4E2
:10035000003000900198401C0190009818B9019855
:10036000B0F5A06FF1D16248006800F4003010B120
:100370000120009001E0002000900098012843D166
:100380005C48006840F010005A4908600846006860
:1003900020F0030008600846006840F00200086092
:1003A00053484068524948600846406848600846DB
:1003B000406840F4806048600846406820F47C1043
:1003C00048600846406840F4E81048600846006805
:1003D00040F08070086000BF4548006800F0007081
:1003E0000028F9D04248406820F0030040494860A6
:1003F0000846406840F00200486000BF3C48406842
:1004000000F00C000828F9D10CBD10B5FFF792FFE1
:1004100010BD10B53648006840F00100344908604E
:100420000846406834490840314948600846006839
:10043000324908402E4908600846006820F48020B0
:1004400008600846406820F4FE0048604FF41F0032
:100450008860FFF7DAFF4FF000602949086010BD9F
:1004600010B5002100200022214B5B6803F00C0135
:1004700021B1042906D0082928D107E0214B224CBC
:10048000236027E01F4B204C236023E0184B5B6860
:1004900003F47010164B5B6803F48032022303EB05
:1004A000904022B9194B4343174C23600DE0104B89
:1004B0005B6803F4003323B1144B4343124C2360B5
:1004C00003E0104B4343104C236003E00D4B0E4CF4
:1004D000236000BF00BF064B5B68C3F303130C4CE3
:1004E000E15C094B1B68CB40074C236010BD00004A
:1004F00000100240002002400000FFF8FFFFF6FE5F
:1005000008ED00E000127A000000002000093D0024
:100510000400002008B50121242005F061FA4FF401
:100520008070ADF8000010208DF8030003208DF8D6
:1005300002006946094804F097FF4FF480710748AC
:1005400005F03FF80420ADF800006946044804F0C7
:100550008BFF0421024805F034F808BD0008014073
:100560000014014008B50121442005F039FA1C208F
:10057000ADF8000048208DF803006946354804F0C6
:1005800073FF0120ADF8000028208DF803006946B4
:10059000314804F069FF08BD10B5044614B10120CC
:1005A0002E4908702D480078002837D0102129489E
:1005B00004F0EDFF78B10821264804F0E8FF50B1BF
:1005C0000421244804F0E3FF28B10121224804F06B
:1005D000DEFF012822D10A2004F03BFB00201F4946
:1005E000087010211B4804F0D2FF08B9012010BD8B
:1005F0000821184804F0CBFF08B90220F7E70421CE
:10060000144804F0C4FF08B90320F0E701211248A0
:1006100004F0BDFF01281BD10420E8E710210D489C
:1006200004F0B5FF012813D108210A4804F0AFFFF8
:1006300001280DD10421074804F0A9FF012807D1A2
:100640000121054804F0A3FF10B9012003490870F7
:100650000020CCE7001801400008014014000020F1
:100660004FF48071FD4A516149005161FC490860B5
:100670008021516111618900116170474FF48071CF
:10068000F64A116149005161F549086080215161C4
:10069000116189001161704710B54FF08830F04941
:1006A0000C390860091D08600020ED4908608815B4
:1006B000EA4908614000486140204861E948808873
:1006C00048F68911884202D1022004F09EFAE448DB
:1006D000001F006884B24020E0490861C000086142
:1006E0004FF03330DE490C390860091D08604FF6C1
:1006F000FF70DB490860204610BD10B504460B466C
:100700002046FFF7ADFF4FF48070D44908614000E8
:100710004861D34803608020486108618000086117
:1007200010BD10B504462046FFF79AFFFFF7B4FF4F
:1007300010BD00B5CB490889FFF792FF00BD4FF40B
:100740008071C64A116149005161C5490860802124
:100750005161116189001161704730B5014601F0A6
:100760001F04C1F34513CA0AE50205EB43151544FE
:10077000A8B230BD00BF0100A0F10102D0B2FAD191
:10078000704730B504460D46B648808849F241317D
:10079000884205D0B348808845F21031884240D164
:1007A000B0494889FFF75CFF4FF48070AB4908619E
:1007B000400048612012AA4908608020A74948618A
:1007C0000861800008614010086140004861E0B2A3
:1007D000A34908608020A149486108618000086140
:1007E000A0498889FFF73CFF4FF480709B4908615E
:1007F0004000486128129A49086080209749486162
:100800000861800008614010086140004861E8B25A
:10081000934908608020914948610861800008611F
:100820008CE19048808846F60401884249D18D4881
:100830008079012804D18B480088401E001B84B2B7
:1008400088494889FFF70CFF4FF48070834908619D
:100850004000486120128249086080207F49486139
:100860000861800008614010086140004861E0B202
:100870007B490860802079494861086180000861EF
:1008800078498889FFF7ECFE4FF48070734908615E
:100890004000486128127249086080206F49486111
:1008A0000861800008614010086140004861E8B2BA
:1008B0006B490860802069494861086180000861CF
:1008C0003CE16848808841F6631188427ED16548E2
:1008D000807900283FD163480088401E001B84B205
:1008E00060494889FFF7BCFE4FF480705B4908619E
:1008F0004000486100205A490860802057494861FB
:1009000008618000086140100861400048610020D3
:10091000534908608020514948610861800008619E
:10092000401008614000486120124D490860802055
:100930004A49486108618000086140100861400030
:100940004861E0B246490860802044494861086136
:100950008000086141E043494889FFF781FE4FF478
:1009600080703E4908614000486120123C4908609F
:1009700080203A49486108618000086140100861A0
:1009800040004861E0B23649086080203349486140
:1009900008618000086140100861400048613148EA
:1009A0000088401E00122E49086080202B494861B3
:1009B00008618000086140100861400048612948D2
:1009C0000078401EC0B22649086000E04CE080205C
:1009D0002249486108618000086122498889FFF73F
:1009E0003FFE4FF480701D490861400048612812A5
:1009F0001B4908608020194948610861800008612E
:100A00004010086140004861E8B215490860802044
:100A10001249486108618000086140100861400087
:100A2000486110484088401E00120D49086080202F
:100A30000A4948610861800008614010086140006F
:100A4000486108488078401EC0B20549086080208F
:100A5000024948610861800008616FE000100140B0
:100A60000C0C01404C0B0020F748808845F21051D7
:100A7000884250D1F4494889FFF7F2FD4FF4807065
:100A8000F2490861400048612012F1490860802065
:100A9000EE494861086180000861EB494989491CB9
:100AA00088B2FFF7DDFD4FF48070E849086140002F
:100AB0004861E0B2E64908608020E4494861086185
:100AC00080000861E0498889FFF7CAFD4FF4807013
:100AD000DE490861400048612812DD490860802035
:100AE000DA494861086180000861D7498989491C51
:100AF00088B2FFF7B5FD4FF48070D449086140001B
:100B00004861E8B2D24908608020D0494861086154
:100B10008000086112E0CC488079012804D1CA48DD
:100B20000088401E001B84B2C74948892146FFF750
:100B3000E4FDC54988892946FFF7DFFD30BD2DE971
:100B4000F04105460E46C0480088A84203DDBE4875
:100B50004088B04202DC0020BDE8F08131462846E2
:100B6000FFF70FFEB848808849F24131884211D022
:100B7000B548808846F6040188420BD0B248808888
:100B800045F21031884205D0AF48808841F66311A4
:100B9000884203D12E20FFF763FD0DE0AA4880882C
:100BA00045F21051884204D14FF43850FFF758FDF8
:100BB00002E02220FFF754FD4FF08830A4490C39A1
:100BC0000860091D08604FF6FF70A149086088158C
:100BD0009E49086140004861402048610220FFF7BB
:100BE000C9FD9B48001F006884B2402097490861F6
:100BF0009548808841F66311884210D14FF4007007
:100C0000924908614FF0333091490C390860091D51
:100C100008604FF6FF708E49086020469CE7402030
:100C20008A4948610220FFF7A5FD8948001F006836
:100C300084B24020854908618348808849F2413167
:100C400088420BD08048808845F21031884205D018
:100C50007D48808845F21051884213D140207B495D
:100C600048610220FFF786FD7948001F00681FFADF
:100C700080F8402075490861E7B24FF6FF7000EA3E
:100C800007270DE07048808846F60401884207D1A6
:100C900040206E49486108616D48001F006884B2B9
:100CA0004FF40070694908614FF0333068490C39DE
:100CB0000860091D08604FF6FF70654908606248CA
:100CC000808849F22531884216D05F48808844F2F6
:100CD0003551884210D05C488088091F88420BD06B
:100CE0005948808848F68911884205D0564880883E
:100CF0004BF20551884201D120462DE752488088A9
:100D000049F2413188420BD04F48808845F210317A
:100D1000884205D04C48808845F21051884207D15E
:100D2000E012C002B91240EA411040EAE82013E79D
:100D30002046FFF712FD0FE700B54348808849F2CF
:100D40004131884211D04048808846F604018842EB
:100D50000BD03D48808845F21031884205D03A4892
:100D6000808841F66311884203D12920FFF778FC7F
:100D70000FE03548808845F21051884204D14FF485
:100D80002450FFF76DFC04E040F273110720FFF7D9
:100D9000B4FC00BD00B52C48808849F2413188423E
:100DA00011D02948808846F6040188420BD0264895
:100DB000808845F21031884205D02348808841F66A
:100DC0006311884203D12820FFF74AFC0EE01E4839
:100DD000808845F21051884204D14FF42050FFF72B
:100DE0003FFC03E000210720FFF787FC00BDF0B5C2
:100DF0000546002400271448807901280BD11248A9
:100E0000808846F60401884205D00F48808841F664
:100E10006311884208D10C48807920BB0A48808839
:100E200041F6631188421ED1082D1BD2DFE805F080
:100E30000406080A12141618062513E0072511E007
:100E400004250FE005250DE04C0B002000100140AB
:100E50000C0C0140012505E0002503E0032501E01D
:100E6000022500BF00BFF848808849F2413188421E
:100E700017D0F548808846F60401884211D0F24820
:100E8000808845F2103188420BD0EF48808845F2C7
:100E90001051884205D0EC48808841F663118842A1
:100EA0007ED1082D1CD2DFE805F00406090C0F12D4
:100EB000151800BF14E044F0800411E044F0400431
:100EC0000EE044F0C0040BE044F0200408E044F0DD
:100ED000600405E044F0A00402E044F0E00400BF38
:100EE00000BFD948808845F21051884202D14FF4A2
:100EF000585700E03627D448808845F210318842A0
:100F00000DD0D148808845F21051884207D0CE4894
:100F1000808841F66311884201D044F00804CA4831
:100F2000808846F60401884201D144F0020421463B
:100F30003846FFF7E2FBC448808841F663118842D7
:100F40001DD004F0200068B1BF480088BE49498820
:100F5000884214DABC4806884088BB4908800846A5
:100F600046800CE0B8480088B7494988884206DDC9
:100F7000B54806884088B449088008464680B2488B
:100F8000808845F2105188427ED1AF494889FFF7E9
:100F900067FB4FF48070AD4908614000486100E094
:100FA00029E10020AA4908608020A8494861086119
:100FB00080000861A4494989491C88B2FFF750FBA9
:100FC0004FF48070A1490861400048610020A049A9
:100FD000086080209D4948610861800008619A4945
:100FE0004989891C88B2FFF73BFB4FF48070974911
:100FF00008614000486194480088401E00129449EE
:1010000008608020914948610861800008618E492C
:101010004989C91C88B2FFF723FB4FF480708B49C4
:1010200008614000486188480078401EC0B2884985
:101030000860802085494861086180000861824914
:101040008889FFF70DFB4FF48070804908614000EC
:10105000486100207E49086080207C494861086121
:101060008000086178498989491C88B2FFF7F8FA3D
:101070004FF4807075490861400048610020744950
:1010800008608020714900E034E048610861800018
:1010900008616D498989891C88B2FFF7E1FA4FF42C
:1010A00080706A4908614000486167484088401E76
:1010B0000012674908608020644948610861800027
:1010C000086161498989C91C88B2FFF7C9FA4FF4E0
:1010D00080705E490861400048615B488078401E2E
:1010E000C0B25B49086080205849486108618000AF
:1010F0000861A7E054494889FFF7B2FA4FF48070BD
:101100005249086140004861002051490860802030
:101110004E49486108618000086140100861400044
:10112000486100204A4908608020484948610861B8
:101130008000086140100861400048614248008812
:10114000401E001242490860802040494861086101
:101150008000086140100861400048613A4800780A
:10116000401EC0B23A490860802038494861086191
:101170008000086134498889FFF772FA4FF4807063
:1011800032490861400048610020314908608020F0
:101190002E494861086180000861401008614000E4
:1011A000486100202A490860802028494861086178
:1011B0008000086140100861400048612248408872
:1011C000401E0012224908608020204948610861C1
:1011D0008000086140100861400048611A4880782A
:1011E000401EC0B21A490860802018494861086151
:1011F0008000086126E0082D1CD2DFE805F0040716
:101200000A0D0F12151844F0300413E044F01004D6
:1012100010E044F020040DE000BF0BE044F038047F
:1012200008E044F0280405E044F0180402E044F02B
:10123000080400BF00BF032744F480542146384609
:10124000FFF75BFAF0BD00004C0B002000100140DE
:101250000C0C014030B504460D4629462046FFF7E8
:1012600090FAFFF766FA4FF48070FE49086140007B
:101270004861FD480088FD4908608020F9494861BF
:1012800008618000086130BD70B504460D46164601
:10129000F748808849F24131884205D0F448808877
:1012A00045F21031884240D1F1494889FFF7D8F919
:1012B0004FF48070EB490861400048612012EB490F
:1012C00008608020E749486108618000086140109B
:1012D000086140004861E0B2E44908608020E149CB
:1012E0004861086180000861E1498889FFF7B8F921
:1012F0004FF48070DB490861400048612812DB49E7
:1013000008608020D749486108618000086140106A
:10131000086140004861E8B2D44908608020D149A2
:1013200048610861800008613DE1D148808845F24C
:101330001051884250D1CE494889FFF791F94FF4B6
:101340008070C8490861400048612012C7490860A0
:101350008020C4494861086180000861C449498906
:10136000491C88B2FFF77CF94FF48070BD490861D1
:1013700040004861E0B2BD4908608020B949486139
:10138000086180000861BA498889FFF769F94FF45C
:101390008070B4490861400048612812B349086070
:1013A0008020B0494861086180000861B04989899E
:1013B000491C88B2FFF754F94FF48070A9490861BD
:1013C00040004861E8B2A94908608020A549486109
:1013D000086180000861E6E0A548808841F6631155
:1013E00088427DD1A248807920B9A1480088401E5A
:1013F000001B84B29E494889FFF732F94FF4807090
:10140000984908614000486120129849086080208E
:1014100094494861086180000861401008614000FB
:101420004861E0B29149086080208E4948610861B6
:1014300080000861401008614000486120128B491B
:101440000860802087494861086180000861401079
:10145000086140004861E0B2844908608020814909
:10146000486108618000086181498889FFF7F8F8C0
:101470004FF480707B4908614000486128127B4925
:101480000860802077494861086180000861401049
:10149000086140004861E8B27449086080207149E1
:1014A000486108618000086140100861400048619F
:1014B00028126E49086080206A49486108618000EE
:1014C00008614010086140004861E8B2674908605F
:1014D00080206449486108618000086163E0FFE79B
:1014E0006348808846F60401884249D16048807983
:1014F000012804D15E480088401E001B84B25C496C
:101500004889FFF7ADF84FF48070564908614000F4
:10151000486120125549086080205249486108619D
:10152000800008614010086140004861E0B24F4906
:10153000086080204B4948610861800008614C497F
:101540008889FFF78DF84FF48070464908614000A4
:101550004861281245490860802042494861086175
:10156000800008614010086140004861E8B23F49CE
:10157000086080203B49486108618000086112E0F2
:101580003B488079012804D139480088401E001B5F
:1015900084B2374948892146FFF7AFF83449888932
:1015A0002946FFF7AAF84FF480702E4948614000A1
:1015B00048612F4800892D490860802029494861E9
:1015C00008618000086140100861400048612748B8
:1015D00006608020486108618000086170BD2DE9C7
:1015E000F0410446BE20FFF73BF84FF480701D49E0
:1015F00008614000486105201C49086080201949A5
:10160000486108618000086140100861400048613D
:1016100020461AF035FF05464FF06632154B1AF09A
:101620007FFF07461AF0E8FE1049086080200D4948
:10163000486108618000086140100861400048610D
:1016400001200A490860802006494861086180003D
:1016500008614010086140004861FF2003490860AC
:10166000802009E000100140160000200C0C014011
:101670004C0B002066660440FE494861086180000A
:10168000086140100861400048610020FA49086084
:101690008020F849486108618000086140100861B5
:1016A000400048610020F44908608020F149486109
:1016B000086180000861BDE8F08110B50446002C87
:1016C00066D1EE498871F02008804FF4A070488000
:1016D0000846808849F2413188420BD0E74880882B
:1016E00046F60401884205D0E448808845F210316E
:1016F00088421AD12C20E14908812A2048812B20D8
:1017000088810846808846F60401884205D0DB4877
:10171000808845F21031884206D14FF4A070D74935
:1017200008804FF4F0704880A1E0D448808845F2EA
:101730001051884210D14FF43050D04908814FF4F5
:10174000285048814FF42C5088814FF4F070088065
:101750004FF4487048808AE0C848808841F6631199
:1017600088420DD12C20C54908812B2048812A2090
:1017700088814FF4F07008804FF44870488076E01C
:101780002220BE49088120204881212088816EE0E6
:101790000120BA4988714FF4A0700880F020488079
:1017A0000846808849F24131884205D0B348808894
:1017B00045F21031884207D12C20B04908812A20F7
:1017C00048812B2088813FE0AC48808846F60401A0
:1017D000884207D12C20A94908812B2048812A2042
:1017E000888131E0A548808845F21051884210D1A7
:1017F0004FF43050A14908814FF4285048814FF4EC
:101800002C5088814FF4487008804FF4F070488065
:101810001AE09A48808841F6631188420DD12C2045
:10182000964908812A2048812B2088814FF44870EE
:1018300008804FF4F070488006E022208F4908812C
:1018400021204881202088818C48808846F6040128
:10185000884205D08948808845F21031884206D1F7
:101860004FF4F070854908804FF4A0704880002044
:10187000FFF7BDFA10BD2DE9F04F86B004460D46C6
:101880009046994604EB0800401E86B205EB09001D
:10189000401E87B27948808849F24131884215D08C
:1018A0007648808845F2103188420FD0734880888E
:1018B00046F60401884209D07048807901287BD11E
:1018C0006E48808841F66311884275D16B4948891A
:1018D000FEF7C6FE4FF4807066490861400048611B
:1018E00020126549086080206249486108618000D3
:1018F00008614010086140004861E0B25E4908603C
:1019000080205C49486108618000086140100861DE
:1019100040004861301258490860802055494861AC
:101920000861800008614010086140004861F0B221
:101930005149086080204F49486108618000086172
:101940004E498889FEF78CFE4FF480704949086142
:101950004000486128124849086080204549486194
:101960000861800008614010086140004861E8B2E9
:101970004149086080203F49486108618000086152
:10198000401008614000486138123B4908608020DF
:1019900038494861086180000861401008614000D2
:1019A0004861F8B2344908608020324948610861D2
:1019B0008000086177E1FFE73048808841F66311D5
:1019C00088427DD12D480088A0EB0800001B84B21E
:1019D00005EB0900401E1FFA80F928494889FEF7E7
:1019E0003FFE4FF480702349086140004861201297
:1019F0002149086080201F49486108618000086112
:101A00004010086140004861E0B21B490860802036
:101A10001849486108618000086140100861400071
:101A2000486104EB0800401E001213490860802042
:101A30001049486108618000086140100861400059
:101A4000486104EB0800401EC0B20B4908608020CA
:101A50000849486108618000086108498889FEF7E3
:101A6000FFFD4FF48070034908614000486128126F
:101A7000014905E0001001400C0C01404C0B002016
:101A800008608020FE4948610861800008614010BC
:101A9000086140004861E8B2FA4908608020F849CE
:101AA0004861086180000861401008614000486199
:101AB0004FEA2920F34908608020F149486100E09D
:101AC00011E0086180000861401008614000486131
:101AD00009F0FF00EB4908608020E949486108618E
:101AE00080000861DFE0E848808845F210518842B4
:101AF0007ED1E5494889FEF7B3FD4FF48070E04997
:101B00000861400048612012DE4908608020DC49FD
:101B10004861086180000861DB494989491C88B235
:101B2000FEF79EFD4FF48070D54908614000486182
:101B3000E0B2D44908608020D14948610861800042
:101B40000861D1494989891C88B2FEF789FD4FF4A3
:101B50008070CB490861400048613012C949086073
:101B60008020C7494861086180000861C6494989E9
:101B7000C91C88B2FEF774FD4FF48070C04908613B
:101B800040004861F0B2BF4908608020BC4948610C
:101B9000086180000861BC498889FEF761FD4FF447
:101BA0008070B7490861400048612812B549086053
:101BB0008020B3494861086180000861B249898981
:101BC000491C88B2FEF74CFD4FF48070AC490861A7
:101BD00040004861E8B2AB4908608020A8494861EC
:101BE000086180000861A8498989891C88B200E0E1
:101BF00026E0FEF735FD4FF48070A14908614000F2
:101C0000486138129F49086080209D4948610861F9
:101C1000800008619C498989C91C88B2FEF720FDB3
:101C20004FF480709649086140004861F8B29549C8
:101C3000086080209249486108618000086132E0B4
:101C40009148807901280ED1AA46BB468E4800886B
:101C5000801B401E80B201908B480088001B401EF4
:101C600080B2009003E0A246B34601950097502051
:101C70000590512004905220039053200290514629
:101C80000598FEF73AFD59460498FEF736FD01998E
:101C90000398FEF732FD00990298FEF72EFD2946C3
:101CA0002046FEF76EFD06B0BDE8F08F70B5044625
:101CB000002675480588408845437348808846F665
:101CC0000401884216D170488079012812D1002081
:101CD0006D4988712A2048812B208881002108467F
:101CE000FEF74FFD0120684988712B2048812A208A
:101CF000888103E000210846FEF743FDFEF719FD49
:101D000000260DE04FF480705D4908614000486195
:101D10005C48046080204861086180000861761C8E
:101D2000AE42EFD370BD08B50121192003F058FE73
:101D30000121564803F069FC4FF4F860ADF800004B
:101D400010208DF8030003208DF8020069464C48EE
:101D500003F08AFB4FF4F861494803F032FC4FF678
:101D6000FF70ADF80000694646480C3803F07CFB74
:101D70004FF6FF7143480C3803F023FC322002F089
:101D800068FF01210020FEF7B8FC322002F061FF5D
:101D90000020FEF7C6FC3C49888008468088FF2862
:101DA0000ADB084680884FF6FF71884204D0364827
:101DB0008088B0F5134F62D1D320FEF751FCFEF7B7
:101DC0006BFCFEF769FCFEF767FC2F49888008462C
:101DD00080884FF6FF7101EA00202B498880FEF7CA
:101DE0005BFC294989880843274988800846808800
:101DF00049F24131884242D0BF20FEF731FCFEF764
:101E00004BFCFEF749FCFEF747FCFEF745FC1E497C
:101E10008880084680884FF6FF7101EA00201A4941
:101E20008880FEF739FC184989880843164988805C
:101E30000846808846F6040188427CD0D420FEF70C
:101E40000FFCFEF729FCFEF727FCFEF725FC0E49E8
:101E50008880084680884FF6FF7101EA00200A4911
:101E60008880FEF719FC084989880843064988805C
:101E70000846808845F2103188425CD008E05AE07C
:101E8000001001400C0C01404C0B002000023000FF
:101E90004FF45A40FEF7E4FBFEF7FEFB4FF45B40C5
:101EA000FEF7DEFBFEF7F8FBFE49888008468088D7
:101EB0004FF6FF7101EA0020FA4988804FF45C4038
:101EC000FEF7CEFBFEF7E8FBF64989880843F549A3
:101ED000888008468088B0F5004F02D145F2105046
:101EE0008880F048808845F21051884223D0A12094
:101EF000FEF7B6FBFEF7D0FBEA498880FEF7CCFB85
:101F0000E8498880084680884FF6FF7101EA002082
:101F1000E4498880FEF7C0FBE24989880843E1492B
:101F200088800846808845F26171884203D141F675
:101F30006310DC498880DB488188DBA005F02AFC3F
:101F4000D848808849F2413188427DD0D548808880
:101F500046F604018842F8D0D248808845F2103114
:101F60008842F2D0CF48808845F210518842ECD0A8
:101F7000CC48808849F225318842E6D0C94880881B
:101F8000C91C8842E1D0C748808849F22031884284
:101F9000DBD0C448808849F231318842D5D0C1486D
:101FA000808845F208418842CFD0BE48808841F2FF
:101FB00005518842C9D0BB4880884BF20551884200
:101FC000C3D0B84880884CF205518842BDD0B5488E
:101FD000808848F689118842B7D0B248808844F298
:101FE00031518842B1D0AF488088091D8842ACD0B9
:101FF000AC48808841F66311884225D1E220FEF783
:102000002FFB4FF48070AC490861400048611D20EF
:10201000AA4908608020A8494861086180000861D9
:1020200040100861400048610220A44908608020F7
:10203000A1494861086180000861401008614000C2
:10204000486104209D4900E053E2086080209A49DD
:102050004861086180000861642002F0D6FDE0203C
:10206000FEF7FEFA4FF48070934908614000486122
:1020700001209249086080208F49486108618000F2
:1020800008610A2002F0E5FDE020FEF7E9FA4FF4CE
:1020900080708949086140004861032087490860D1
:1020A0008020854948610861800008610C2002F0A9
:1020B000D0FD0120FEF7D4FA0A2002F0CAFDE62086
:1020C000FEF7CEFA4FF480707B490861400048610A
:1020D0002F207A4908608020774948610861800094
:1020E00008614010086140004861FF2073490860A2
:1020F00080207149486108618000086140100861D2
:1021000040004861FF206D49086080206A494861AD
:10211000086180000861B020FEF7A2FA4FF48070D9
:1021200065490861400048612020644908608020BA
:102130006149486108618000086140100861400001
:10214000486100205D49086080205B494861086162
:102150008000086140100861400048610320574931
:10216000086080205449486108618000086140107F
:1021700008614000486140F21F30504908608020EB
:102180004D494861086180000861401008614000C5
:102190004861012049490860802047494861086139
:1021A00080000861401008614000486140F2DF1083
:1021B0004249086080204049486108618000086108
:1021C000401008614000486100203C4908608020C0
:1021D00039494861086180000861B420FEF740FA7F
:1021E0004FF480703449086140004861042033494D
:1021F0000860802030494861086180000861401013
:1022000008614000486140F21F402C49086080206E
:102210002949486108618000086140100861400058
:1022200048610020254908608020234948610861F1
:102230008000086140100861400048612E201F495D
:10224000086080201C4948610861800008614010D6
:102250000861400048610020184908608020164944
:1022600048610861800008614010086140004861D1
:1022700000201249086080200F49486108618000F1
:102280000861401008614000486100200B49086067
:102290008020094948610861800008614010086198
:1022A00040000DE04C0B0020204C43442049443AB0
:1022B00025780D0A00000000001001400C0C0140C0
:1022C00048610020F74908608020F74948610861AB
:1022D00080000861B620FEF7C3F94FF48070F24920
:1022E0000861400048610220EE4908608020EE4904
:1022F0004861086180000861401008614000486141
:102300004FF40370E74908608020E749486108619D
:102310008000086140100861400048610020E149E8
:1023200008608020E0494861086180000861401031
:102330000861400048611720DA4908608020DA49C6
:1023400048610861800008614010086140004861F0
:102350001520D44908608020D34948610861800075
:10236000086140100861400048610020CD490860C4
:102370008020CD49486108618000086140100861F3
:10238000400048610020C74908608020C649486174
:10239000086180000861F020FEF762F94FF4807058
:1023A000C1490861400048610320BE49086080209F
:1023B000BD4948610861800008612920FEF750F995
:1023C000D020FEF74DF94FF48070B7490861400006
:1023D00048610020B34908608020B3494861086122
:1023E00080000861BE20FEF73BF94FF48070AE49D3
:1023F0000861400048610520AA4908608020AA4978
:10240000486108618000086140100861400048612F
:10241000FE20A44908608020A3494861086180002B
:102420000861401008614000486101209D49086032
:1024300080209D4948610861800008614010086162
:102440004000486100209749086080209649486113
:102450000861800008614010086140004861002068
:1024600090490860802090494861086180000861B7
:10247000401008614000486100208A4908608020BF
:1024800089494861086180000861B820FEF7E8F8D2
:102490004FF48070844908614000486103208149FD
:1024A0000860802080494861086180000861401010
:1024B00008614000486101207A49086080207A491B
:1024C0004861086180000861BA20FEF7C9F84FF43E
:1024D00080707549086140004861012071490860B9
:1024E0008020714948610861800008613C20FFF745
:1024F00076F80120FFF7E1F801206C4908604FF6FB
:10250000FF70FFF7D3FB08BD2DE9FC4F05460E46D3
:1025100017469846DDF82C9000200190644880888A
:1025200046F60401884229D161488079012825D1E5
:10253000AB4635465E480088C01B401E86B2474603
:102540005B480088A0EB0B00401E1FFA80F80020BB
:10255000574988712A2048812B20888143463A4672
:1025600031462846CDF80090FFF7CEFF01205049B4
:1025700088712B2048812A20888127E0781B401C05
:1025800080B2019034461FE021462846FEF7F9F854
:10259000FEF7CFF84FF0000A11E04FF48070424987
:1025A0000861400048613F48C0F8009080204861C1
:1025B0000861800008610AF101001FFA80FA0198A1
:1025C0008245EADB601C84B24445DDDDBDE8FC8F5A
:1025D0002DE9F84F07460D4690469946DDF828B09C
:1025E000A8EB0700401C1FFA80FAA9EB0500401C6D
:1025F00080B20090002420E0281981B23846FEF70E
:10260000C0F8FEF796F8002613E04FF480702649D4
:1026100008614000486104FB0A603BF81000214952
:102620000860802020494861086180000861701CB2
:1026300086B25645E9DB601C84B200988442DBDB3D
:10264000BDE8F88F2DE9FF4F84B081468A4600200F
:10265000039002900698A0EB09050798A0EB0A06E4
:10266000CDF80490CDF800A0002D01DD012705E094
:102670000DB9002702E04FF0FF376D42002E02DD5A
:102680004FF0010806E016B94FF0000802E04FF0E5
:10269000FF387642B54201DD2C4600E034464FF06B
:1026A000000B29E00C0C014000100140A80122425F
:1026B0004C0B0020009A91B2019A90B2FEF7CAFD2D
:1026C0000398284403900298304402900398A04253
:1026D00005DD0398001B039001983844019002988F
:1026E000A04205DD0298001B029000984044009033
:1026F0000BF101001FFA80FB601C8345DADD08B096
:10270000BDE8F08FF0B504460D4616461F462B4631
:10271000324629462046FFF795FF3B46224629468A
:102720002046FFF78FFF3B46324639462046FFF7EB
:1027300089FF3B46324629463046FFF783FFF0BD0E
:102740002DE9F04306460F469046002445460320F7
:10275000A0EB48093CE07A1B91B2321990B2FEF727
:1027600079FD3A1B91B2721990B2FEF773FD3A19D6
:1027700091B2721990B2FEF76DFD7A1991B23219C9
:1027800090B2FEF767FD7A1991B2321B90B2FEF754
:1027900061FD3A1991B2721B90B2FEF75BFD7A1B94
:1027A00091B2321B90B2FEF755FD3A1B91B2721BEB
:1027B00090B2FEF74FFD641CB9F1000F03DAA000E0
:1027C000801D814404E0601B80000A3081446D1E3E
:1027D000AC42C0DDBDE8F0832DE9F84F80460E46DF
:1027E00017461C46B3462046E31704EB5373DB1031
:1027F00021464FEAE47C04EB5C7C4FEAEC0CA4EB52
:10280000CC0CBCF1000F02D04FF0010C01E04FF0F6
:10281000000C6344224604EBD27C4FEA6C0C03FBB1
:102820000CF3DBB20093A7F12000C7B2002556E0FD
:102830000C2C07D107EB47009F4901EB800010F8F3
:10284000059013E0102C05D19C4800EB071010F800
:1028500005900BE0182C07D107EBC700984901EB56
:10286000800010F8059001E0BDE8F88F4FF0000AF5
:102870002FE009F0800030B192480288314640468E
:10288000FEF702FD07E00A9828B98F480288314612
:102890004046FEF7F9FC4FEA49604FEA1069701CA8
:1028A00086B28A484088B04200DCDDE7A6EB0B0028
:1028B000A0420AD15E4608F101001FFA80F8834861
:1028C0000088404500DCCFE706E00AF1010000F097
:1028D000FF0ABAF1080FCCDB00BF681CC5B2009834
:1028E0008542A5DB00BFBFE710B50246012000E02E
:1028F00050430B00A1F10104E1B2F9D110BD2DE963
:10290000FF4F81B0074691461E460E9D4FF0000ACC
:10291000002439E0301B401EC1B20A20FFF7E4FF5B
:10292000B9FBF0F00A21B0FBF1F201FB1208BAF199
:10293000000F16D1701EA04213DDB8F1000F0ED1AA
:102940000020AB4605EBDB71491001FB04710090E0
:1029500088B22B4620220299FFF73EFF12E04FF08B
:10296000010A0020AB4605EBDB71491001FB047145
:10297000009088B208F13001CAB22B460299FFF7E5
:102980002BFF00BF601CC4B2B442C3DB05B0BDE87E
:10299000F08F2DE9FF4F82B0064692461F46DDE9D3
:1029A0000F480020019000254DE0781B401EC1B269
:1029B0000A20FFF799FFBAFBF0F00A21B0FBF1F211
:1029C00001FB1209019850BB781EA84227DDB9F11E
:1029D000000F22D108F0800078B108F00100A34672
:1029E00004EBDB71491001FB0561009088B22346BE
:1029F00030220399FFF7F0FE0EE008F00100A34635
:102A000004EBDB71491001FB0561009088B223469D
:102A100020220399FFF7E0FE13E00120019008F067
:102A20000100A34604EBDB71491001FB0561009036
:102A300088B209F13001CAB223460399FFF7CCFEF0
:102A400000BF681CC5B2BD42AFDB06B0BDE8F08F69
:102A50002DE9F84704460D4690469946DDE9096799
:102A600004F0FF0A08EB04001FFA80F809EB0500E8
:102A70001FFA80F916E0444502DB5446A81985B2D6
:102A80004D4500DB14E0002000903A78334629469B
:102A90002046FFF7A1FE304606EBD07104EB610142
:102AA0008CB27F1C38787E2802DC38782028E2DA65
:102AB00000BFBDE8F887000046D10108BAD501087B
:102AC000AADB010816000020180000204C0B002093
:102AD00008B50121102002F083FF4FF4C050ADF87B
:102AE000000010208DF8030003208DF802006946D5
:102AF0008A4802F0B9FC0120894908608949C1F877
:102B0000AC0108BD10B58548406820F47040834989
:102B100048600846406840F44050486001208049C1
:102B2000091F08607F49C1F8B001042002F06DF868
:102B300000207B49091F0860042002F066F800208D
:102B40007849C1F8B00110BD10B57448406820F450
:102B50007040724948600846406840F44050486000
:102B600000206F4908606F49C1F8AC01042002F0F1
:102B70004CF801206A4908606A49C1F8AC01042098
:102B800002F043F810BD10B500246448406820F4FA
:102B90007040624948600846406840F40040486020
:102BA00001205F49091F086002F02FF801205D49EC
:102BB000C1F8B00102F029F807E0601CC4B2FA2C99
:102BC00003DDFFF7C1FF012010BD554884380068C0
:102BD0000028F2D15249086000BFF5E710B5002087
:102BE0004F4908604D48406820F470404B494860A8
:102BF0000846406840F44050486000204949C1F808
:102C0000AC01022002F001F80120454908600220D1
:102C100001F0FBFF00204349C1F8B00110BD10B521
:102C200000203F4908603D48406820F470403B491F
:102C300048600846406840F44050486001203949E7
:102C4000C1F8AC01022001F0E0FF01203449086026
:102C5000022001F0DAFF00203249C1F8B00110BDB6
:102C600070B504462D48406820F470402B494860F8
:102C70000846406840F440504860002028490860F9
:102C8000002517E0E0092649091F08606006040EC8
:102C9000022001F0BAFF01202249C1F8B001022050
:102CA00001F0B3FF00201E490860022001F0ADFFD3
:102CB000681CC5B2082DE5DB70BD70B50546002463
:102CC0001648406820F4704014494860084640683F
:102CD00040F400404860002616E0002010490860DB
:102CE000022001F092FF01200E49C1F8B0016006F8
:102CF000040E0B488438006808B1601CC4B201207F
:102D000001F083FF701CC6B2082EE6DB15B9FFF791
:102D100086FF01E0FFF762FF204670BD0010014012
:102D2000B00122420000224210B5FFF7D1FE10BDD3
:102D300070B504460026FFF7E5FE2546E11704EBD3
:102D400011610912A02202EB4101C8B2FFF788FF0E
:102D5000FFF719FFE11704EB11610912A4EB012140
:102D6000C8B2FFF77DFFFFF70EFFFFF7CBFEA120F4
:102D7000FFF776FFFFF707FF0020FFF79EFF0646ED
:102D8000FFF7E2FE304670BD70B504460E46FFF711
:102D9000B9FE2546E11704EB11610912A02202EBEE
:102DA0004101C8B2FFF75CFFFFF7EDFEE11704EB4E
:102DB00011610912A4EB0121C8B2FFF751FFFFF71F
:102DC000E2FE3046FFF74CFFFFF7DDFEFFF7BCFEEB
:102DD0000A2001F03EFF70BD2DE9F04105460E4688
:102DE0001746002409E0E20026FA02F2D1B22A19BD
:102DF00090B2FFF7C9FF601CC4B2BC42F3DBBDE870
:102E0000F0812DE9F04107460C460026002509E037
:102E100036023919491B491E88B2FFF789FF06445B
:102E2000681CC5B2A542F3DB3046BDE8F08110B5A1
:102E3000FF20FFF77DFF0446552C01D1002010BD77
:102E40005521FF20FFF7A0FFFF20FFF771FF044689
:102E5000552C01D10020F2E70120F0E770B50646BD
:102E60000C46154608E03046721C96B2FFF760FF2C
:102E700004F8010B681E85B2002DF4D170BD70B549
:102E800005460C46164606E021782846FFF77CFFEB
:102E9000681C85B2641C3000A6F101018EB2F3D12A
:102EA00070BD000010B50A2001F0AFFE10BD9148C2
:102EB000806940F010008F4988618F4800684FF2A8
:102EC0000F0188438C4908600846006843F20301FB
:102ED0000843894908600846C06840F00200C8609D
:102EE0000846C06840F00800C860704710B58248C6
:102EF000006820F47040804908600846006840F48B
:102F00004050086001207D4908607D49C1F880017A
:102F1000FFF7C8FF002079490860FFF7C3FF0020D2
:102F20007749C1F8800110BD10B57348006820F4DE
:102F30007040714908600846006840F440500860DD
:102F400000206E490C3908606D49C1F88C01FFF70B
:102F5000A9FF012069490C390860FFF7A3FF012090
:102F60006749C1F88C0110BD10B5002462480068A3
:102F700020F47040604908600846006840F4004052
:102F8000086001205D49086001F03FFE01205C49B6
:102F9000C1F8800101F039FE07E0601CC4B2FA2CD0
:102FA00003DDFFF7C1FF012010BD544880380068E1
:102FB0000028F2D151490C39086000BFF4E710B580
:102FC00000204E490C3908604B48006820F47040DE
:102FD000494908600846006840F4405008600020F5
:102FE0004749C1F88C01FFF75DFF012043490C39C7
:102FF0000860FFF757FF00204149C1F8800110BD6C
:1030000010B500203D490C3908603B48006820F4A9
:103010007040394908600846006840F44050086034
:1030200001203749C1F88C01FFF73CFF01203349EB
:103030000C390860FFF736FF00203149C1F88001E4
:1030400010BD70B504462C48006820F470402A4931
:1030500008600846006840F4405008600020274996
:103060000C390860002512E0E00924490860600678
:10307000040E01202249C1F88001FFF713FF002050
:103080001E490C390860FFF70DFF681CC5B2082DFA
:10309000EADB70BD70B5054600241748006820F4CF
:1030A0007040154908600846006840F40040086018
:1030B000002614E0002011490C3908601E2001F0A0
:1030C000A4FD01200E49C1F880016006040E0B48E2
:1030D0008038006808B1601CC4B2701CC6B2082EEB
:1030E000E8DB15B9FFF78CFF01E0FFF768FF20462A
:1030F00070BD000000100240001001408C0122420F
:10310000000022422DE9F04104460E4617464FF0DA
:103110000008FFF7EBFE2820FFF793FFFFF724FFDF
:103120002012FFF78EFFFFF71FFFE0B2FFF789FFC6
:10313000FFF71AFF00250BE0705DFFF782FFFFF736
:1031400013FF8046B8F1000F00D003E0681CC5B241
:10315000BD42F1DB00BFFFF7E7FE4046BDE8F0816E
:1031600038B50546002400208DF800008DF8015088
:1031700000BF09E09DF80000CA49095D0844C0B2DB
:103180008DF80000601CC4B2B82CF3D39DF8000089
:10319000C043401CC0B28DF80000B822C14948F2BB
:1031A0004700FFF7AFFF0222694648F2FF00FFF732
:1031B000A9FF002038BD2DE9F04105460F4616460F
:1031C000FFF794FE2820FFF73CFFFFF7CDFE281203
:1031D000FFF737FFFFF7C8FEE8B2FFF732FFFFF750
:1031E000C3FEFFF783FE2920FFF72BFFFFF7BCFE8E
:1031F00000240BE0711EA14201D0012100E000215A
:103200000846FFF747FF3855601CC4B2B442F1DBF3
:10321000FFF78AFEBDE8F0810EB50121102002F013
:10322000DFFB42F20200ADF8000010208DF8030031
:1032300003208DF8020069469B4802F015F902212F
:10324000994802F0BEF94FF40051974802F0B9F9DD
:10325000FFF72DFE0020954908600A2001F0F9FCD7
:1032600001209349C1F8B4010A2001F0F2FC0220C8
:10327000ADF8000028208DF8030069468A4802F066
:10328000F3F80221884802F09EF9642001F0E1FC85
:10329000042201A948F24010FFF78DFF00208DF8AD
:1032A000080001A983A004F075FA85A101A804F023
:1032B000BDFC40BB02208DF80400012201A948F2A8
:1032C0004000FFF71FFF012201A948F24700FFF766
:1032D00072FF9DF80400602807DA9DF804107AA0B8
:1032E00004F058FA0120FFF73BFF0A2001F0B1FC7F
:1032F00000208DF80400012201A948F24000FFF7E8
:1033000001FF00200EBD0120FCE731B582B0002492
:10331000002572480078401C704908700846007803
:103320000A2190FBF1F201FB120018B16B48007802
:103330000A287DDA012202A948F24E10FFF73BFF6E
:103340009DF8080000F00F0000286BD09DF80800E1
:1033500000F00F00062865DA9DF8080000F00F0164
:10336000FF208840C0B200909DF80000C043C0B26A
:1033700040F0C0005A4981F82000002444E0584839
:1033800090F820000121A140084020B3554931F8B0
:103390001400042201A9FFF70EFF514890F83000F5
:1033A00000F00100C0B19DF804009DF8051000EB8D
:1033B000012081B24A48163020F814109DF806000A
:1033C0009DF8071000EB0120C0F5487081B2444819
:1033D0000C3020F8141015E09DF804009DF805103D
:1033E00000EB012081B23E480C3020F814109DF80B
:1033F00006009DF8071000EB012081B23848163016
:1034000020F81410601CC4B2052CB8DB0125344828
:10341000808920B93248C08A08B900200290002073
:103420002E4908709DF8080000F0800000B100E00F
:103430000DE09DF8080000F00F00062807DA0020D4
:1034400000900122694648F24E10FFF75BFE9DF89E
:10345000080000F08F0080281AD1214890F8200041
:1034600000F0800040B11E4890F8200020F080005D
:103470001B4981F820000BE04FF6FF701849888146
:10348000C882084690F8200000F0E00081F8200093
:1034900012480078F02802DD0A20104908702846FA
:1034A0003EBD000006E9010800100140B4012242BF
:1034B000000022424354502049443A25730D0A002B
:1034C000393134370000000044656661756C742042
:1034D0005665723A25640D0A000000001A000020AB
:1034E0001C000020BEE901082DE9F04104460E460B
:1034F00017464FF00008FFF7F9FCB220FFF7A1FDD7
:10350000FFF732FD2012FFF79CFDFFF72DFDE0B223
:10351000FFF797FDFFF728FD00250BE0705DFFF733
:1035200090FDFFF721FD8046B8F1000F00D003E0C9
:10353000681CC5B2BD42F1DB00BFFFF7F5FC404699
:10354000BDE8F0812DE9F04105460F461646FFF72C
:10355000CDFCB220FFF775FDFFF706FD2812FFF73F
:1035600070FDFFF701FDE8B2FFF76BFDFFF7FCFC14
:10357000FFF7BCFCB320FFF764FDFFF7F5FC002468
:103580000BE0711EA14201D0012100E0002108469C
:10359000FFF780FD3855601CC4B2B442F1DBFFF781
:1035A000C3FCBDE8F08138B50446002000900CB1A2
:1035B00080200090012269464FF45060FFF794FF8D
:1035C00038BD1CB5002001900121102002F008FA3E
:1035D0000220ADF8000048208DF8030003208DF88C
:1035E000020069468D4801F03FFF02218B4801F03F
:1035F000E8FF4FF40050ADF8000010208DF80300F4
:103600006946864801F030FF4FF40051834801F0CD
:10361000D8FFFFF74CFC002081490860642001F0CE
:1036200018FB01207F49C1F8B401642001F011FBAF
:103630000120FFF7B8FF012201A94FF45060FFF706
:1036400081FF9DF8041078A004F0A4F89DF8040010
:1036500000F0800008B100201CBD0120FCE72DE92E
:10366000F14F82B04FF0000AD34672480078401CF8
:1036700070490870084600780A2190FBF1F201FBBE
:10368000120018B16B4800780A287DDA012202A9DD
:103690000020FFF757FF9DF8080000F01F000028EA
:1036A00072D09DF8080000F01F0040F0C000624991
:1036B00081F820004FF0000A76E05F4890F8200083
:1036C000012101FA0AF10840002869D05B4931F86C
:1036D0001A00042201A9FFF735FF574890F830007F
:1036E00000F0010078B39DF807109DF8062001EB6B
:1036F000022018F0AEFE0646514A524B18F010FF59
:10370000044618F079FE81B24B48163020F81A10A2
:103710009DF805109DF8042001EB022018F099FE99
:103720000646494A494B18F0FBFE80460022484BAA
:1037300019F02AF8044618F05FFE81B23E480C30BA
:1037400020F81A102CE0FFE79DF807109DF80620DE
:1037500001EB022018F07DFE0646394A394B18F07D
:10376000DFFE044618F048FE81B233480C3020F8E2
:103770001A109DF805109DF8042001EB022018F0A6
:1037800068FE0646304A00E01EE0304B18F0C8FEE6
:10379000044618F031FE81B22748163020F81A107E
:1037A0000AF1010000F0FF0ABAF1050F85DB4FF0C6
:1037B000010B2148808920B91F48C08A08B9002020
:1037C000029000201B4908709DF8080000F01F00BF
:1037D000D0B9194890F8200000F0800040B1164898
:1037E00090F8200020F08000134981F820000BE0C1
:1037F0004FF6FF7010498881C882084690F8200073
:1038000000F0E00081F820000A480078F02802DD8E
:103810000A20084908705846BDE8FE8F0010014094
:10382000B4012242000022424354502049443A2528
:10383000780D0A001B0000201C000020C8E90108C8
:103840007B14AE47E17AD43FD881734694F6D23FD9
:1038500000008940002100BF15E000F080021AB18D
:103860000122FE4B1A6002E00022FC4B1A60420665
:10387000100E0022F94B0C3B1A600122F84BC3F8E2
:1038800080214A1CD1B20829E7DB704770B5064693
:10389000002500240020F1490C390860F049C1F8E6
:1038A0008C01EE49283108603046FFF7D3FF06202F
:1038B00001F0ABF90020EA49C1F88001012001F0D4
:1038C000A4F90120E5490C3908600020E449C1F859
:1038D000800100BF13E04FF6FF7000EA44040020AF
:1038E000DE490C3908600120DD49C1F88001DB4860
:1038F0008438006808B1601C84B2681CC5B2102D01
:10390000E9DB24110120D54928310860204670BD2B
:103910002DE9FE4380460027002406E04046FFF7DD
:10392000B5FF2DF81400601C84B2052CF6DB0024D2
:1039300016E0601C85B20FE03DF814003DF815104C
:10394000884207DD3DF814603DF815002DF814009D
:103950002DF81560681C85B2052DEDDB601C84B266
:10396000042CE6DB0027012405E03DF81400384470
:1039700087B2601C84B2042CF7DB032097FBF0F0C5
:1039800086B23046BDE8FE832DE9F04104460D467F
:10399000B4480078FFF7BCFF0646B3480078FFF74D
:1039A000B7FF074626802F800120BDE8F0817FB554
:1039B00004460D4602A903A8FFF7E6FF064616B91E
:1039C000002004B070BD694601A8FFF7DDFF064680
:1039D0000EB90020F5E7BDF80400BDF80C108842D0
:1039E00006DCBDF80C10BDF80400323081420CDB5F
:1039F000BDF80C00BDF80410884236DCBDF8041098
:103A0000BDF80C00323081422FDABDF80000BDF85D
:103A10000810884206DCBDF80810BDF800003230FE
:103A200081420CDBBDF80800BDF8001088421CDCA8
:103A3000BDF80010BDF808003230814215DABDF83B
:103A40000C10BDF80420881800EBD071C1F34F01B1
:103A50002180BDF80810BDF80020881800EBD07157
:103A6000C1F34F0129800120ABE70020A9E770B521
:103A700004460D4616467D48068004F10D018AB2C3
:103A8000193988B22B462946FEF7DCFD05F10D00F9
:103A900083B2193881B222462046FEF7D3FD6A1C54
:103AA00091B2621C90B2FDF7D5FB6A1C91B2621E06
:103AB00090B2FDF7CFFB6A1E91B2621C90B2FDF787
:103AC000C9FB6A1E91B2621E90B2FDF7C3FB0622CB
:103AD00029462046FEF734FE70BD70B504460D46FB
:103AE00016466248068029462046FDF7B3FB611C56
:103AF00088B22946FDF7AEFB681C81B22046FDF76F
:103B0000A9FB6A1C91B2621C90B2FDF7A3FB70BDC9
:103B10002DE9F0410446514888380068002856D104
:103B20002CB15349A1F10A00FFF741FF3DE0504994
:103B3000A1F10A00FFF73BFFB8B34D491639B1F9BF
:103B40002C0019F089F9074649491639888919F076
:103B50009BF9804646481638416A404619F0A8F954
:103B60000646394619F018F8054619F055F9404946
:103B700016398881B1F92E0019F06EF907463C49D3
:103B80001639C88A19F080F9804639481638816A92
:103B9000404619F08DF90646394618F0FDFF0546F6
:103BA00019F03AF932491639C8823148163890F876
:103BB000200000F0800038BBC0202D49163981F864
:103BC0002000084681898182C18AC1831CE028487F
:103BD000163890F8200000F0800050B124481638C4
:103BE00090F8200020F080002149163981F820004B
:103BF0000AE000211E4816388182C1834FF6FF700B
:103C00001B4916398881C8821948163890F8200057
:103C100000F08000BDE8F08170B515491639486A9A
:103C2000144919F045F9054619F0DAF8044604225A
:103C300021462820FFF7D0F80D491639886A0D492A
:103C400019F036F9054619F0CBF80446042221464E
:103C50002C20FFF7C1F8064816380DE08C012242EF
:103C600000002242500000205100002016000020D9
:103C70003200002020BCBE4CB0F92C1002223020B3
:103C8000FFF7AAF8F948B0F92E1002223220FFF708
:103C9000A3F8F64890F830103420FFF775F80A249E
:103CA00021463520FFF770F870BD70B53520FFF75D
:103CB0003FF804460A2C42D104212820FFF7A1F83E
:103CC0000546284619F0C8F80646E94918F0C6FF27
:103CD000E649486204212C20FFF793F80546284660
:103CE00019F0BAF80646E24918F0B8FFDF498862D1
:103CF00002213020FFF785F800B2DC4988850221D7
:103D00003220FFF77EF800B2D849C8853420FFF78B
:103D10000FF8D64981F83000084690F8300030B1ED
:103D20009020D4490870D020D349087005E0D020F5
:103D3000D04908709020D0490870012070BD002043
:103D4000FCE72DE9FC5F04460D4617461E46DDE9FB
:103D50000EABDDE90C894FF47840C8490880C8A053
:103D60001021CDE90010C74843880288A0212820EF
:103D7000FEF76EFEC4A01021CDE90010C1484388B3
:103D80000288A0217820FEF763FEC0A01021CDE9B3
:103D90000010BC4843880288B4212820FEF758FE52
:103DA000BBA01021CDE90010B64843880288B42199
:103DB0007820FEF74DFEB7A01021CDE90010B148E4
:103DC00043880288C8212820FEF742FEB2A01021B5
:103DD000CDE90010AB4843880288C8217820FEF75F
:103DE00037FEAEA01021CDE90010A6484388028816
:103DF000DC212820FEF72CFEA9A01021CDE900101F
:103E0000A04843880288DC217820FEF721FEA5A087
:103E10001021CDE900109B4843880288F02128201A
:103E2000FEF716FE102004232246A0210090402019
:103E3000FEF765FD102004232A46A0210090902063
:103E4000FEF75DFD102004233A46B4210090402087
:103E5000FEF755FD102004233246B4210090902037
:103E6000FEF74DFD102004234246C821009040205B
:103E7000FEF745FD102004234A46C82100909020FB
:103E8000FEF73DFD102004235246DC210090402027
:103E9000FEF735FD102004235A46DC2100909020C7
:103EA000FEF72DFD10200090764801880323602046
:103EB000109AFEF724FDBDE8FC9F2DE9F04F8BB072
:103EC0000024002006904FF6FF70FDF7EFFE1F2044
:103ED0006A4908807548006810216423A022CDE952
:103EE000001028210846FEF7B3FD4FF47842142154
:103EF0000846FFF7BCFD00205C4981F820004862BD
:103F000048E200BF5948416801208847574890F867
:103F1000200000F0C00040287ED1002006905348C9
:103F200090F8200020F04000504981F82000084619
:103F3000808907A921F824004C48C08A01EB84013C
:103F40004880601CC4B2012C06D0022C14D0032C73
:103F500025D0042C0FD138E04FF6FF72142108460B
:103F6000FFF785FD47490988143988B24FF4784234
:103F70001421FFF77CFDFDE142490988143988B21C
:103F80004FF6FF721421FFF772FD3E484088143847
:103F900081B24FF478421420FFF769FDEAE1394815
:103FA0004088143881B24FF6FF721420FFF75FFD8E
:103FB000344A5288143A91B2324A1288143A90B272
:103FC0004FF47842FFF753FDD4E10024F5E038497F
:103FD00011F8241007AA32F82110354A02EB8402A6
:103FE000527807AB33F82220881A002801DB0146FB
:103FF00000E041420D462E4911F8241007AA02EBB9
:10400000810149882A4A02EB8402527807AB03EB0C
:1040100082025288881A00E0ADE1002801DB0146E7
:1040200000E041420E466D437643A81918F028FA85
:10403000CDE9020118F005F9CDE9040118F0DCF929
:104040001FFA80F81A4901EB8401897807AA32F82F
:104050002110174A02EB8402D27807AB33F82220F2
:10406000881A002826DB014625E000001C000020FD
:1040700020BCBE4C50000020510000201600002043
:1040800078313A004C0B002079313A0078323A000E
:1040900079323A0078333A0079333A0078343A008A
:1040A00079343A006661632069733A005400002055
:1040B000D2E9010841420D46F64901EB84018978B5
:1040C00007AA02EB81014988F24A02EB8402D27806
:1040D00007AB03EB82025288881A002801DB0146F5
:1040E00000E041420E466D437643A81918F0C8F926
:1040F000CDE9020118F0A5F8CDE9040118F07CF92A
:104100001FFA80F9484618F0BFFE0746404618F0EF
:10411000BBFE8346394618F0A1FD8246504618F092
:104120000FFD4FF06632DC4BCDE9040118F0BCF90D
:104130000FD3504618F004FDD84AD94BCDE90401FD
:1041400018F0ECFA05D3B8F1000F02D0B9F1000F66
:1041500031D10024D34A5288143A91B2D14A1288FC
:10416000143A90B24FF6FF72FFF781FC4FF4784299
:1041700014210846FFF77BFCCB49504618F098FE07
:10418000834618F049FE87B2BDF82A10BDF8280012
:10419000BDF8262002AB83C30192BDF82400009035
:1041A000BDF82230BDF82020BDF81E10BDF81C005F
:1041B000FFF7C7FDA6E6601CC4B2032CFFF607AFED
:1041C000BDF82010BDF81C20881A18F045FE0746DF
:1041D000B4490988A1F1280018F03EFE834639460B
:1041E00018F03CFDB1494862BDF82010BDF81C2014
:1041F000881818F031FE0390AC48416A039818F013
:1042000057FEA8490590088818F03EFE04900599CD
:1042100018F024FF83464FF0804118F01FFD074639
:1042200018F0DEFD00B2A1498885BDF82610BDF862
:104230001E20881A18F010FE07469A494988A1F1F5
:10424000280018F009FE8346394618F007FD974903
:104250008862BDF82610BDF81E20881818F0FCFDF5
:1042600003909248816A039818F022FE83468D4994
:10427000488818F009FE5946049018F0EFFE4FF0F8
:104280008041059018F0EAFC074618F0A9FD00B23D
:104290008649C885486A18F0A3FDB0F1000B01DB20
:1042A000584601E0CBF1000002280ADC7F49886A09
:1042B00018F096FD071E01DB384600E07842022820
:1042C00039DD0024774A5288143A91B2754A12882F
:1042D000143A90B24FF6FF72FFF7C9FB4FF47842E1
:1042E00014210846FFF7C3FB71A01021CDE900108F
:1042F0006C48438802881A212820FEF7A9FB6B48E6
:1043000090F8300008B9012000E00020674981F8EA
:104310003000084690F8300030B1902069490870AC
:10432000D0206949087005E0D020664908709020C7
:10433000654908702EE01F20644908804FF6FF7021
:10434000FDF7B4FC62A01021CDE900105548438868
:1043500002886E212320FEF77BFB4FF47A7000F079
:1043600078FCFFF759FC4FF6FF70FDF79FFC0BB090
:10437000BDE8F08F00BF0A2000F06BFC0698401CDF
:1043800080B206900698B0F57A7F02DDFFF78DFCCB
:1043900001E000BFB5E500BF00BFE8E708B5414850
:1043A000808845F21051884220D1FEF735FF18B9B8
:1043B0004D483E49486004E0FFF703F94B483B494C
:1043C00048603A4890F8300040F08000374981F862
:1043D0003000084690F830003249897901F0010137
:1043E0000843324981F83000002008BD2D488088FC
:1043F00041F66311884218D100F051F93C482B492D
:104400004860084690F8300040F0800081F83000A5
:10441000084690F830002349897901F001010843EA
:10442000224981F830000020DFE70121112001F04E
:10443000D7FA42F20900ADF8000010208DF8030011
:1044400003208DF8020069462A4801F00DF8062085
:10445000ADF8000048208DF803006946254801F0BA
:1044600003F812491631A1F10A00FFF78DFAFEF7A1
:104470005BFCFFF71AFC08B10020B6E74FF6FF70AF
:10448000FDF714FCFFF719FDFFF7C6FBFFF70DFC66
:104490000120AAE7D2E901086666EE3FCDCCCCCC7C
:1044A000CCCCF03F4C0B00200000C8421C00002088
:1044B0005450204E65656420726561646A7573743A
:1044C00021000000500000205100002016000020B4
:1044D000546F7563682053637265656E2041646A2A
:1044E000757374204F4B21000B3300085F360008B2
:1044F00075470008001001407FB504460D460121B4
:10450000022001F07AFAADF804500020ADF8060060
:10451000ADF80840ADF80A0001A9334801F098FB56
:1045200001221146304801F00AFF1D208DF80000DD
:1045300000208DF8010003208DF8020001208DF885
:104540000300684600F0C7FE0121274801F0DCFEA9
:104550007FBD10B50121244802F09FF920B1234806
:104560000068401C2149086001211F4802F0A6F99B
:1045700010BD7FB504460D460121102001F03DFA23
:10458000ADF804500020ADF80600ADF80840ADF8D5
:104590000A0001A9164801F05BFB012241211448E1
:1045A00001F0CDFE36208DF8000001208DF80100CD
:1045B00003208DF8020001208DF80300684600F00A
:1045C0008AFE01210A4801F09FFE7FBD10B501213E
:1045D000074802F062F908B107F04EFE01210448D5
:1045E00002F06CF910BD00000004004098000020AB
:1045F000001000402DE9F04105460E4617464FF0E9
:104600000008FEF773FC7020FEF71BFDFEF7ACFC04
:10461000E8B2FEF716FDFEF7A7FC00240BE0305DC4
:10462000FEF70FFDFEF7A0FC8046B8F1000F00D0AA
:1046300003E0601CC4B2BC42F1DB00BFFEF774FCB7
:104640004046BDE8F0812DE9F04106460F4615468B
:10465000FEF74CFC7020FEF7F4FCFEF785FCF0B290
:10466000FEF7EFFCFEF780FCFEF740FC7120FEF742
:10467000E8FCFEF779FC00240BE0691EA14201D0A2
:10468000012100E000210846FEF704FD3855601CBA
:10469000C4B2AC42F1DBFEF747FCBDE8F0811CB5CB
:1046A0000121102001F09CF94FF40050ADF80000FA
:1046B00010208DF8030003208DF802006946914810
:1046C00000F0D2FE4FF400518E4800F07AFF022035
:1046D000ADF8000048208DF803006946894800F0D5
:1046E000C3FE0221874800F06CFFFEF7E0FB0020CC
:1046F00085490860142000F0ACFA01208349C1F814
:10470000B401322000F0A5FA00208DF80400012247
:1047100001A9FFF76FFF012201A9A420FFF76AFF9B
:1047200016208DF80400012201A98020FFF762FF06
:104730000C208DF80400012201A98820FFF75AFF00
:10474000022201A9A120FFF77EFF9DF80400302876
:104750000ED19DF8050003280AD19DF805009DF8AB
:10476000042000EB02216AA003F014F800201CBD15
:104770000120FCE771B581B000240026674800786D
:10478000401C66490870084600780A2190FBF1F247
:1047900001FB120018B1614800780A2867DA01228B
:1047A00001A90220FFF74FFF9DF8040000F00F0061
:1047B00000287ED09DF8040000F00F00062878DA6B
:1047C0009DF8040000F00F01FF208840C5B2E843C7
:1047D000C0B240F0C000524981F8200000245AE0E5
:1047E0004F4890F820000121A1400840F0B34D4906
:1047F00031F8140004226946FFF725FF484890F875
:10480000300000F00100C0B19DF801009DF80010DB
:1048100001F00F0100EB01204149163121F814008D
:104820009DF803009DF8021001F00F0100EB01213B
:104830003B480C3020F814101DE09DF801009DF855
:10484000001001F00F0100EB0120C0F5F07081B203
:1048500033480C3020F814109DF803009DF8021026
:1048600001F00F0100EB01212D4801E011E020E0F3
:10487000163020F814109DF8000000F0F000802899
:1048800007D000212648163020F814100A3820F8E6
:104890001410601CC4B2052CA2DB012620488089BC
:1048A00020B91F48C08A08B90020019000201B4988
:1048B00008709DF8040000F01F00D0B9184890F867
:1048C000200000F0800040B1154890F8200020F052
:1048D0008000134981F820000BE04FF6FF7010496B
:1048E0008881C882084690F8200000F0E00081F836
:1048F00020000A480078F02802DD0A2007490870E5
:1049000030467CBD00100140B4012242000022422A
:104910004354502049443A25780D0A00580000209D
:104920001C000020DEE90108A34A926942F40062FB
:10493000A14B9A61A14A126822F00F029F4B1A60A4
:104940001A46126842F00B021A609D4A1080121F2C
:1049500011809B4A143A128842F07002984B143B23
:104960001A801A46128842F008021A80944A0C3AB9
:10497000128842F00102924B0C3B1A80904A183286
:10498000128842F400428E4B18331A8080228C4BDE
:104990002C3B1A801A46128842F001021A8000222B
:1049A000874B08331A807047834AD26942F001026C
:1049B000814BDA61814A121F126822F470427F4BE8
:1049C0001B1F1A601A46126842F430421A60DA0459
:1049D00090851185128B42F07002DB041A831A460F
:1049E000128B42F008021A831A46128C42F001021E
:1049F0001A8480221A80D205128842F001021A809D
:104A000000229A86704730B589B005460C460121D0
:104A1000C80200F0E5FF0121042000F0E1FF4FF49F
:104A20008070ADF8200018208DF8230003208DF849
:104A3000220008A96148001F00F016FDADF81850CB
:104A4000ADF814400020ADF81A00ADF8160005A925
:104A50005B482C3801F0FCF87020ADF80400012010
:104A6000ADF806000020ADF80A00ADF80C0001A971
:104A700053482C3801F029F9012151482C3801F014
:104A80004FFC08214E482C3801F06EFD01214C48A6
:104A90002C3801F039FD012149482C3801F034FC53
:104AA0000020484908800846018845482C3801F014
:104AB000C3FE09B030BD10B50446434890FBF4F086
:104AC000401E424908804248048000213F48008837
:104AD000FFF72AFF10BD10B5002139482C3801F02E
:104AE000ABFE00214FF4006000F07AFF0021344853
:104AF0002C3801F015FC002131482C3801F004FC61
:104B000010BD10B501212E482C3801F0FDFB10BD61
:104B100010B504462D480088401C6043642190FB7A
:104B2000F1F0284908802B48047008460188244881
:104B30002C3801F081FE10BD2149083108807047F2
:104B40001F490831098801441D4A08321180704705
:104B50001B4908310988814204DA0021184A0832C9
:104B6000118006E0164908310988091A144A0832EA
:104B70001180704770B5012600244FF4167500218E
:104B800040F28330FFF7D0FE13E0681E85B20A20A2
:104B900000F05FF816B1601C84B201E0601E84B2C0
:104BA000B4F5967F00DD002604B9012604480830DC
:104BB0000480002DE9D170BD0010024004080140BE
:104BC0002C2C014060000020401901005E000020F4
:104BD0005C0000205A00002010B56FF0040000F0C7
:104BE000C4FB2E4800682E49B0FBF1F02D49087037
:104BF0000846007800EB4001C1EBC0104FF6FF7192
:104C000001EAC0002849088010BD0146254A1278F3
:104C10004A434FF0E0235A6100229A611A46126912
:104C200042F001021A6100BF4FF0E022106900F06B
:104C300001021AB100F48032002AF5D04FF0E022D0
:104C4000126922F001024FF0E0231A6100229A61FA
:104C500070470146144A12884A434FF0E0235A61D4
:104C600000229A611A46126942F001021A6100BFDD
:104C70004FF0E022106900F001021AB100F4803216
:104C8000002AF5D04FF0E022126922F001024FF025
:104C9000E0231A6100229A617047000000000020A2
:104CA00000127A006200002064000020A64A0A4038
:104CB0000243A64B1A6070470146072323EA01020C
:104CC0001202A24B1B1D18684FF6FF031840A04BA1
:104CD000184310439D4B1B1D186070472DE9F04190
:104CE0000746884614461D462846FFF7E5FFC5F1EE
:104CF000040007FA00F60F20284100EA08000643E6
:104D000006F00F06E21704EBD2625211920002F194
:104D1000E022D2F800212146E31704EBD3635B11B4
:104D2000A4EB431C012303FA0CF31A432046E317B8
:104D300004EBD3635B119B0003F1E023C3F8002174
:104D40008448005D40EA061082490855BDE8F081BC
:104D500070B504460B46CE1701EB9676C6F3870076
:104D6000CE1701EB9676B610A1EB8606B606350E89
:104D7000794B9B6943F00103774EB3614FEAB63339
:104D800053F820300F26AE40B343744E46F820301F
:104D9000334653F8203004FA05F61E436F4B43F8B0
:104DA00020606F4B1B6801268E4033436C4E33608E
:104DB00002F0010343B16A4B0C331B6801268E409D
:104DC0003343674E0C36336002F0020343B1644B49
:104DD00008331E6801238B401E43614B08331E605D
:104DE00070BD00B500205C490861C86014204861AE
:104DF00000208861C8610846006840F00100086032
:104E000008464068574908405349486008460068CA
:104E100055490840504908600846006820F4802041
:104E200008600846406820F4FE0048600020886062
:104E300000214FF00060FFF739FF00BD30BF704721
:104E400072B6704762B6704700B5404808300068D7
:104E500040F004003D49083108603F48C06940F017
:104E600080503D49C8614148406840F480703F49E6
:104E700048600846006840F0040008600846006882
:104E800040F002000860FFF7D9FF00BD3048001D68
:104E90002E49091D08607047014649062E4A92694D
:104EA00042F001022C4B9A612C4A083A526822F0D7
:104EB000E0622A4B083B5A601A4652680A435A601D
:104EC000704730B504460025FFF78BFF2248006885
:104ED00040F480302049086000BF1F480068400C43
:104EE0000028FAD04FF480601B494860A01EC4B26D
:104EF0000846406840EA844048600846406840F4FC
:104F0000803048601A48006840F032001849086054
:104F10001148006840F080700F49086000BF0E48DB
:104F20000068400E0028FAD00B48406840F00200AC
:104F30000949486005E008484068C0F3870505F066
:104F40000305022DF7D130BD80FFFF1F08ED00E003
:104F50000000FA0500E400E00010024008000140F3
:104F6000000401400000FFF8FFFFF6FE0070004063
:104F700000200240014600BF704700BF554A12881A
:104F800002F04002002AF9D0C2B2524B1B1D1A8017
:104F900070475049098801F0200111B34D49091D9E
:104FA0000988C8B24C49098801F40041C9B94A4985
:104FB000098801F4804161B10A2803D00021464AE2
:104FC000118020E04449098841F40041424A11809F
:104FD00019E00D2806D14049098841F480413E4A34
:104FE000118010E03C490988C1F30D013B4A50543F
:104FF00039490988491C384A118011460988C7294E
:1050000001DD0021118070472DE9F05F05460E4655
:10501000300117F039FF8146314905FB01F017F0E7
:1050200033FF8246494617F019FE0746384617F007
:10503000F3FE84B2204617F027FF8346394618F066
:1050400003F882464FF0834117F032FF814617F094
:10505000E3FE80464FF6FF7000EA041404EB0800FC
:1050600084B22048806940F004001E4988610846E7
:10507000806940F4804088611B48006820F47F60AC
:10508000194908600846006840F40B60086015483C
:10509000C06840F480401349C8600846C06820F4E6
:1050A0008040C8600B4808300480001D008842F230
:1050B0000C01084307490C3108800846008840F07D
:1050C000200008800223252203210846FFF706FE60
:1050D000BDE8F09F003801406C0000205A0B002012
:1050E00040420F0000100240040801400948804778
:1050F00009480047FEE7FEE7FEE7FEE7FEE7FEE7BA
:10510000FEE7FEE7FEE7FEE704480549054A064BD1
:1051100070470000130400083101000800A40020BB
:1051200000AE002000A6002000A6002070B50346B7
:105130000C4603E014F8015B03F8015B1500A2F1D3
:105140000102F7D170BD30B5034601E003F8011B41
:105150001400A2F10102F9D130BD00B55A494FF453
:105160000C62C8680021FFF7EEFF57494FF40C426C
:1051700088680021FFF7E7FF01205349087400BD4C
:105180000022002106E05048C06830F8110000B14C
:10519000521C491CB1F58C6FF5D3642050434FF479
:1051A0008C63B0FBF3F0C0B270472DE9F0410646C6
:1051B0000024A0464448007C10B943490868804751
:1051C0001EB94FF0FF30BDE8F081C6F34F1506F071
:1051D0001F0008B1681C85B240F25F441AE03A48EB
:1051E000C06830F8140020B908F101001FFA80F8F7
:1051F00001E04FF00008A8450BD1002705E0324838
:10520000C068E11920F811507F1CAF42F7D360014C
:10521000D9E7641E002CE2DA4FF0FF30D3E770B517
:1052200005462948007C20B92749086880470120A5
:1052300070BDB5F50C4F11D269092348C06830F82C
:105240001120002406E000201F4BDB680E1923F814
:105250001600641C9442F6DB0020E9E70220E7E731
:1052600070B5044604B970BD17488068251A2846F1
:10527000FFF7D5FF00BFF6E770B505462846FFF7F4
:1052800094FF0446601C08B9002070BD0E48806879
:105290002044FAE770B506460C462046FFF785FF26
:1052A0000546681C08B9002070BD0749896848197F
:1052B00022463146FFF73AFF3046FFF7D1FF02485A
:1052C00080682844F0E70000700000203149014365
:1052D000314A1160704770B5002100230F22C47855
:1052E00004B32D4C246804F4E064C4F5E064210A9E
:1052F000C1F10403CA40447804FA03F184781440ED
:1053000021430901254C0678A155047804F01F05B6
:105310000124AC4005786D11AD0005F1E025C5F81C
:10532000004109E0047804F01F050124AC401C4D45
:105330000678761145F8264070BD1A4A0A400243A5
:10534000154B1B1F1A60704739B1134A121D1268A2
:105350000243114B1B1D1A6006E00F4A121D126812
:1053600082430D4B1B1D1A607047042808D14FF073
:10537000E021096941F004014FF0E022116107E0EA
:105380004FF0E021096921F004014FF0E0221161A2
:10539000704700000000FA050CED00E000E400E0BA
:1053A00080E100E080FFFF1F10B50446CC48844236
:1053B00008D10121042000F02DFB0021042000F081
:1053C00029FB46E0C748844208D10121082000F0AB
:1053D00021FB0021082000F01DFB3AE0C248844276
:1053E00008D10121102000F015FB0021102000F051
:1053F00011FB2EE0BD48844208D10121202000F09D
:1054000009FB0021202000F005FB22E0B84884427F
:1054100008D10121402000F0FDFA0021402000F0D9
:10542000F9FA16E0B348844208D10121802000F047
:10543000F1FA0021802000F0EDFA0AE0AE48844243
:1054400007D10121801500F0E5FA0021A01500F038
:10545000E1FA10BD10B50121084600F0DBFA002189
:10546000012000F0D7FA10BD2DE9F04102460025D9
:105470000026002000230024002791F803C00CF030
:105480000F0591F803C00CF0100CBCF1000F03D015
:1054900091F802C04CEA050591F800C0BCF1000F7C
:1054A00031D0146800202BE04FF0010C0CFA00F30F
:1054B000B1F800C00CEA03069E4220D183004FF0F1
:1054C0000F0C0CFA03F7BC4305FA03FC4CEA040486
:1054D00091F803C0BCF1280F06D14FF0010C0CFA73
:1054E00000FCC2F814C00AE091F803C0BCF1480FF8
:1054F00005D14FF0010C0CFA00FCC2F810C0401CA2
:105500000828D1D31460B1F800C0BCF1FF0F34DD1E
:10551000546800202EE000F1080C4FF0010808FA52
:105520000CF3B1F800C00CEA03069E4221D18300BF
:105530004FF00F0C0CFA03F7BC4305FA03FC4CEADE
:10554000040491F803C0BCF1280F05D100F1080C48
:1055500008FA0CF8C2F8148091F803C0BCF1480FA7
:1055600007D100F1080C4FF0010808FA0CF8C2F856
:105570001080401C0828CED35460BDE8F0814FF65F
:10558000FF710180022181700421C17070470246C1
:10559000002093680B400BB1012000E00020704711
:1055A0000146886880B2704702460020D3680B40ED
:1055B0000BB1012000E0002070470146C86880B2AE
:1055C000704701617047416170470AB1016100E0B5
:1055D00041617047C16070474FF480320A43826175
:1055E0008161826182698269704702460020434B73
:1055F00018684FF68073184040EA021008433F4B8A
:10560000186070473E49C8617047F0B50A460023EC
:1056100000240021002500F00046B6F1004F02D121
:10562000364EF16901E0354E7168C0F3034583B22F
:1056300000F44016B6F5401F08D121F070612F4EDE
:10564000766826F070662D4F7E6012E000F48016BA
:10565000B6F5801F06D1032606FA05F4A14341F0F2
:10566000706106E0460D360103FA06F6B14341F0DB
:10567000706122B1460D360103FA06F6314300F09F
:105680000046B6F1004F02D11C4EF16101E01B4E05
:105690007160F0BD30B500228B071C0F0F2303FA99
:1056A00004F2164B08338C1053F824309343134CF8
:1056B00008348D1044F8253023468C1053F82430DC
:1056C0008C07240F00FA04F423430C4C08348D108B
:1056D00044F8253030BD0A49DC31086070470000CD
:1056E00000080140000C014000100140001401407E
:1056F00000180140001C0140002001400000014052
:1057000000002042DF48006840F00100DD490860E9
:1057100008464068DC490840DA49486008460068A5
:10572000DA490840D74908600846006820F480201C
:1057300008600846406820F4FE0048604FF41F00EF
:1057400088607047CF49096821F48031CD4A1160E3
:105750001146096821F480211160B0F5803F03D023
:10576000B0F5802F0ED106E0C649096841F48031BA
:10577000C44A116007E0C349096841F4A021C14A45
:10578000116000E000BF00BF704710B50146002265
:10579000002300204A11012A02D1BA4C236806E0F6
:1057A000022A02D1B74C236A01E0B64C636A01F0C9
:1057B0001F02012494401C400CB1012000E0002095
:1057C00010BD38B5002000900024002500BF312016
:1057D000FFF7DBFF05460098401C00900098B0F5ED
:1057E000A06F01D0002DF2D03120FFF7CEFF08B11D
:1057F000012400E00024204638BD01460020A14AD3
:10580000106820F0F80040EAC10010607047A0491D
:1058100008607047024600209A4B586820F47C10BC
:1058200042EA01031843974B58607047984908664D
:10583000704701460020934A506820F00300084357
:10584000506070478F48406800F00C007047014678
:1058500000208C4A506820F0F000084350607047E8
:1058600001460020874A506820F4E06008435060F9
:10587000704701460020834A506820F4605040EA97
:10588000C1005060704729B17E4A527A02437D4B75
:105890005A7204E07B4A527A82437A4B5A727047BA
:1058A0007B49D8310860704701460020754A50682E
:1058B00020F440400843506070470021714A203274
:1058C0001170704A82F82010012802D004280AD1F1
:1058D00004E001216B4A2032117005E00521694A7C
:1058E0002032117000E000BF00BF704769490860B6
:1058F00070476449096A0143624A11627047654909
:1059000044390860704730B500210022002400238C
:105910005C4D6D6805F00C0121B1042905D0082902
:1059200023D105E05C4D056022E05B4D05601FE082
:10593000544D6D6805F47012524D6D6805F4803455
:10594000022505EB92421CB9544D554305600BE00E
:105950004C4D6D6805F400351DB1504D5543056043
:1059600002E04D4D5543056002E04B4D056000BF20
:1059700000BF444D6D6805F0F0010909484D6B5CAE
:105980000568DD4045603F4D6D6805F4E061090A3A
:10599000434D6B5C4568DD4085603A4D6D6805F4AC
:1059A0006051C90A3E4D6B5C4568DD40C560354DB0
:1059B0006D6805F44041890B3A4D6B5CC568B5FBD9
:1059C000F3F5056130BD29B12E4A526902432D4BD2
:1059D0005A6104E02B4A526982432A4B5A6170474C
:1059E00029B1284A92690243264B9A6104E0254A6C
:1059F00092698243234B9A61704729B1214AD26947
:105A00000243204BDA6104E01E4AD26982431D4BF7
:105A1000DA61704729B11B4AD2680243194BDA6038
:105A200004E0184AD2688243164BDA60704729B105
:105A3000144A12690243134B1A6104E0114A1269B5
:105A40008243104B1A617047124940390860704711
:105A50000F49C86470470B49C87170470948406ACC
:105A600040F0807007494862704701460020054AAF
:105A700092680A400AB1012000E000207047014905
:105A800088727047001002400000FFF8FFFFF6FE2A
:105A9000000042428004424200127A0000093D00A8
:105AA000840000209400002010B50446FE48844283
:105AB00008D10121C014FFF7ADFF0021E014FFF76A
:105AC000A9FFC4E0B4F1804F08D101210846FFF7D7
:105AD000AEFF00210120FFF7AAFFB8E0F34884429F
