:020000040800F2
:1000000098B00020DD3B0008B7020008B9020008E4
:10001000BB020008BD020008BF020008000000008B
:10002000000000000000000000000000C102000805
:10003000C302000800000000C5020008C702000853
:10004000F73B0008F73B0008F73B0008F73B0008C8
:10005000F73B0008F73B0008F73B0008F73B0008B8
:10006000F73B0008F73B0008F73B0008F73B0008A8
:10007000F73B0008F73B0008F73B0008F73B000898
:10008000F73B0008F73B0008F73B0008F73B000888
:10009000F73B0008F73B0008F73B0008F73B000878
:1000A000F73B0008F73B0008F73B0008F73B000868
:1000B000F73B0008D3360008F73B0008F73B000881
:1000C000F73B0008F73B0008F73B0008F73B000848
:1000D000F73B0008753B0008F73B0008F73B0008BA
:1000E000F73B0008F73B0008F73B0008F73B000828
:1000F000F73B0008F73B0008F73B0008F73B000818
:10010000F73B0008F73B0008F73B0008F73B000807
:10011000F73B0008F73B00084F370008F73B0008A3
:10012000F73B0008F73B0008F73B0008F73B0008E7
:1001300000F002F800F06AF80AA090E8000C82448F
:100140008344AAF10107DA4501D100F05FF8AFF26C
:10015000090EBAE80F0013F0010F18BFFB1A43F0A5
:1001600001031847D8760300F87603000A444FF0DD
:10017000000C10F8013B13F0070408BF10F8014B06
:100180001D1108BF10F8015B641E05D010F8016B4B
:10019000641E01F8016BF9D113F0080F1EBF10F8AF
:1001A000014BAD1C0C1B09D16D1E58BF01F801CBD2
:1001B000FAD505E014F8016B01F8016B6D1EF9D555
:1001C0009142D6D37047000000230024002500266A
:1001D000103A28BF78C1FBD8520728BF30C148BFAA
:1001E0000B607047692907F02382642907F0208299
:1001F000782907F05982732907F0FD8400207047A1
:100200001FB507F092FA1FBD10B510BD07F054FDE1
:100210001146FFF7F5FF00F023F807F072FD03B475
:10022000FFF7F2FF03BC03F04DFC00000B49D1F8CF
:1002300000C04A685CF8043B1068184442F8040B9C
:100240008C4528BFA1F1DC0C8A4228BFA1F1DC0259
:10025000C1F800C04A6020F00040704730A600207E
:1002600003F0E4FB4FF4A06003F080FD4FF4E130B5
:1002700003F032FC00F0D4F801F039FA00F0FAF89B
:1002800003F078F940F2E7344721204603F0F4F90F
:1002900040F2CF21204603F02DFA03F0CDFC0121DE
:1002A000402003F0F1FF042011F092FE0BF0D2FA8F
:1002B00005F05BFFFEE77047FEE7FEE7FEE7FEE7BF
:1002C00070477047704770470CB500224C48009249
:1002D0000192016841F4803101604FF4A06301682C
:1002E00001F4003101910099491C0091019911B963
:1002F00000999942F3D10168890333D50121019115
:1003000040490A6842F010020A600A6822F00302BB
:100310000A600A6842F002020A604168416041686E
:100320004160416841F480614160416821F47C1181
:100330004160416841F4E8114160016841F0807119
:10034000016001688901FCD5416821F00301416029
:10035000416841F0020141604168C1F38101022915
:10036000FAD10CBD01920CBD254810B5016841F0D1
:10037000010101604168244A114041600168234A3B
:1003800011400160016821F480210160416821F47D
:10039000FE0141604FF41F018160FFF795FF1C498A
:1003A0004FF00060086010BD154A10B55068194B39
:1003B00010F00C01184803D0042901D0082901D0FD
:1003C000036012E05168536801F470114FF00204A9
:1003D00013F4803F04EB914102D053689B0301D595
:1003E0000E4B00E00B4B5943016051680A4AC1F3C0
:1003F0000311121D515C0268CA40026010BD00006A
:1004000000100240002002400000FFF8FFFFF6FE4F
:1004100008ED00E000127A000000002000093D0015
:1004200038B50121242003F038FF4FF48074ADF873
:10043000004010208DF8030003200C4D8DF80200C1
:100440006946284603F041FD2146284603F0A7FDF2
:100450000420074CADF800006946204603F035FD46
:100460000421204603F09BFD38BD00000008014038
:100470000014014008B50121442003F00EFF1C20A8
:10048000ADF8000048208DF803006946364803F0B7
:100490001CFD0120ADF8000028208DF803006946FE
:1004A000324803F012FD08BD2DE9F041304C2F4FCA
:1004B0002D4D012608B1267001E02078A0B1102151
:1004C000284603F058FDB0B10821284603F053FD3B
:1004D00088B10421284603F04EFD60B10121384661
:1004E00003F049FD012806D01021284603F043FD02
:1004F000012824D035E00A2003F0C6FA002020703D
:100500001021284603F037FD80B10821284603F06A
:1005100032FD70B10421284603F02DFD58B10121B0
:10052000384603F028FD012807D01AE00120BDE875
:10053000F0810220FBE70320F9E70420F7E7082118
:10054000284603F018FD01280BD10421284603F0AA
:1005500012FD012805D10121384603F00CFD00B938
:1005600026700020E3E70000001801400008014069
:10057000140000204FF48072FE494A614A154A6116
:10058000FD4B18608020486108610A617047F94995
:100590004FF480720A614A154A61F74B1860802057
:1005A000486108610A6170472DE9F047DFF8C89398
:1005B0004FF08830A9F10C09C9F8000009F10405D1
:1005C0002860ED4E00203060EA4CA81520614700FD
:1005D00067614FF04008C4F81480E8488088A0F5AF
:1005E0000941893902D1022003F037FAE248001F9D
:1005F0000068C4F8108080B227614FF03331C9F829
:10060000001029604FF6FF713160BDE8F08710B52A
:100610000C46FFF7AFFFD7484FF4807101614215D8
:100620004261D5490C60802141610161026110BDC8
:1006300010B5FFF79FFFBDE81040B5E7CF48008930
:1006400098E7CC494FF480720A614A154A61CA4B57
:1006500018608020486108610A617047C0F3451145
:10066000C20AC00200EB4110104480B27047401E25
:10067000C0B2FCD270472DE9F34F0446070A00F0E0
:10068000FF090198BD4A060AC5B291881046DFF8F5
:10069000E4A24089A1F513434FF4807B413B1CD079
:1006A000A1F5A643103B18D0134690469A791B88B3
:1006B000A1F5D04C1B1B5B1EBCF1040C3CD0C44606
:1006C000A1F5C858B8F163087DD0A1F5A048B8F5E8
:1006D000A26876D0012A75D062E1FFF74BFF54463D
:1006E000CAF810B04FF4007CCAF814C0DFF8888252
:1006F000C8F800708027CAF81470CAF81070CAF8D9
:1007000010C0CAF810B0CAF814C0C8F80090CAF8EF
:100710001470CAF81070CAF810C098488089FFF7A2
:1007200029FFC4F810B0C4F814C0C8F800606761AD
:100730002761C4F810C027E1012A00D19CB2FFF75D
:1007400019FF5746CAF810B04FF4007CCAF814C01D
:10075000DFF82492210AC9F800104FF08008CAF887
:100760001480CAF81080CAF810C0CAF810B0CAF8CD
:1007700014C0E1B2C9F80010CAF81480C7F810809C
:10078000C7F810C07D488089FFF7F4FEC7F810B0A5
:10079000C7F814C0C9F80060C7F81480C7F8108003
:1007A000C7F810C0C7F810B0C7F814C0C9F8005097
:1007B000C7F81480C7F81080C7F810C0BDE8FC8FD8
:1007C00001E0A2E0EBE0E046F2B3FFF7D3FE5C46C7
:1007D0005046CAF810B04FF40071CAF81410DFF890
:1007E00098C1CCF800708022CAF81420CAF81020F2
:1007F000CAF81010CAF810B0CAF81410CCF800905B
:10080000CAF81420CAF81020CAF81010CAF810400C
:100810004161B8F800305B1E1F12CCF800704261D5
:100820000261016104614161DBB2CCF800304261D8
:10083000026101614446B8F80C00FFF79BFE5F4679
:100840005046CAF810B000E02EE04FF40072CAF82B
:100850001420DFF824C1CCF800608021CAF81410FD
:10086000CAF81010CAF81020CAF810B0CAF814203C
:10087000CCF80050CAF81410CAF81010CAF81020AA
:10088000CAF81070426163885B1E1C12CCF80040ED
:1008900041610161026107614261DBB2CCF8003065
:1008A00041610161026189E79CB2FFF763FE5B462B
:1008B0005046CAF810B04FF40071CAF814102E4F09
:1008C0004FF0000CC7F800C08022CAF81420CAF804
:1008D0001020CAF81010CAF810B0CAF81410C7F8DF
:1008E00000C0CAF81420CAF81020CAF8101003611A
:1008F00041614FEA142CC7F800C0426102610161F6
:1009000003614161E3B23B6091E7FFF733FE544678
:10091000CAF810B04FF4007CCAF814C0DFF8588051
:10092000C8F800708027CAF81470CAF81070CAF8A6
:1009300010C012484089401C80B2FFF71BFEC4F86B
:1009400010B0C4F814C0C8F8009067612761C4F8FB
:1009500010C00A488089FFF70DFEC4F810B0C4F833
:1009600014C0C8F8006067612761C4F810C003486C
:10097000808905E0001001400C0C0140940C00201F
:10098000401C80B2FFF7F6FDC4F810B0C4F814C0E4
:10099000C8F8005067612761C4F810C00EE79CB228
:1009A0002146FFF734FEBCF80C000199BDE8FC4F6E
:1009B0002DE62DE9F84FFB4D2A88824202D96A883C
:1009C0008A4202D80020BDE8F88FFFF754FEF548B0
:1009D00045F2103B8088A0F51341413956D0A0F56F
:1009E000D041043952D0584550D0A0F5C851633990
:1009F0004CD0A0F5AA4110394AD02220FFF7BAFD09
:100A0000E94F4FF08830386007F1040CCCF8000053
:100A1000DFF894A34FF6FF750AF10C0ACAF80050EC
:100A2000E24BB81518614FF40079C3F814904FF0F9
:100A30004008C3F814800220401EC0B2FCD2DA4E37
:100A400008363068C3F8108080B2D6494FF0333E84
:100A50008988A1F5C852633A1DD0C3F814800220DA
:100A6000401EC0B2FCD23068C3F8108080B2A1F53D
:100A70001342413A18D0594516D0A1F5AA42103A6E
:100A800012D0A1F5D042043A1DD022E02E20B5E7C5
:100A90004FF43850B2E7C3F81090C7F800E0CCF834
:100AA00000E0CAF800508EE7C3F814800222521EFC
:100AB000D2B2FCD2326892B20092C3F81080C2B2B5
:100AC00005EA022405E0C3F81480C3F810803068FA
:100AD00080B2C3F81090C7F800E0CCF800E0CAF884
:100AE0000050A1F51342253ADDD0A1F58A42353AEE
:100AF000D9D0121DD7D0A1F50942893AD3D0A1F59A
:100B00003542053ACFD0A1F51342413A08D05945B4
:100B100006D0A1F5AA42103A02D0BDE8F84F9DE5F3
:100B20006FF30A00A10A40EA4111009841EAD0207F
:100B300049E79C488088A0F51341413913D0A0F5BE
:100B4000D04104390FD0A0F5A64110390BD0A0F543
:100B5000C851633907D0A0F5AA41103905D040F239
:100B60007311072053E5292001E04FF4245001E5DB
:100B70008C488088A0F51341413912D0A0F5D041AE
:100B800004390ED0A0F5A64110390AD0A0F5C851FD
:100B9000633906D0A0F5AA41103904D000210720FE
:100BA00035E5282001E04FF42050E3E42DE9F04F33
:100BB0007C4C00262146A279898846F6040341F63A
:100BC0006317012A01D02AB11DE099421BD0B94216
:100BD00002D118E0B94216D1082814D2DFE800F09B
:100BE0000406080A0C0E101206200CE007200AE08A
:100BF000042008E0052006E0012004E0002002E0D7
:100C0000032000E00220A1F5134C45F2103245F21A
:100C10001055BCF1410C07D0994205D0914203D048
:100C2000A94201D0B9427DD1082812D2DFE800F0F4
:100C3000110406080A0C0E1080260AE0402608E07F
:100C4000C02606E0202604E0602602E0A02600E0A0
:100C5000E026A94202D14FF4585000E036209142DC
:100C600005D0A94203D0B94201D046F00806994206
:100C700001D146F002063146FFF7C9FCA088B84210
:100C80000AD0B1062188628802D5914202D303E0DE
:100C9000914201D922806180444EDFF80CA1771582
:100CA0004FF000084FF0800B4FF4807C0AF10C0AE3
:100CB000A8427ED16089FFF75DFCC6F810C077615D
:100CC0004046C146D046CAF800005D46C6F814B09A
:100CD000C6F810B037616089401C80B2FFF74AFC4B
:100CE000C6F810C07761C8F800907561356137614A
:100CF0006089801C80B2FFF73DFCC6F810C07761A8
:100D00002088401E0112C8F80010756135613761F6
:100D10006089C01C80B2FFF72DFCC6F810C0776157
:100D2000207800E09CE0401EC1B2C8F80010756158
:100D300035613761A089FFF71DFCC6F810C07761E7
:100D4000C8F80090756135613761A089401C80B298
:100D5000FFF710FCC6F810C07761C8F80090756105
:100D600035613761A089801C80B2FFF703FCC6F8AB
:100D700010C077616088401E0112C8F800107561CC
:100D800035613761A089C01C80B2FFF7F3FBC6F85C
:100D900010C07761A078401EC1B2C8F8001075611C
:100DA00035615AE0940C0020000C01400010014015
:100DB000FFE7A1466089FFF7DDFBC6F810C0776149
:100DC0005546CAF800805C46C6F814B0C6F810B0A4
:100DD0003761C6F810C07761CAF80080C6F814B051
:100DE000C6F810B03761C6F810C07761B9F80000D6
:100DF000401E01122960C6F814B034613761C6F88C
:100E000010C07761C0B22860746134613761B9F88D
:100E10000C00FFF7AFFBC6F810C07761C5F8008083
:100E2000746134613761C6F810C07761C5F800801D
:100E3000746134613761C6F810C07761B9F8020097
:100E4000401E01122960746134613761C6F810C018
:100E50007761C0B22860746134613761BDE8F08F9A
:100E6000082812D2DFE800F0040608110A0C0E1060
:100E700030260AE0102608E0202606E0382604E0A6
:100E8000282602E0182600E0082646F48051BDE836
:100E9000F04F0320FFF7BBBB00B5FFF7ECFBFFF7FC
:100EA000CDFBFC484FF48071016141154161FA4A64
:100EB000FA4B12881A60802242610261016100BD12
:100EC0002DE9F74F0446F64881B0DFF8C8B38188B2
:100ED0000298DFF8C89300F0FF08050AE0B200901E
:100EE000EF48270AA1F5134240894FF4807A4FF466
:100EF0000076413A18D0DFF8A8C3A1F5A642103A0F
:100F000012D0B2F500723BD06346A1F5C8579A796A
:100F10001B881B1B5B1E633F6CD0A1F5D047043FB1
:100F20007DD0012A7CD0F6E0DFF874C3FFF722FB06
:100F30005C46CBF810A0CBF81460C9F8007080278D
:100F4000CBF81470CBF81070CBF81060CBF810A071
:100F5000CBF814600098C9F80000CBF81470CBF8F7
:100F60001070CBF81060BCF80C00FFF703FBC4F85E
:100F700010A06661C9F8005067612761266130E002
:100F8000FFF7F8FA5C46CBF810A0CBF81460C9F86C
:100F900000708027CBF81470CBF81070CBF810607D
:100FA000BCF80A00401C80B2FFF7E4FAC4F810A0B5
:100FB00066610098C9F80000676127612661BCF886
:100FC0000C00FFF7D7FAC4F810A06661C9F800500A
:100FD000676127612661BCF80C00401C80B2FFF7F6
:100FE000C9FAC4F810A06661C9F80080676127617A
:100FF000266198E002B99CB2FFF7BCFA5F46CBF8D5
:1010000010A0CBF81460200AC9F800004FF0800C43
:10101000CBF814C0CBF810C0CBF8106001E03EE074
:1010200078E0CBF810A0CBF81460E1B2C9F800105A
:10103000CBF814C0CBF810C0CBF81060C7F810A0E4
:101040007E61C9F80000C7F814C0C7F810C03E613F
:10105000C7F810A07E61C9F80010C7F814C0C7F81F
:1010600010C03E618E488089FFF784FAC7F810A04F
:101070007E61C9F80050C7F814C0C7F810C03E61BF
:10108000C7F810A07E61C9F80080C7F814C0C7F87F
:1010900010C03E61C7F810A07E61484629E0012AD1
:1010A00000D19CB2FFF766FA5F46CBF810A0CBF8F0
:1010B0001460210AC9F800104FF0800CCBF814C05E
:1010C000CBF810C0CBF81060CBF810A0CBF81460B0
:1010D000E1B2C9F80010CBF814C0CBF810C0CBF8BF
:1010E00010606F488089FFF745FAC7F810A07E614D
:1010F00048460560C7F814C0C7F810C03E61C7F87D
:1011000010A07E61C9F80080C7F814C0C7F810C0ED
:101110003E6108E09CB22146FFF779FABCF80C006A
:101120000299FFF774FA5846CBF814A0CBF8146074
:101130005B490989C9F800108021CBF81410CBF85D
:101140001010CBF81060CBF810A0CBF81460039B04
:10115000C9F80030CBF81410CBF810100661BDE8C8
:10116000FF8F2DE9F0418446BE20FFF703FA494C7A
:101170004FF48077276165156561DFF820810521CF
:10118000C8F80010802666612661256127616561C7
:1011900060461CF049FC4FF06632424B1CF094FC58
:1011A0001CF0FEFBC8F8000066612661256127611E
:1011B00065610121C8F8001066612661256127611B
:1011C0006561FF21C8F8001066612661256127610D
:1011D00065610020C8F8000066612661256127610D
:1011E0006561C8F80000666126612561BDE8F0818F
:1011F0002DE9F04F2A492A232B24898845F2105AD9
:101200004FF4305B4FF4285E4FF448754FF0F00C0C
:1012100049F241394FF4A07745F210364FF4F0729D
:1012200080B11F484FF00108494580F806800780CB
:10123000A0F802C001D0B14248D12C2505814381DC
:10124000848161E016484FF00008494580F8068027
:10125000A0F800C0478006D0A1F5D04CBCF1040C2A
:1012600001D0B1420CD12C2505814381A1F5D04399
:101270008481043B01D0B1424ED1078042804BE0D3
:10128000514511D1A0F808B0A0F80AE04FF42C5154
:10129000818118E000100140160000200C0C014074
:1012A000940C002066660440A1F5C856633E06D043
:1012B0002221018120214181212181812CE02C21C9
:1012C0000181448183810280458025E0A1F5D04CD5
:1012D000BCF1040C09D051450BD1A0F808B0A0F81E
:1012E0000AE04FF42C53838120E02C2505814481B2
:1012F00009E0A1F5C85CBCF1630C11D02223038185
:101300002123438120238381A1F5D043043B01D0D5
:10131000B14201D102804780BDE8F04F002045E492
:101320004FF02C0CA0F808C04381848105804280D6
:10133000EAE72DE9FF4F044691464844DFF878E498
:10134000401E86B087B2BEF80400E2B2049204EBFD
:101350000902521E1FFA82FC4FEA1C22CE18039289
:101360000CF0FF02761E1FFA86FC02924FEA1C2246
:1013700001920CF0FF020D4600927246A0F5134157
:101380005289B3B24FEA14284FEA152B05F0FF0A31
:10139000413910D0A0F5A64110390CD0A0F5D041AC
:1013A000043908D09EF8061041F6631C0591012906
:1013B00050D160454ED1F1461046FFF7DBF8FF4CA7
:1013C0004FF48076266165156561FD4FC7F8008092
:1013D0004FF0800CC4F814C0C4F810C02561266119
:1013E000656104983860C4F814C0C4F810C0256161
:1013F0002661656103983860C4F814C0C4F810C051
:1014000025612661656102983860C4F814C0C4F88B
:1014100010C02561B9F80C00FFF7ACF826616561D2
:10142000C7F800B0C4F814C0C4F810C02561266124
:101430006561C7F800A0C4F814C0C4F810C02561E5
:101440002661656101983860C4F814C0C4F810C002
:101450002561FDE0D849604509885BD1A1EB090011
:10146000001B1FFA80F8B0B209901046FFF782F80F
:10147000D24C4FF48077276165156561DFF840C372
:101480004FEA1820CCF800008026666126612561AD
:101490002761656108F0FF00CCF8000066612661F5
:1014A00025612761656108EB0900401E0112CCF837
:1014B000001066612661256127616561C0B2CCF8C4
:1014C0000000666126612561BB488089FFF752F8FC
:1014D00027616561CCF800B06661266125612761EE
:1014E0006561CCF800A066612661256127616561B0
:1014F0000998000ACCF80000666126612561276121
:1015000065610998C0B2CCF800006661266125616A
:101510000AB0A3E4A0F5A04CBCF5A26C24D00598B9
:1015200001287CD03E4620462F469C46502201464C
:101530004FF0510A4FF052094FF053081046FFF791
:1015400066F831465046FFF762F839464846FFF7DD
:101550005EF861464046FFF75AF80AB02946204631
:10156000BDE8F04FFFF787B8F1461046FFF702F8E5
:10157000924C4FF48076266165156561904FC7F8EF
:1015800000804FF0800CC4F814C0C4F810C025616E
:10159000B9F80A00401C80B2FEF7ECFF26616561D5
:1015A00004983860C4F814C0C4F810C02561B9F8B4
:1015B0000A00801C80B2FEF7DDFF2661656103989A
:1015C0003860C4F814C0C4F810C02561B9F80A0026
:1015D000C01C80B2FEF7CEFF2661656102983860BC
:1015E000C4F814C0C4F810C02561B9F80C00FEF7A7
:1015F000C1FF26616561C7F800B0C4F814C0C4F823
:1016000010C02561B9F80C00401C80B2FEF7B2FF93
:1016100026616561C7F800A0C4F814C000E020E0AE
:10162000C4F810C02561B9F80C00801C80B2FEF728
:10163000A1FF2661656101983860C4F814C0C4F840
:1016400010C02561B9F80C00C01C80B2FEF792FFF3
:101650002661656100983860C4F814C0C4F810C0F1
:1016600055E7CA1B521E091B491E28461E4697B243
:101670001FFA81FC5AE72DE9F0434F4F064600243C
:1016800038887D884543B888A0F5D041043902D117
:10169000B87901280CD000210846FEF7ECFFFEF7D0
:1016A000CDFF46494FF480774B15454A80201AE01C
:1016B0000020B8714FF02A08A7F80A804FF02B09D4
:1016C000A7F80C900146FEF7D6FF0120B871A7F8E5
:1016D0000A90A7F80C80E2E70F614B611660486141
:1016E00008610B61641CAC42F6D3BDE8F0832DE9C0
:1016F000F84F0121192002F0D0FD0121314802F0FC
:101700006FFC4FF4F864ADF8004010208DF8030032
:1017100003202A4F8DF802006946384602F0D5FBB7
:101720002146384602F03BFC254D4FF6FF7B0C3D31
:101730005C46ADF800B06946284602F0C6FB21467B
:10174000284602F02CFC322002F09EF901210020F4
:10175000FEF75DFF322002F097F90020FEF768FFE8
:10176000154C46F6040845F21039A08045F2105594
:1017700041F6631AFF2804D3584502D0B0F5134F41
:101780007AD1D320FEF7F6FEFEF70EFFFEF70CFF30
:10179000FEF70AFF0BEA00205E46A080FEF704FF7A
:1017A000A1880843A0F51341A080413964D0BF202F
:1017B000FEF7E0FE08E00000940C0020001001405D
:1017C0000C0C014000023000FEF7EEFEFEF7ECFECE
:1017D000FEF7EAFEFEF7E8FE06EA0020A080FEF72C
:1017E000E3FEA1880843A080404545D0D420FEF701
:1017F000C1FEFEF7D9FEFEF7D7FEFEF7D5FE06EADC
:101800000020A080FEF7D0FEA1880843A0804845B4
:1018100032D04FF45A40FEF7ADFEFEF7C5FE4FF44E
:101820005B40FEF7A7FEFEF7BFFE06EA0020A080A1
:101830004FF45C40FEF79EFEFEF7B6FEA18808431B
:10184000A080B0F5004F7DD0A84215D0A120FEF7B2
:1018500091FEFEF7A9FEA080FEF7A6FE06EA002094
:10186000A080FEF7A1FEA1880843A0F5AE41A080AC
:10187000613901D1A4F804A0A188FCA005F05AFEAA
:10188000A088A0F5134141397ED04045FCD04845A1
:10189000FAD0A842F8D01C31F6D0C91EF4D00831D5
:1018A000F2D01139F0D0A0F5A8410839ECD0A0F55C
:1018B000A8510539E8D0B1F52041E5D0B1F5805106
:1018C000E2D0A0F509418939DED0A0F58A4131394D
:1018D000DAD0091FD8D0504556D1E220FEF74AFE93
:1018E0004FF480753D616C007C61DFF890831D21B1
:1018F000C8F8001080267E613E613C613D617C61DC
:101900000220C8F800007E613E613C613D617C615F
:101910000420C8F800007E613E613C61642002F052
:101920009CF8E020FEF726FE3D617C614FF0010946
:10193000C8F800907E613E613C610A2002F0A4F884
:10194000E02000E052E1FEF715FE3D617C614FF0C2
:10195000030AC8F800A07E613E613C610C2002F0E1
:1019600093F80120FEF706FE0A2002F08DF8E6202B
:10197000FEF700FE3D617C612F21C8F800107E61FA
:101980003E613C613D6100E024E17C61FF20C8F8DC
:1019900000007E613E613C613D617C61C8F80000F1
:1019A0007E613E613C61B020FEF7E4FD3D617C61FB
:1019B0002021C8F800107E613E613C613D617C6180
:1019C0004FF0000CC8F800C07E613E613C613D6193
:1019D0007C61C8F800A07E613E613C613D617C6134
:1019E00040F21F31C8F800107E613E613C613D61EC
:1019F0007C61C8F800907E613E613C613D617C6124
:101A000040F2DF11C8F800107E613E613C613D612B
:101A10007C61C8F800C07E613E613C61B420FEF785
:101A2000A9FD3D617C6104214046C8F800107E613B
:101A30003E613C613D617C6140F21F41C8F800108D
:101A40007E613E613C613D617C61C8F800C07E61A1
:101A50003E613C613D617C612E2101607E613E61A1
:101A60003C613D617C61C0F800C07E613E613C61CB
:101A70003D617C61C0F800C07E613E613C613D61BA
:101A80007C61C0F800C07E613E613C613D617C616B
:101A9000C0F800C07E613E613C61B620FEF76AFD81
:101AA0003D617C610220C8F800007E613E613C61BE
:101AB0003D617C614FF403714046C8F800107E61BF
:101AC0003E613C613D617C61C8F800C07E613E6161
:101AD0003C613D617C611721C8F800107E613E6168
:101AE0003C613D617C61152101607E613E613C612C
:101AF0003D617C61C0F800C07E613E613C613D613A
:101B00007C61C0F800C07E613E613C61F020FEF760
:101B100031FD3D617C61C8F800A07E613E613C61A1
:101B20002920FEF727FDD020FEF724FD3D617C61D2
:101B3000C8F800C07E613E613C61BE20FEF71AFD20
:101B40003D617C610521C8F800107E613E613C6109
:101B50003D617C61FE21C8F800107E613E613C6100
:101B60003D617C61C8F800907E613E613C613D61F1
:101B70007C61C8F800C07E613E613C613D617C6172
:101B8000C8F800C07E613E613C613D617C61C8F87F
:101B900000C07E613E613C61B820FEF7EBFC3D6118
:101BA0007C61C8F800A07E613E613C613D617C6162
:101BB000C8F800907E613E613C61BA20FEF7DAFC15
:101BC0003D617C61C8F800907E613E613C613C20D3
:101BD000FFF7C7FA0120FFF70BFB29490120C1F8E5
:101BE000A8015846FFF747FDBDE8F88FA58043E6FA
:101BF0002DE9F84F234D81469846A8880A9EA0F506
:101C0000D043043B02D1A87901280AD0A2EB0900F5
:101C1000401C85B20C461C4F4FF4007A4FF0800BED
:101C200041E02B880846991A0024AC712A24A3EBC2
:101C300009036C812B27491E5B1EAF8189B2424686
:101C40009BB20096FFF7D4FF0120A8716F81AC8191
:101C5000CAE721464846FEF70EFDFEF7EFFC0020DE
:101C60004FF4807C5346054A594618E0204C4344C3
:101C70002049443A25780D0A000000000C0C014070
:101C800000002242940C002000100140C7F810C050
:101C90007B611660796139613B61401C80B2A8426A
:101CA000F4D3641CA4B24445D3D99DE72DE9F04F89
:101CB0008346A2EB0B00401C894685B2A3EB0900CA
:101CC000401C1FFA80FA0024099E21E009EB040061
:101CD00081B25846FEF7CFFCFEF7B0FCF049002079
:101CE0004B154FF48078EF4A80270DE0C1F8108043
:101CF0004B6104FB050C36F81CC0C2F800C04F61F4
:101D00000F610B61401C80B2A842EFD3641CA4B2E7
:101D10005445DBD3BDE8F08F2DE9FE4F0026A2EB42
:101D2000000882465F1A701E35468946B8F1000FDA
:101D300002DD4FF0010102E003D14FF000010191FB
:101D400002E0C8F100080190002F02DD4FF0010011
:101D500002E003D14FF00000009002E0C7F100075D
:101D600000904046B84501DD044600E03C46601C5A
:101D70004FF0000B029015E01FFA89F11FFA8AF06C
:101D8000FFF78AF846443D44A64202DD0199361B1E
:101D90008A44A54202DD00992D1B89440BF1010004
:101DA0001FFA80FB02998B45E6DDBDE8FE8FF0B59A
:101DB0001C4615460E4607460B46FFF7ADFF3A4652
:101DC000234631461046FFF7A7FF23462A46194609
:101DD0003846FFF7A1FF2A4623463146BDE8F040CA
:101DE000104699E72DE9FC4F804600241546032054
:101DF0000F46A0EB450649E0781B81B208EB040AC8
:101E000001901FFA8AF0FFF747F8381B81B208EB00
:101E1000050900901FFA89F0FFF73EF807EB040B65
:101E20001FFA8BF11FFA89F0FFF736F807EB050967
:101E30001FFA89F11FFA8AF0FFF72EF8A8EB040ABF
:101E40001FFA89F11FFA8AF0FFF726F8A8EB0509B7
:101E50001FFA8BF11FFA89F0FFF71EF8019881B283
:101E60001FFA8AF0FFF718F8009881B21FFA89F07C
:101E7000FFF712F8641C002E03DA06EB8406B61D89
:101E800004E0601B06EB80066D1E0A36AC42B3DD33
:101E9000BDE8FC8F2DE9F84F82461F460C468B4665
:101EA000580700D0012000EBD70079084843203ABA
:101EB000C0B202F0FF090026009041E00C2F10D0C4
:101EC000102F12D0182F3ED1774909EBC90001EB32
:101ED00080004FF00008855D28060AD57348028807
:101EE0000BE009EB49007249F1E7724901EB091077
:101EF000EFE70A9828B96D48428821465046FEF718
:101F0000DFFF6806050E6C48641CA4B24088A0423E
:101F100019D9A4EB0B00B84209D10AF101001FFA4C
:101F200080FA65485C46018851450CD906E008F105
:101F3000010000F0FF08B8F1080FCDD3761CF6B20F
:101F400000988642BAD34FE60346012000E058438A
:101F5000491EC9B2FBD270472DE9FF4F81B000275F
:101F6000DDF838B01D46924680463C46B9464FEAF9
:101F70005B0627E0281B401EC1B20A20FFF7E4FFE2
:101F8000BAFBF0F00A21B0FBF1F201FB120027B915
:101F9000691E8C4201DA48B101273030C2B206FB1B
:101FA000048080B25B46CDF8009006E006FB04801A
:101FB00080B25B462022CDF800900299FFF76AFFBD
:101FC000641CE4B2AC42D5D305B0A3E62DE9FF4FC3
:101FD00081B08046DDF83CA00E984FF000091F4606
:101FE00093464C460AF0010546082BE0381B401E7C
:101FF000C1B20A20FFF7A8FFBBFBF0F00A21B0FB3B
:10200000F1F201FB1200B9F1000F05D1791E8C42EB
:1020100002DA48B14FF001093030C2B206FB048049
:1020200080B200950E9B08E05FEA0A6006FB048020
:102030000E9B80B2009508D530220299FFF72AFF47
:10204000641CE4B2BC42D1D3BEE72022F5E72DE9FF
:10205000F84F044600F0FF0810190D46DDE90A7636
:102060001FFA80FA58191FFA80F94FF0000B11E09F
:10207000544502D3E819444685B24D450FD23B463C
:1020800029462046CDF800B0FFF704FF04EB5700C7
:1020900084B2761C3278A2F120005E28E8D9A3E54C
:1020A000001001400C0C0140AAF2010816000020AB
:1020B00046E80108BAEC0108940C002008B501219B
:1020C000102002F0EAF84FF4C050ADF800001020E4
:1020D0008DF8030003208DF8020069467F4801F067
:1020E000F4FE7F480121C0F8B011C0F8AC1108BD62
:1020F00070B57A48416821F470414160416841F40B
:1021000040514160764C0120C4F8AC01C4F8B001E4
:10211000042004F5D67401F0A0FC002525600420FD
:1021200001F09BFC656070BD6C4810B5416821F4FE
:1021300070414160416841F440514160684C002069
:10214000C4F8B001C4F8AC01042004F5D67401F061
:1021500084FC012060602060BDE81040042001F094
:102160007CBC70B55D480024416821F47041416039
:10217000416841F400414160594D0126C5F8AC6108
:10218000304601F06AFCC5F8B061012001F065FC41
:1021900007E0641CE4B2FA2C03D9FFF7C5FF012065
:1021A00070BDD5F82C010028F3D1C5F8B00170BD81
:1021B00070B54B4C0025C4F8B0514848416821F433
:1021C00070414160416841F440514160C4F8AC51F4
:1021D000022004F5D67401F040FC0120606002206A
:1021E00001F03BFC656070BD70B53D4C0026C4F845
:1021F000B0613A48416821F470414160416841F45E
:10220000405141600125C4F8AC51022004F5D67458
:1022100001F023FC6560022001F01FFC666070BDC8
:102220002DE9F04105462D48416821F47041416097
:10223000416841F440514160294E0027C6F8B07111
:102240003C464FF00108E809C6F8AC016806050EE7
:10225000022001F002FCC6F8B081022001F0FDFB73
:10226000C6F8B071022001F0F8FB641CE4B2082C3F
:10227000E9D3BDE8F0812DE9F047814617480024F5
:10228000416821F470414160416841F4004141607E
:10229000134E254627464FF00108C6F8B0710220BC
:1022A00001F0DBFBC6F8B0816006040ED6F82C0105
:1022B00008B1641CE4B2012001F0CFFB6D1CEDB24B
:1022C000082DEAD3B9F1000F04D0FFF771FF2046C3
:1022D000BDE8F087FFF788FFF9E700000010014034
:1022E00000002242FFF7EABE10B50446FFF700FFE8
:1022F000200AA02101EB4000C0B2FFF791FFFFF7D9
:1023000030FFE0B2FFF78CFFFFF72BFFFFF7F0FE87
:10231000A120FFF785FFFFF724FF0020FFF7ABFFA9
:102320000446FFF701FF204610BD70B50D46044678
:10233000FFF7DEFE200AA02101EB4000C0B2FFF74C
:102340006FFFFFF70EFFE0B2FFF76AFFFFF709FF2D
:102350002846FFF765FFFFF704FFFFF7E5FEBDE83E
:1023600070400A2001F090BB2DE9F04116460D4661
:102370000746002409E0E00025FA00F0C1B2381950
:1023800080B2FFF7D2FF641CE4B2B442F3D3BDE8DD
:10239000F0812DE9F0410D460146002004464E191A
:1023A00008E00702301B401E80B2FFF79DFF641C4F
:1023B0003844E4B2AC42F4D3E9E710B5FF20FFF7AC
:1023C00093FF55280AD05521FF20FFF7AEFFFF20CD
:1023D000FFF78AFF552801D0012010BD002010BD55
:1023E00070B515460E46044608E02046641CA4B2AB
:1023F000FFF77AFF6D1E06F8010BADB2002DF4D188
:1024000070BD70B514460D46064606E02978304684
:10241000FFF78BFF761CB6B26D1C641EA4B2F5D21A
:1024200070BD00000A2001F018BB8348816941F0AB
:1024300010018161814801684FF20F0291430160F0
:10244000016843F2030211430160C16841F00201D7
:10245000C160C16841F00801C160704770B577483C
:10246000016821F470410160016841F4405101604C
:10247000734C0120C4F88C01C4F880010A2004F5D3
:10248000C07401F0EAFA0025E5600A2001F0E5FADF
:10249000256070BD70B56948016821F47041016024
:1024A000016841F440510160654C0020C4F880018E
:1024B000C4F88C010A2004F5C07401F0CEFA01259D
:1024C00025600A2001F0C9FAE56070BD70B55B486F
:1024D0000024016821F470410160016841F4004169
:1024E0000160574D0126C5F88C61304601F0B5FA00
:1024F000C5F88061012001F0B0FA07E0641CE4B285
:10250000FA2C03D9FFF7C6FF012070BDD5F80C01E6
:102510000028F3D1C5F8800170BD70B5484C002586
:10252000C4F880514548016821F470410160016898
:1025300041F440510160C4F88C510A2004F5C07484
:1025400001F08BFA012020600A2001F086FA256054
:1025500070BD70B53A4C0026C4F8806137480168F8
:1025600021F470410160016841F44051016001258E
:10257000C4F88C510A2004F5C07401F06EFA25608D
:102580000A2001F06AFA266070BD2DE9F041054687
:102590002A48016821F470410160016841F440510A
:1025A0000160274E0027C6F880713C464FF00108B5
:1025B000E809C6F88C016806050EC6F880810A2075
:1025C00001F04BFAC6F880710A2001F046FA641C4B
:1025D000E4B2082CECD3BDE8F0812DE9F047814648
:1025E00016480024016821F470410160016841F43B
:1025F00000410160124E254627464FF00108C6F8FB
:1026000080711E2001F029FAC6F880816006040E50
:10261000D6F80C0108B1641CE4B26D1CEDB2082DB3
:10262000EDD3B9F1000F04D0FFF777FF2046BDE8E6
:10263000F087FFF78EFFF9E700100240001001401D
:10264000000022422DE9F04115460E4604460027BF
:10265000FFF704FF2820FFF798FFFFF737FF200A56
:10266000FFF793FFFFF732FFE0B2FFF78EFFFFF7B0
:102670002DFF002408E0305DFFF787FFFFF726FFFE
:10268000070003D1641CE4B2AC42F4D3FFF702FFAD
:102690003846BDE8F08108B500218DF800108DF8AE
:1026A0000100AC489DF80020435C491C1A44C9B2A3
:1026B0008DF80020B829F5D3D0B2C043401C8DF866
:1026C0000000B822A34948F24700FFF7BBFF0222EF
:1026D000694648F2FF00FFF7B5FF002008BD2DE96D
:1026E000F04115460F460446FFF7B8FE2820FFF7D5
:1026F0004CFFFFF7EBFE200AFFF747FFFFF7E6FE70
:10270000E0B2FFF742FFFFF7E1FEFFF7A7FE292047
:10271000FFF73BFFFFF7DAFE00246E1E09E0B4422C
:1027200001D0012000E00020FFF757FF3855641C5E
:10273000E4B2AC42F3D3BDE8F041FFF7ABBEFEB567
:102740000121102001F0A9FD42F20200ADF80800BD
:1027500010208DF80B0003207F4E8DF80A0002A98F
:10276000304601F0B2FB0221304601F018FC711432
:10277000304601F014FCFFF758FE784D0024C5F8F0
:10278000B4410A2005F5DA7501F07EF901202860D0
:102790000A2001F079F90225ADF8085028208DF8BB
:1027A0000B0002A9304601F090FB0221304601F0F7
:1027B000F8FB642001F068F90422694648F24010F1
:1027C000FFF78DFF8DF80440694665A004F0B2FE66
:1027D00066A1684605F038F908B10120FEBD8DF804
:1027E000005048F24005012269462846FFF72AFFBB
:1027F00001226946E81DFFF772FF9DF8001060296D
:1028000005D25CA004F096FE0120FFF744FF0A20E9
:1028100001F03AF98DF80040012269462846FFF799
:1028200011FF0020FEBD2DE9F147574E00244FF067
:102830000A09307883B0401CC0B2B0FBF9F209FB42
:102840001201524DA046307009B10A2864D248F2F4
:102850004E1A012203A95046FFF741FF9DF80C00D4
:102860004FF00007010748D000F00F01062944D2BD
:10287000FF2088408DF80400C04340F0C00085F878
:1028800020004FF0010895F8201008FA04F00142EA
:1028900026D030480422B830694630F81400FFF7DB
:1028A0001EFF95F830009DF80110C0079DF800004C
:1028B00000EB012105EB44000AD0C1829DF8021013
:1028C0009DF8032001EB0221C1F54871818107E0E9
:1028D00081819DF802109DF8032001EB0221C18245
:1028E000641CE4B2052CCED3A9894FF0010819B9B4
:1028F000E88A08B98DF80C7037709DF80C00010655
:102900000AD500F00F00062806D28DF804700122C7
:1029100001A95046FFF796FE9DF80C0000F08F00CD
:1029200080280ED195F82000010602D520F0800005
:1029300005E04FF6FF71A981E98200F0E00085F81B
:1029400020003078F02801D986F8009004B0404685
:10295000BDE8F08706000208001001400000224296
:102960004354502049443A25730D0A003931343715
:102970000000000044656661756C74205665723A0B
:1029800025640D0A000000001A0000202400002029
:102990002DE9F04115460E4604460027FFF75EFD7F
:1029A000B220FFF7F2FDFFF791FD200AFFF7EDFDE2
:1029B000FFF78CFDE0B2FFF7E8FDFFF787FD00248D
:1029C00008E0305DFFF7E1FDFFF780FD070003D170
:1029D000641CE4B2AC42F4D3FFF75CFD3846BDE8BA
:1029E000F0812DE9F04115460F460446FFF736FD0C
:1029F000B220FFF7CAFDFFF769FD200AFFF7C5FD0A
:102A0000FFF764FDE0B2FFF7C0FDFFF75FFDFFF7E2
:102A100025FDB320FFF7B9FDFFF758FD00246E1E1A
:102A200009E0B44201D0012000E00020FFF7D5FD0D
:102A30003855641CE4B2AC42F3D3BDE8F041FFF773
:102A400029BD08B500218DF8001010B180208DF847
:102A50000000012269464FF45060FFF799FF08BD5E
:102A60007CB500258DF804500121102001F015FCE3
:102A70000220ADF8000048208DF8030003206F4EBF
:102A80008DF802006946304601F01FFA02213046F7
:102A900001F085FA7414ADF8004010228DF803207F
:102AA0006946304601F011FA2146304601F077FAC6
:102AB000FFF7BBFC624CC4F8B451642004F5DA742F
:102AC00000F0E2FF01202060642000F0DDFF012023
:102AD000FFF7B7FF012201A94FF45060FFF781FF14
:102AE0009DF8041057A004F025FD9DF80400000691
:102AF00001D500207CBD01207CBD2DE9F14F544F54
:102B000000244FF00A08387882B0401CC0B2B0FBF5
:102B1000F8F208FB12014F4E2546387009B10A2819
:102B200071D2012202A90020FFF75BFF9DF8080087
:102B3000C1066CD000F01F0040F0C000DFF818A103
:102B4000DFF818B186F820004FF0010996F8201040
:102B500009FA04F0014249D041480422694630F89C
:102B60001400FFF73EFF96F830009DF80210C007F2
:102B70009DF8030000EB01201ED01AF055FF5246CD
:102B80005B461AF0A1FF1AF00BFF06EB4405E88242
:102B90009DF801009DF8001000EB01201AF044FFA1
:102BA000304A314B1AF090FF0022304B1BF0C0F836
:102BB0001AF0F6FEA88119E01AF036FF52465B467D
:102BC0001AF082FF1AF0ECFE06EB4405A8819DF88E
:102BD00001009DF8001000EB01201AF025FF214AAA
:102BE000214B1AF071FF1AF0DBFEE882641CE4B29C
:102BF000052CABD30125B28900211AB9F08A08B996
:102C00008DF8081039709DF80800C0060ED196F8AE
:102C10002000010602D520F0800005E04FF6FF718C
:102C2000B181F18200F0E00086F820003878F028C9
:102C300001D987F800802846BDE8FE8F00100140CA
:102C4000000022424354502049443A25780D0A009E
:102C50001B000020240000207B14AE47E17AD43F03
:102C6000C8000208D881734694F6D23F000089401C
:102C700030B50021FF4A0B460124050602D5C2F8F3
:102C80008C4101E0C2F88C314006000EC2F8803160
:102C9000C2F88041491CC9B20829EED330BD2DE9E4
:102CA000F0410025F34E2C462F46C6F88051C6F859
:102CB0008C51C6F8B45106F5C076FFF7D9FF06204F
:102CC00000F0CBFE3760012000F0C7FE012131602B
:102CD00037604FF6FF70A6F5C07600EA4404C6F8E8
:102CE0008071C6F88011D6F808210AB1641CA4B21C
:102CF0006D1CEDB2102DF0D32009C6F8B411BDE85B
:102D0000F081FEB5064600246D463046FFF7C7FF4A
:102D100025F81400641CA4B2052CF6D300214C1C29
:102D2000A0B20BE035F8113035F81020934203D9EA
:102D300025F8112025F81030401C80B20528F1D369
:102D4000A1B20429EBD30021012035F81020401C4A
:102D5000114480B289B20428F7D30320B1FBF0F00C
:102D6000FEBD2DE9F041C44F06460D463878FFF709
:102D7000C8FF04467878FFF7C4FF3480288001201C
:102D8000BDE770B586B00C460546694604A8FFF756
:102D9000E8FF00282FD001A903A8FFF7E2FF0028D1
:102DA00029D0BDF80C30BDF81020934203D803F1B0
:102DB0003200824205D39A421FD802F13200834288
:102DC0001BD2BDF80410BDF80000814203D801F108
:102DD0003206B04204D388420FD8323081420CD23E
:102DE000D01840082880BDF80000BDF80410084441
:102DF00040082080012006B070BD0020FBE72DE9CF
:102E0000F04104469D480D460B46028004F10D003A
:102E100082B2193880B2FEF77FFF05F10D0083B250
:102E2000193881B222461046FEF776FF6E1C04F177
:102E30000108B1B21FFA88F0FEF72EF8B1B2661E93
:102E4000B0B2FEF729F86F1EB9B21FFA88F0FEF78C
:102E500023F8B9B2B0B2FEF71FF829462046BDE804
:102E6000F0410622FEF7BEBF70B5064683480C4609
:102E700002803046FEF710F8751CA8B22146FEF716
:102E80000BF8641CA1B23046FEF706F8A1B2A8B256
:102E9000BDE87040FEF700B870B57649D1F804116E
:102EA000754C083441B194F82000010641D520F05A
:102EB000800084F8200043E002006F4800F1080021
:102EC00000F1160100F10C0002D0FFF75AFF24E0D8
:102ED000FFF757FF08B3B4F92C001BF0D7FA0546EB
:102EE000A0891BF0EBFA616A1BF0FCFA29461BF083
:102EF00027F91BF0ABFAA081B4F92E001BF0C6FA3B
:102F00000546E08A1BF0DAFAA16A1BF0EBFA2946C3
:102F10001BF016F91BF09AFAE08294F820000006E4
:102F20000ED4C02084F82000A089A082E08AE0832B
:102F300006E00020A082E0834FF6FF70A081E082CF
:102F400094F8200000F0800070BD70B54A4C4C4DE4
:102F500008342946606A1BF0C5FA1BF05BFA01468B
:102F600004222820FFF700FA2946A06A1BF0BAFACB
:102F70001BF050FA014604222C20FFF7F5F9B4F9B2
:102F80002C1002223020FFF7EFF9B4F92E100222A4
:102F90003220FFF7E9F994F830103420FFF7C5F933
:102FA000BDE870400A213520FFF7BFB970B5352064
:102FB000FFF79AF90A2801D0002070BD04212820CB
:102FC000FFF7E7F91BF062FA2D4D29461BF02CF9AB
:102FD000294C0421083460622C20FFF7DAF91BF039
:102FE00055FA29461BF020F9A06202213020FFF794
:102FF000D0F9A08502213220FFF7CBF9E0853420FB
:10300000FFF772F990221C4984F83000D02310B1E8
:103010000A704B7001E00B704A70012070BD2DE901
:10302000FF4F83B00E46DDE910A8144907464FF460
:103030007840DDF85090088012A01025CDE90050AE
:10304000114C9346A021638822882820FEF7FFFFB9
:103050000EA0CDE9005063882288A0217820FEF7D9
:10306000F6FF0BA0CDE90050B42163882288282008
:1030700010E00000000022421C000020160000208A
:1030800020BCBE4C78313A00940C002079313A00D3
:1030900078323A00FEF7DBFFFEA0CDE900506388EE
:1030A0002288B4217820FEF7D2FFFBA0CDE90050A2
:1030B00063882288C8212820FEF7C9FFF7A0CDE940
:1030C000005063882288C8217820FEF7C0FFF4A052
:1030D000CDE9005063882288DC212820FEF7B7FF65
:1030E000F0A0CDE9005063882288DC217820FEF72B
:1030F000AEFFEDA0CDE9005063882288F0212820A2
:10310000FEF7A5FF04233A46A02140200095FEF7D4
:1031100023FF04233246A02190200095FEF71CFFD8
:1031200004235A46B42140200095FEF715FF0423DE
:103130000095B4219020069AFEF70EFF0423524614
:10314000C82140200095FEF707FF04234246C8210E
:1031500090200095FEF700FF04230095DC2140201D
:10316000129AFEF7F9FE04230095DC219020139AB1
:10317000FEF7F2FE0095218803234A466020FEF701
:10318000EBFE07B0BDE8F08F2DE9F04F002489B0C9
:1031900025464FF6FF70FEF76EFAC5491F206423DF
:1031A0000880C448A02241681020CDE900012821F0
:1031B0000846FEF74CFF14214FF478420846FFF70B
:1031C0001EFEBC4800210830DFF8EC9280F8201089
:1031D0004162B84E083601207168884796F8200091
:1031E0000121B1EB901F4AD120F0400086F8200069
:1031F00005A8B28920F8242000EB8402641C002575
:10320000F18AE4B25180012C06D0022C12D0032C9A
:1032100021D0042C33D13EE014214FF6FF72084632
:10322000FFF7EDFDB9F800004FF47842143880B292
:10323000142122E0B9F800004E46143880B24FF64F
:10324000FF721421FFF7DBFD70884FF478421438C9
:1032500081B2142011E0B9F802004E46143881B250
:103260004FF6FF721420FFF7CAFD70884FF47842C2
:10327000143881B23088143880B2FFF7C0FD0A20BC
:1032800000F002FC6D1CADB2B5F57A7FA1D9FFF755
:103290008DFE09B076E70024834688485F4600EB40
:1032A000840610F8242070783BF822103BF8203078
:1032B000C91A00D5494207EB820207EB8000528809
:1032C0004088101A00D540424943404308441AF050
:1032D000ABFB1AF0D1F81AF063FBB178F2781FFA61
:1032E00080F837F8210037F82230C01A00D5404264
:1032F00007EB810107EB820249885288891A00D5C1
:103300004942404301FB01001AF08EFB1AF0B4F869
:103310001AF046FB87B238461BF0D0F80646404606
:103320001BF0CCF831461AF07FFF6549064688420B
:103330007EDD644886427BDCB8F1000F78D0002F38
:1033400076D0641CE4B2032CA7D3BDF81800BDF8F6
:10335000141080460E46401A1BF098F8B9F8007019
:103360000446A7F128001BF091F821461AF05CFFF3
:10337000504C82460834606208EB06001BF09EF851
:1033800051461BF0AFF8064638461BF097F8314619
:103390001BF074F94FF0FF311BF017FA1BF03AF8ED
:1033A000A085BDF81E00BDF816108346401A019195
:1033B0001BF06CF8B9F802608046A6F128001BF0FB
:1033C00065F841461AF030FFA062019980460090EE
:1033D0000BEB01001BF072F841461BF083F88046AE
:1033E00030461BF06BF841461BF048F94FF0FF31B7
:1033F0001BF0EBF91BF00EF8E08550461BF00AF8C5
:10340000002800DA4042022807DC00981BF002F88E
:10341000002800DA404202287EDD143E143F0024DA
:10342000C846B1B2B8B24FF6FF72FFF7E8FC00E051
:103430001FE014214FF478420846FFF7E0FC22A178
:103440001020CDE90001B8F80230B8F800201A21A8
:103450002820FEF7FCFD1749083191F83000E8B349
:10346000002081F83000D0B3124890210170D021A3
:1034700060E0B9F80210B9F80000143914380024DB
:1034800089B280B24FF6FF72FFF7B9FC4FF4784271
:10349000142125E079323A0078333A0079333A0042
:1034A00078343A0079343A006661632069733A00EF
:1034B000160000201C000020940C0020D2000208FE
:1034C0003333733F6666863F5450204E65656420F3
:1034D000726561646A7573742100000024E025E060
:1034E0000846FFF78CFC564930461AF0FBFF1AF0ED
:1034F000ADFF80B2BDF82210BDF82030BDF81E200F
:10350000CDE90310CDE90123BDF81C000090BDF802
:103510001A30BDF8182000E00EE0BDF81610BDF816
:103520001400FFF77CFD54E601209AE74548D021BE
:103530000170902141704CE643491F204FF6FF7403
:1035400008802046FEF797F840A11020CDE9000141
:10355000B9F80230B9F800206E212320FEF777FD7C
:103560004FF47A7000F090FAFFF7EFFC2046FEF778
:1035700082F88EE638B53B4D324CA8880834A0F569
:10358000AA4110392DD0A0F5C85163393CD0012192
:10359000112000F082FE42F20900ADF80000102078
:1035A0008DF803000320304C8DF802006946204658
:1035B00000F08BFC0621ADF8001048218DF80310B7
:1035C0006946204600F081FC1E491E31A1F10A0027
:1035D000FFF7C7FBFEF786FEFFF7E8FC18B30020F5
:1035E00038BDFFF7ACF868B1FFF73AFA1F486060E2
:1035F00014F8300FA97940F0800001F00101084370
:103600002070ECE71A48F2E700F005F9194860600D
:1036100094F83000A97940F0800001F001010843DE
:1036200084F83000DBE74FF6FF70FEF724F8FFF771
:10363000ABFDFFF78AFCFFF7B9FC012038BD0000A5
:103640000000C8421C00002016000020546F756363
:10365000682053637265656E2041646A75737420D7
:103660004F4B2100940C002000100140FB2A000861
:1036700027280008E73800087FB50C4605460121D9
:10368000022000F013FEADF80040ADF80450002415
:10369000364DADF80240ADF806406946284600F0C8
:1036A000E3FE01221146284601F09BF91D218DF809
:1036B0000C108DF80D4003208DF80E0001208DF8C0
:1036C0000F0003A800F057FB0121284601F074F910
:1036D0007FBD10B5254C0121204601F096FB18B1A5
:1036E00023490A68521C0A602046BDE810400121A7
:1036F00001F097BB7FB50D4604460121102000F074
:10370000D5FDADF804400021ADF80050194CADF8DE
:103710000210ADF806106946204600F0A5FE012211
:103720004121204601F05DF936208DF80C00012181
:103730008DF80D1003228DF80E208DF80F1003A8C0
:1037400000F019FB0121204601F036F97FBD10B5CC
:10375000084C0121204601F058FB08B109F0BAF8E5
:103760002046BDE81040012101F05BBB0004004091
:103770008C000020001000402DE9F04115460E4657
:1037800004460027FEF76AFE7020FEF7FEFEFEF7F5
:103790009DFEE0B2FEF7F9FEFEF798FE002408E079
:1037A000305DFEF7F2FEFEF791FE070003D1641CC8
:1037B000E4B2AC42F4D3FEF76DFE3846BDE8F081CA
:1037C0002DE9F04115460F460446FEF747FE7020EE
:1037D000FEF7DBFEFEF77AFEE0B2FEF7D6FEFEF75E
:1037E00075FEFEF73BFE7120FEF7CFFEFEF76EFE84
:1037F00000246E1E09E0B44201D0012000E0002048
:10380000FEF7EBFE3855641CE4B2AC42F3D3BDE8DE
:10381000F041FEF73FBE7CB50121102000F03DFDD8
:103820004FF40054ADF8044010208DF80700032039
:10383000764D8DF8060001A9284600F046FB21468A
:10384000284600F0ACFB0221ADF8041048218DF8A9
:10385000071001A9284600F038FB0221284600F095
:103860009EFBFEF7E2FD6A4D0024C5F8B44114202A
:1038700005F5DA7500F008F901202860322000F023
:1038800003F98DF80040012269460020FFF774FF1C
:1038900001226946A420FFF76FFF16208DF8000073
:1038A000012269468020FFF767FF0C208DF8000099
:1038B000012269468820FFF75FFF02226946A120A6
:1038C000FFF77EFF9DF80000302803D19DF801002E
:1038D000032801D001207CBD43F203014DA003F079
:1038E00029FE00207CBD2DE9F1434D4F00244FF00F
:1038F0000A09387882B0401CC0B2B0FBF9F209FB6B
:103900001201484DA046387009B10A2863D201223D
:1039100002A90220FFF754FF9DF8080001075AD0C2
:1039200000F00F00062856D2FF218140C84340F026
:10393000C00085F820004FF00108002695F82010FF
:1039400008FA04F0014239D037480422694630F8B9
:103950001400FFF735FF95F830009DF80010C00700
:103960009DF8010001F00F010ED000EB012105EBE5
:103970004400C1829DF802209DF8031002F00F025E
:1039800001EB022181810FE000EB0120C0F5F07115
:1039900005EB440081819DF802209DF8031002F0A0
:1039A0000F0201EB0221C1829DF800000821B1EB5A
:1039B000101F03D005EB4400C6828681641CE4B26C
:1039C000052CBBD3A9894FF0010819B9E88A08B9B9
:1039D0008DF808603E709DF80800C0060ED195F87D
:1039E0002000010602D520F0800005E04FF6FF71AF
:1039F000A981E98200F0E00085F820003878F028FD
:103A000001D987F800904046BDE8FE8300100140D0
:103A1000000022424354502049443A25780D0A00C0
:103A20005800002024000020DE00020810B56FF0CE
:103A3000040000F0E0F9204820490068B0FBF1F0F4
:103A40001F49C0B200EB40020870C2EBC0104FF635
:103A5000FF7202EAC000488010BD19490978484346
:103A60004FF0E021486100238B61086940F00100BC
:103A700008610869C20701D0C003FAD5086920F0BF
:103A8000010008618B6170470D49498848434FF038
:103A9000E021486100238B61086940F00100086162
:103AA0000869C20701D0C003FAD5086920F00100F7
:103AB00008618B61704700000000002000127A004E
:103AC0005A000020704741490A885206FCD53F4AF7
:103AD000C1B2121D11807047F0B5064687B00121B2
:103AE00044F2040000F0D9FB384D284601F09CF95F
:103AF0006815ADF8100003248DF812401820344FDB
:103B00008DF8130004A9384600F0DFF92815ADF848
:103B1000100004208DF8130004A9384600F0D5F9F0
:103B200025208DF814008DF815408DF816400120E1
:103B30008DF8170005A800F01EF90021ADF8081057
:103B4000ADF804100C20ADF80610ADF80C10ADF86F
:103B50000A0000966946284601F096F9012240F2D3
:103B60002551284601F00DFA0121284601F0FFF900
:103B700007B0F0BD70B5154C40F22551204601F05C
:103B8000B7FA00280ED0204601F04BFA114AC1B214
:103B90001088030406D444044FF0000306D50A2914
:103BA00001D0138070BD40F400400DE00D2909D014
:103BB000C0F30D04084D401C80B229551080C72861
:103BC000EFD870BD40F48040108070BD00380140D7
:103BD000000801405E000020A20C00200948804738
:103BE00009480047FEE7FEE7FEE7FEE7FEE7FEE7DF
:103BF000FEE7FEE7FEE7FEE704480549054A064BF7
:103C000070470000690300083101000898A60020F1
:103C100098B0002098A8002098A8002003E011F890
:103C2000013B00F8013B521EF9D2704701E000F859
:103C3000011B521EFBD2704710B54B4C4FF40C6267
:103C40000021E068FFF7F2FF4FF40C420021A0686A
:103C5000FFF7ECFF0120207410BD434A10B500218E
:103C6000D26808464FF48C6332F8104004B1491C06
:103C7000401C9842F8D364204143B1FBF3F0C0B23A
:103C800010BD70B5384D06460024287C08B9286858
:103C900080474FF0FF33F6B1C6F34F11F00601D065
:103CA000491C89B2EA6840F25F4032F8106026B1E0
:103CB00000248C420DD1002207E0641CA4B2F8E776
:103CC000EB688418521C23F814108A42F8D3400180
:103CD00070BD401EE9D5184670BD70B5224B197CE9
:103CE00049B1B0F50C4F13D24109D86830F81140F2
:103CF0000020024608E018688047012070BDDD689A
:103D00000E18401C25F81620A042F8DB002070BDDC
:103D1000022070BD002803D013498968401ADCE7EF
:103D2000704710B5FFF7ADFF411C03D00E498968FD
:103D3000084410BD002010BD2DE9F04107460E4695
:103D40000846FFF79EFF0446401C0BD0064D324646
:103D50003946A8682044FFF761FF3846FFF7DAFFCD
:103D6000A8682044BDE8F081640000202849084389
:103D700028490860704730B50F23C27801780125C3
:103D8000F2B1244A126801F1E02102F4E062C2F5C6
:103D9000E062120AC2F10404D3404278A24084785F
:103DA0001C401443220181F80024007800F01F0118
:103DB0008D404009800000F1E020C0F8005130BD86
:103DC00001F01F0085404809800000F1E020C0F8A4
:103DD000805130BD104A114001430E48001F016060
:103DE00070470C4A121D0029116801D0014300E000
:103DF0008143116070474FF0E0210428086903D027
:103E000020F004000861704740F00400FAE7000069
:103E10000000FA050CED00E080FFFF1F8F4910B590
:103E2000884206D10121042000F049FA0021042033
:103E30003BE08B49884206D10121082000F03FFA7F
:103E40000021082031E08749884206D10121102055
:103E500000F035FA0021102027E08349884206D17E
:103E60000121202000F02BFA002120201DE07F49B5
:103E7000884206D10121402000F021FA0021402093
:103E800013E07B49884206D10121802000F017FA17
:103E90000021802009E0774988420AD18415012158
:103EA000204600F00CFA00212046BDE8104000F04A
:103EB00006BA10BD10B50121084600F000FA002135
:103EC000BDE81040012000F0FAB9F0B5CC7800222E
:103ED00004F00F03E40601D58C7823430C784FF0EF
:103EE0000F0C14F0FF0F4FF0010E1BD005680E8869
:103EF0000EFA02F42640A64210D196000CFA06F7FC
:103F000025EA070703FA06F5CE783D43282E02D0AE
:103F1000482E02D002E0446100E00461521C082AED
:103F2000E5D305600A88FF2A1CD94468002202F103
:103F300008060EFA06F50E882E40AE420ED1960007
:103F40000CFA06F7BC4303FA06F7CE783C43282E5A
:103F500000D14561CE78482E00D10561521C082A57
:103F6000E5D34460F0BD4FF6FF71018002218170FE
:103F70000421C17070470246002092680A4200D0B6
:103F800001207047806880B2704702460020D268E6
:103F90000A4200D001207047C06880B270470161BA
:103FA0007047416170470AB10161704741617047D4
:103FB000C160704741F480328261816182618169B0
:103FC000806970472C4B10B51A684FF680742240F8
:103FD00042EA00100843186010BD2849C8617047C4
:103FE000F0B5254C002801DAE36900E06368450D6F
:103FF0002E0185B2C0F30157B540C0F30342032F31
:1040000005D0C6020AD503269640B34307E023F045
:104010007062636823F07063636002E0AB4343F057
:10402000706201B12A43002801DAE261F0BD6260EA
:10403000F0BD10B58A0721F003040F49120F214487
:104040000F238C6893409C438C608B6890400343A3
:104050008B6010BD0949C1F8DC00704700080140C1
:10406000000C014000100140001401400018014004
:10407000001C0140002001400000014000002042DF
:10408000A548016841F0010101604168A34A11405F
:1040900041600168A24A11400160016821F4802159
:1040A0000160416821F4FE0141604FF41F0181600D
:1040B000704799490A6822F480320A600A6822F43B
:1040C00080220A60B0F5803F07D0B0F5802F03D181
:1040D000086840F4A02008607047086840F4803009
:1040E000F9E70346002059098B4A01290AD0022921
:1040F0000AD0516A03F01F02012393400B4200D003
:10410000012070471168F5E7116AF3E718B5002040
:104110004FF4A06400903120FFF7E3FF0099491CA1
:104120000091A14201D00028F5D03120FFF7D9FF3E
:10413000002800D0012018BD774A116821F0F8014D
:1041400041EAC00010607047764908607047724BC2
:104150005A68084322F47C12104358607047714932
:10416000086670476C4A516821F0030101435160B1
:1041700070476948406800F00C007047664A516813
:1041800021F0F001014351607047634A516821F406
:10419000E0610143516070475F4A516821F460510A
:1041A00041EAC000506070475B4A0029517A01D053
:1041B000014300E08143517270475A49C1F8D80069
:1041C0007047554A516821F440410143516070479E
:1041D0005149002281F8202081F82020012802D0B6
:1041E000042802D1052081F8200070474E4908605C
:1041F000704749490A6A02430A6270474A4944398A
:104200000860704730B5444A5168484B11F00C01C2
:1042100003D0042901D0082901D0036012E05168BD
:10422000536801F470114FF0020413F4803F04EB63
:10423000914102D053689B0301D53D4B00E03B4BBD
:104240005943016051680F2303EA1111394B5C5C3B
:104250000168E14041605468072505EA14241C5DAB
:1042600021FA04F48460546805EAD4241B5DD94023
:10427000C1605268032303EA92322E4B1B1F9A5CE3
:10428000B1FBF2F1016130BD234A0029516901D02F
:10429000014300E08143516170471F4A0029916941
:1042A00001D0014300E08143916170471A4A00291F
:1042B000D16901D0014300E08143D1617047164AC2
:1042C0000029D16801D0014300E08143D1607047EB
:1042D000114A0029116901D0014300E081431161B5
:1042E000704711494039086070470E49C8647047EB
:1042F0000949C87170470848416A41F080714162BC
:104300007047054A0146002092680A4200D0012009
:104310007047014988727047001002400000FFF8A2
:10432000FFFFF6FE000042428004424200127A0083
:1043300000093D007C000020F94910B5884202D1F7
:104340000121C41486E0B0F1804F09D0F5498842BC
:104350000DD101210220FFF7BBFF0021022064E004
:1043600001210846FFF7B4FF002101205DE0EE497E
:10437000884206D101210420FFF7AAFF0021042072
:1043800053E0EA49884206D101210820FFF7A0FF47
:104390000021082049E0E649884206D10121102089
:1043A000FFF796FF002110203FE0E249884206D146
:1043B00001212020FFF78CFF0021202035E0DE497D
:1043C000884202D10121441444E0DC49884202D1F0
:1043D0000121CC043EE0DA49884202D101210C05DA
:1043E00038E0D849884202D101214C0532E0D64953
:1043F000884206D101214020FFF76AFF00214020BA
:1044000013E0D249884206D101218020FFF760FFE6
:104410000021802009E0CE4988420AD1841501217B
:104420002046FFF755FF00212046BDE81040FFF76A
:104430004FBFC849884202D101210C040AE0C64995
:10444000884202D101214C0404E0C44988420AD1C7
:1044500001218C042046FFF732FF2046BDE81040C2
:104460000021FFF72CBF10BD30B50288AC4CB24D17
:10447000A0420DD0A8420BD0B0F1804F08D0A94B7C
:10448000984205D0A84B984202D0A84B984203D13D
:1044900022F070034A881A43A54B984206D0A54BD8
:1044A000984203D022F44073CA881A4302808A8853
:1044B00082850A880285A0420AD0A84208D0A54A6F
:1044C000904205D0A44A904202D0A44A904201D121
:1044D000097A01860121818230BD30B5028C22F03B
:1044E00001020284028C8388048B22F0020224F0F1
:1044F00073050C882C430D8915434A882A43884D3F
:10450000A8420BD08C4DA84208D0924DA84205D0AD
:10451000914DA84202D0914DA8420DD122F008053C
:104520004A8923F440732A4322F004058A882A43E7
:104530008D891D43CB892B4383800483C988818661
:10454000028430BD70B5028C22F010020284028C0D
:104550008388048B0D8824F4E6464FF6FF7404EA42
:10456000052535430E8922F0200204EA061616437B
:104570004A8804EA02123243694EB04202D06E4EBB
:10458000B04215D122F080064A8923F4406304EA40
:104590000212324322F040068A8804EA02123243B1
:1045A0008E8904EA86061E43CB8904EA83033343DB
:1045B00083800583C9880187028470BD70B5028C31
:1045C00022F480720284028C8388848B0D8824F00C
:1045D000730425430E894FF6FF7422F4007204EA37
:1045E000062616434A8804EA022232434C4EB04261
:1045F00002D0514EB04215D122F400664A8923F40C
:10460000405304EA0222324322F480668A8804EA94
:10461000022232438E8904EA06161E43CB8904EA3D
:104620000313334383808583C9888187028470BDE7
:1046300070B5028C22F480520284058C8288838BB0
:104640000C8823F4E6464FF6FF7303EA0424344350
:1046500025F400560D8903EA053535434E8803EAF3
:1046600006362E432E4DA84202D0334DA84205D126
:1046700022F480458A8903EA82122A438280848355
:10468000C988A0F84010068470BD828B22F4406275
:104690008283828B4FF6FF7303EA01210A438283F0
:1046A0007047828B22F00C028283828B0A438283C2
:1046B0007047028B22F440620283028B4FF6FF7335
:1046C00003EA01210A4302837047F0B5048C24F009
:1046D00010040484078B048C4FF6FF7527F473478E
:1046E00005EA03333B4305EA02221A430C4B05EA71
:1046F000011698420ED0104B98420BD0B0F1804F6B
:1047000008D0084B984205D0074B984202D0074B7F
:10471000984225D124F02001314341F0100124E0DA
:10472000002C01400004004000080040000C004044
:10473000001000400014004000340140004C0140D3
:10474000005001400054014000180040001C00408F
:10475000002000400040014000440140004801406A
:1047600024F0A0030B4343F0100102830184F0BD49
:10477000028B22F00C020283028B0A4302837047F1
:1047800070B5048C24F001040484058B048C4FF66E
:10479000FF7606EA0313134325F0F305F84A2B438B
:1047A00090420ED0F74A90420BD0B0F1804F08D023
:1047B000F54A904205D0F54A904202D0F44A904220
:1047C00002D124F0020201E024F00A020A4342F07E
:1047D00001010383018470BD2DE9F84F0D460446A5
:1047E0000888E74FDFF89CC3DFF89C83DFF89C93D1
:1047F0004988AA882B894FF0804A48B304282FD0D3
:104800004FF6FF760828934632D0208C9E4620F43F
:1048100080502084A38B208C06EA0132009223F47E
:10482000734306EA0B221A4306EA0E331343BC42D3
:104830000AD0644508D0544506D0444504D04C45C0
:1048400002D0D34A944242D120F40050009940E073
:104850002046FFF795FFE9882046BDE8F84F87E737
:104860002046FFF732FFE9882046BDE8F84F20E7F1
:10487000208C20F480702084B4F81CE0208C06EAA0
:10488000031306EA01222EF0F30E43EA0B0343EA78
:104890000E030092BC420AD0644508D0544506D0AD
:1048A000444504D04C4502D0B94A944203D120F487
:1048B0000070009901E020F42060084340F480700B
:1048C000A3832084E9882046BDE8F84FE9E620F478
:1048D0000240084340F48050A3832084E9882046A6
:1048E000BDE8F84FD1E62DE9F0410C460026498895
:1048F0000746012501B90226A288012A00D1022516
:10490000208823890028384610D0FFF7DEFEE18892
:104910003846FFF7CEFE23892A4631463846FFF750
:104920002FFFE1883846BDE8F04121E7FFF728FF77
:10493000E1883846FFF71CFF23892A46314638466E
:10494000FFF7C3FEE1883846BDE8F041B1E610B597
:104950000A884B88CC881A438B8823431A430B89D7
:104960001A434B8989891A430A43A0F8442010BD91
:104970004FF6FF71818000210180C180418001726A
:1049800070470021018041808180C1800181418187
:104990008181C18170470021018041800122828094
:1049A000C180018170470021018041808180C180E8
:1049B00001814181818170470029018802D041F045
:1049C000010101E021F0010101807047002930F868
:1049D000441F02D041F4004101E0C1F30E01018007
:1049E0007047002A828901D00A4300E08A4382810D
:1049F0007047818270471143A0F848107047002A21
:104A0000828901D00A4300E08A438281704701898C
:104A100021F0070101817047028922F070020A43E8
:104A20000281704700B50346FFF7F6FF188940F092
:104A30000700188100BD70B516460D466029044672
:104A40004FF0010231460AD0FFF79AFE2946204670
:104A5000FFF7E2FF208940F00700208170BDFFF7DB
:104A600034FEF3E730B504894FF6FF7505EA0323FA
:104A70001343E4B20B432343038130BD10B5044616
:104A8000FFF7F0FF208940F07700208110BD10B5BE
:104A90000446FFF7E7FF208940F48040208110BDE5
:104AA000018582827047028822F070020A430280E8
:104AB000704770B50589048B068C25F007050D43FA
:104AC0004FF6FC410C4040F201110C434FF6FF71D0
:104AD00001EA031126F022061143314305810483C4
:104AE000018470BD028B22F070020A43028370477A
:104AF000028B4FF6FF7322F4E04203EA01211143D7
:104B000001837047828B22F070020A4382837047D0
:104B1000828B4FF6FF7322F4E04203EA0121114336
:104B2000818370470029018802D041F0800101E0B3
:104B300021F08001018070470029818802D041F076
:104B4000040101E021F0040181807047002981887F
:104B500002D041F0080101E021F008018180704796
:104B60000029818802D041F0010101E021F001011A
:104B700081807047028B22F008020A43028370474B
:104B8000002C0140003401400004004000080040B7
:104B9000000C0040028B4FF6FF7322F4006203EA20
:104BA000012111430183EAE7828B22F008020A43C4
:104BB0008283E4E7828B4FF6FF7322F4006203EAFC
:104BC000012111438183DAE7028B22F004020A43B8
:104BD0000283D4E7028B4FF6FF7322F4806203EA6C
:104BE000012111430183CAE7828B22F004020A43A8
:104BF0008283C4E7828B4FF6FF7322F4806203EA5C
:104C0000012111438183BAE7028B22F080020A431B
:104C10000283B4E7028B4FF6FF73C2F30E0203EA7E
:104C2000012111430183AAE7828B22F080020A430B
:104C30008283A4E7828B4FF6FF73C2F30E0203EA6E
:104C40000121114381839AE7028C22F002020A4378
:104C5000028494E7028C22F008020A4302848EE761
:104C6000028C4FF6FF7322F0200203EA0111114378
:104C7000018484E7028C4FF6FF7322F0800203EA7E
:104C80000111114301847AE7028C4FF6FF7322F47D
:104C9000007203EA01211143018470E7028C4FF690
:104CA000FF7322F4006203EA01211143018466E7E5
:104CB000028C4FF6FF7322F4005203EA01311143D4
:104CC00001845CE710B50123048C8B409C43048471
:104CD000038C8A401343038410BD10B50423048C55
:104CE0008B409C430484038C8A401343038410BD8F
:104CF00030B50124058C00F118038C40A5430584D0
:104D000089B108290FD0091FC1F34E00184401686A
:104D100021F4E041016001684FF6FF7303EA0222CB
:104D20001143016030BD03EB5100016821F07001B7
:104D300001600168F4E70029018802D041F0020116
:104D400001E021F00201018019E70029018802D069
:104D500041F0040101E021F0040101800FE7002986
:104D6000818802D041F0800101E021F08001818042
:104D700005E7028822F00802028002880A430280C6
:104D8000FDE6828822F07002828082880A43828057
:104D9000F5E6028922F00702028102890A430281B4
:104DA000EDE6028922F08002028102890A43028133
:104DB000E5E68184E3E68185E1E68186DFE6018739
:104DC000DDE68187DBE6A0F84010D8E6028822F411
:104DD0004072028002880A430280D0E6808ECEE6CE
:104DE000008FCCE6808FCAE6B0F84000C7E6808C22
:104DF000C5E6008DC3E602460020128A0A4200D0B2
:104E00000120BCE6C9430182B9E602460020138AAC
:104E100092890B4202EA010202D0002A00D001204E
:104E2000ADE6C9430182AAE6C44910B588420AD159
:104E300001218C032046FFF742FA2046BDE81040CE
:104E40000021FFF73CBABE49884202D101214C043F
:104E500010E0BC49884202D101218C040AE0BA4921
:104E6000884202D10121CC0404E0B84988420AD129
:104E700001210C052046FFF72BFA2046BDE8104023
:104E80000021FFF725BA10BD30B50446008A85B071
:104E90000D464CF6FF710840E98801432182A08944
:104EA0004EF6F3110840A9882A8911436A89024302
:104EB0001143A181A08A4FF6FF410840A98901430F
:104EC000A1826846FFF79EF99C48844201D103986D
:104ED00000E00298A189090400EBC00101EB001079
:104EE000296801D5490000E08900B0FBF1F0642297
:104EF000B0FBF2F109010B096FF018056B4300EBF1
:104F00008300A3891D044FF0320306D503EBC000D4
:104F1000B0FBF2F000F0070005E003EB0010B0FB7F
:104F2000F2F000F00F000843208105B030BD4FF4CF
:104F30001651016000218180C18001810C224281D3
:104F40008181704710B5028A4FF2FF031A400B8827
:104F50004C8823438C88C9880C4323431343038222
:104F600010BD0021018041808180C18070470029EF
:104F7000818902D041F4005101E021F40051818186
:104F8000704710B5C1F3421301F01F040121A14085
:104F9000012B07D0022B07D01430002A026805D05D
:104FA0000A4304E00C30F8E71030F6E78A43026069
:104FB00010BD002A828A01D00A4300E08A4382821F
:104FC0007047028A22F00F020282028A0A4302829A
:104FD0007047828922F40062828182890A43828139
:104FE00070470029818902D041F0020101E021F0DF
:104FF000020181817047028A22F020020282028A25
:105000000A43028270470029018A02D041F480419C
:1050100001E021F4804101827047C1F308018180E1
:1050200070478088C0F308007047818941F0010112
:1050300081817047028BD2B20283028B42EA012146
:1050400001837047028B02F47F420283028B0A4382
:10505000028370470029818A02D041F0200101E0DB
:1050600021F02001818270470029818A02D041F01D
:10507000100101E021F01001818270470029818A2E
:1050800002D041F0080101E021F00801818270475F
:105090000029818902D041F4004101E0C1F30E01F1
:1050A000818170470029818A02D041F4006101E0CA
:1050B00021F4006181827047828A22F00402828298
:1050C000828A0A43828270470029818A02D041F095
:1050D000020101E021F002018182704702460020B6
:1050E00012880A4200D001207047C94301807047EE
:1050F00070B501F01F0501260024C1F3421306FA22
:1051000005F2012B0FD0022B0FD0838A4FEA112119
:105110000088134206FA01F600EA060001D000B149
:105120000124204670BD8389F0E7038AEEE70A0A6E
:1051300001219140C94301807047000000380140BF
:105140000044004000480040004C00400050004037
:1051500007480068704706490A6810440A68821ABE
:10516000002AFBDC704770477047704770477047F4
:105170008C00002010B54FF4F0442046FEF7D1FD1E
:10518000214605F091F8802005F0AEF9BDE8104009
:10519000014807F0F3B90000502D030830B414465D
:1051A0000846A1B230BC9AB280B2FBF789BE08466D
:1051B00091B280B2FBF7FDBB2DE9F04115460E46DA
:1051C0000446FFF7F4FF074620698068804787EAB6
:1051D00000032A4631462046BDE8F041DEE738B5F7
:1051E0001446F84A18460D4612680499D26B8BB2E1
:1051F000A1B2128892B2009282B2A8B2FCF7F8FC77
:1052000038BD08B50092FFF7EAFF08BD08B5009366
:105210000B46FFF7E4FF08BD2DE9FF5F9346E94821
:105220000EAA1F7892E8100300680D191E46007C34
:105230004FF0C00110F003001BD0022839D15FEA03
:1052400009005DD08A46C4F103004100C1F10602A5
:105250002AFA02F03840C84006D059F820305A46A1
:1052600029460098FFF79AFF641C6D1C042C3ED061
:1052700040E05FEA09001ED08A46C4F10300400006
:10528000C0F106022AFA02F13940C1405A4659F8E3
:10529000213029466D1C0098FFF780FF641C042C08
:1052A00002D116F8017F0024A8F101005FEA00088E
:1052B000E3D1BDE8FF9F8946C4F103004000C0F17F
:1052C000060129FA01F33B40C34029466D1C5A46AA
:1052D0000098FFF763FF641C042C02D116F8017FCD
:1052E0000024A8F101005FEA0008E5D1E1E716F823
:1052F000017F0024A8F101005FEA0008A3D1D8E7EC
:105300008946C4F103004000C0F1060129FA01F307
:105310003B40C34004D05A4629460098FFF73EFF61
:10532000641C6D1C042C02D116F8017F0024A8F126
:1053300001005FEA0008E4D1BBE72DE9FF5F934677
:10534000A0480EAA1F7892E8100300680D191E46A7
:10535000007C4FF0F00110F003001BD00228A8D110
:105360005FEA09005CD08A46C4F101008100C1F106
:1053700004022AFA02F03840C84006D059F820301A
:105380005A4629460098FFF709FF641C6D1C022C41
:105390003DD03FE05FEA09001DD08A46C4F101001C
:1053A0008000C0F104022AFA02F13940C1405A4695
:1053B00059F8213029466D1C0098FFF7EFFE641C58
:1053C000022C02D116F8017F0024A8F101005FEA47
:1053D0000008E3D16DE78946C4F101008000C0F107
:1053E000040129FA01F33B40C34029466D1C5A468B
:1053F0000098FFF7D3FE641C022C02D116F8017F3F
:105400000024A8F101005FEA0008E5D151E716F891
:10541000017F0024A8F101005FEA0008A4D148E759
:105420008946C4F101008000C0F1040129FA01F3AA
:105430003B40C34004D05A4629460098FFF7AEFED1
:10544000641C6D1C022C02D116F8017F0024A8F107
:1054500001005FEA0008E4D12BE72DE9FF4F83B09C
:105460001D46DDE91107DDE9134BDDF854A0DDF839
:105470004080164608284AD007DC01280BD00228B5
:105480001FD004281AD100203DE0102851D0202838
:1054900014D100207CE000200DE0CDF800B0CDE973
:1054A000015ADDE9030109EB0602234600F03AF94F
:1054B0003C4409F1010081464045EEDB07B0BDE800
:1054C000F08F00200DE0CDF800B0CDE9015ADDE904
:1054D000030109EB06022346FFF79EFE3C4409F157
:1054E000010081464045EEDBE8E7CDF800B0CDE9AC
:1054F000015ADDE9030109EB06022346FFF71DFF10
:105500003C4409F1010081464045EEDBD6E700202E
:105510000BE0CDE9005ADDE9030109EB0602234661
:1055200000F062F93C4409F1010081464045F0DB9E
:10553000C4E700200AE00095DDE9030109EB06025B
:10554000234600F09CF93C4409F1010081464045A6
:10555000F1DBB3E703980290049801900BEB06008F
:10556000A246A94600900DE0DDE90110DAF800300E
:10557000009AFFF713FE0198A9F10109401C0AF1F6
:10558000040A0190B9F1000FEEDC3C440BF101007C
:1055900083464045DEDB91E770B50446806860B91C
:1055A0001C2004F0C7FE0546A06020698068804783
:1055B00009F00CFDA861A06808B1002070BD0120B1
:1055C00070BD00008406002080680F2917D2DFE834
:1055D00001F016080A0C0E161616101412121414E6
:1055E00014004068704780687047C0687047006961
:1055F00070478069704701207047002070474FF066
:10560000FF307047012901D000207047AE48704735
:10561000806800220A804A808289521E8A80008A1D
:10562000401EC88070471CB5CDE9001280696A46EB
:10563000032100F010FA1CBD38B50546002000908B
:105640000C462846FFF7A8FFAA68002A06D0146077
:1056500000946A460221A86900F0FDF938BD70B5D2
:1056600015460C460646FFF797FFB0680028A7D0FE
:10567000C0E903454461A3E77CB5064600200090DD
:10568000019015460C463046FFF786FFB368002BA5
:105690000CD0586900B920465861C3E90145CDE9ED
:1056A00000456A460721B06900F0D5F97CBD70B5A8
:1056B0000446FFF771FF054600220121A06900F0B2
:1056C000CAF928437CE700228069052100F0C3B9AC
:1056D00000228069062100F0BEB91CB500230193A9
:1056E0008DF80410009280696A46042100F0B3F935
:1056F0001CBD0939082913D2DFE801F00406080AA5
:10570000120C0E107148704771487047714870470D
:1057100071487047714870477148704771487047C9
:10572000002070472DE9FF5F8346DDE90F700E9C76
:10573000D0E900986C480E191D4600684FF0800AA9
:10574000007C10F0030020D0012803D0022832D0C2
:1057500003282FD1DBF81000806880478046297825
:105760002AFA04F001420BD031465846029AFFF75C
:105770001EFD80EA080331465846029AFFF70EFDE7
:10578000641C761C082C2AD02BE029782AFA04F015
:10579000014201D0434600E04B463146761C584654
:1057A000029AFFF7FBFC641C082C01D100246D1C3D
:1057B0007F1EEAD17DE529782AFA04F0014205D05E
:1057C000434631465846029AFFF7E8FC641C761CB3
:1057D000082C01D100246D1C7F1EECD169E500244A
:1057E0006D1C7F1EBBD164E52DE9F04781463E4824
:1057F000DDE9085700681C469046007C0E4610F014
:10580000030003D0022810D14FBB35E05FB917E089
:1058100020784246314657F820304846FFF7BEFC14
:10582000641C6D1E761C002DF2DCBDE8F087237829
:10583000424631464846FFF7B1FC641C6D1E761C9B
:10584000002DF4DCF1E7207830B157F820304246E3
:1058500031464846FFF7A2FC641C6D1E761C002DE5
:10586000F1DCE2E7237823B1424631464846FFF7B0
:1058700095FC641C6D1E761C002DF3DCD5E72DE92C
:10588000F04108461C4691B280B2069DFAF7F3FE3D
:1058900016484FF480764661431543611449154F0D
:1058A00009893960802242610261036108E034F8AD
:1058B000021B0661436139604261026103616D1E32
:1058C000002DF4DCBDE8F081345603083956000899
:1058D0005F56000879560008AF560008C756000802
:1058E000D1560008DB560008840600200010014055
:1058F000940C00200C0C014070477047154810B5FF
:105900008088A0F5AA41103908D0A0F5C8516339A4
:1059100004D0BDE81040D020FDF7F3B90E4C0020B4
:1059200061688847A08910BD0A4810B58088A0F535
:10593000AA41103908D0A0F5C851633904D0BDE898
:1059400010409020FDF7DDB9034C002061688847C6
:10595000E08A10BD940C0020240000202DE9F843BB
:1059600000231A463F49404805F0B4F93F4E002055
:105970007288318809F0FEF972883188002009F0B8
:105980000FFAB08840F2DF14671CA0F5AA4140F27C
:105990001F354FF44878103921D0A0F5C85163392C
:1059A00027D0A0F5A6414FF4A078103931D0A0F54A
:1059B000D04104392DD0B07940F63F7540F65F7480
:1059C000E8B3062007F02AF800219B23F0220846BE
:1059D000009506F029FFBC230094424613E0002303
:1059E0003A4619461846009406F01EFF002300951B
:1059F000F3E70023424619461846009506F014FFC7
:105A00000023009419E00021012006F00DFFBDE8FD
:105A1000F883B079E22440F65B76C42540F6E46969
:105A200010B1062006F0FAFF002133464246084630
:105A3000009406F0F9FE4B4600953A46E3E7FFE78F
:105A40000095002132889B23084606F0EDFE009465
:105A50007288BC23D7E7012902D04FF0FF3070478E
:105A60000020704744260308E8000208940C002038
:105A700010B504464FF4080006F070FD05F066F816
:105A8000002C06D00522BDE810401146F84805F06C
:105A90007BBB10BD7CB5044608F0E4FE054608F06B
:105AA000EDFE03464FF40801F248CDE90001002164
:105AB0002A46084605F038FC002C07D002B0052223
:105AC000BDE870401146EA4805F05EBB7CBD2DE99B
:105AD000F14F84B008F0C6FE824608F0CFFE0746BC
